:020000040800F2
:1000000048920020A1010008232E0008DD290008E5
:10001000212E0008A7070008A133000800000000F7
:10002000000000000000000000000000272E000873
:10003000890B000800000000252E0008292E00086A
:10004000BB010008BB010008BB010008BB010008A0
:10005000BB010008BB010008BB010008BB01000890
:10006000BB010008BB010008BB010008BB01000880
:10007000BB010008BB010008BB010008BB01000870
:10008000BB010008BB010008BB010008BB01000860
:10009000BB010008BB010008BB010008BB01000850
:1000A000BB010008BB010008BB010008BB01000840
:1000B000BB010008BB010008BB010008BB01000830
:1000C000BB010008BB010008BB010008BB01000820
:1000D000BB01000821330008BB010008BB01000878
:1000E000BB010008BB010008BB010008BB01000800
:1000F000BB010008BB010008BB010008BB010008F0
:10010000BB010008BB010008BB010008BB010008DF
:10011000BB010008BB010008BB010008E92E000874
:10012000BB010008BB010008BB010008BB010008BF
:10013000BB010008250C0008D1100008BB01000815
:10014000BB010008BB010008BB010008BB0100089F
:1001500031080008BB0100084D080008BB01000879
:10016000BB010008BB010008BB010008BB0100087F
:10017000BB010008BB010008BB0100080000000033
:10018000BB010008BB010008DFF810D000F08AFABC
:1001900000480047AD600008AFF30080489200209F
:1001A0000648804706480047FEE7FEE7FEE7FEE711
:1001B000FEE7FEE7FEE7FEE7FEE7FEE7CD2E0008DE
:1001C000890100082DE9F05F0546002092469B4614
:1001D00088460646814640241BE02846414647465D
:1001E000224600F020F853465A46C01A914110D3D7
:1001F00011461846224600F08EF82D1A67EB0108CA
:100200004F4622460120002100F085F817EB000937
:100210004E41201EA4F10104DFDC484631462A4647
:100220004346BDE8F09F202A04DB203A21FA02F081
:100230000021704721FA02F3D040C2F12002914020
:1002400008431946704700000649074A08685043AA
:1002500043F23902104408604008704701490860C1
:1002600070470000080100206D4EC64110B5431ACA
:10027000934209D28318881803E010F8011D03F88F
:10028000011D521EF9D210BD40EA01039B0703D0A5
:1002900009E008C9121F08C0042AFAD203E011F8C5
:1002A000013B00F8013B521EF9D210BDD2B201E071
:1002B00000F8012B491EFBD270470022F6E710B56B
:1002C00013460A4604461946FFF7F0FF204610BDC4
:1002D00030B504460020034600E05B1C934203D285
:1002E000E05CCD5C401BF8D030BD30B50B4601461C
:1002F00000202022012409E021FA02F59D4205D3C5
:1003000003FA02F5491B04FA02F52844151EA2F16E
:100310000102F1DC30BD202A04DB203A00FA02F1B0
:10032000002070479140C2F1200320FA03F31943E3
:10033000904070472DE9FE4F804681EA0300C00FD0
:100340000C46009021F0004123F00045B8EB02007C
:10035000A94105D24046214690461C460B4602461E
:1003600023F00040104347D0270DC7F30A00C3F322
:100370000A510290401A019040286BDAC3F313002F
:1003800040F4801B0098924620B10023D2EB030A70
:1003900063EB0B0B01985946C0F140025046FFF742
:1003A000BAFF06460D4650465946019A00F08CF9B0
:1003B00010EB08006141002487EA115284EAE773D8
:1003C0001A4340D0009A62B3019A012A4FEA0752B9
:1003D00015DC001B61EB02014FF0004202EA0752FC
:1003E000CDE90042001C41F5801132462B4600F059
:1003F0008CF903B0BDE8F08F40462146F9E7001BB9
:1004000061EB0201001C41F5801300185B412018CC
:10041000A2F5001747EB030140EAD570B6196D410C
:1004200011E06D084FEA360645EAC0754FEA0752FB
:10043000001B61EB0201001C41F5801149084FEAE5
:1004400030000019514132462B4603B0BDE8F04F51
:1004500000F04CB90098012240000023D0EB0202CA
:1004600063EBE073009821464FEAE074B8EB0000BC
:1004700061EB0401E9E783F000435BE781F00041B1
:1004800058E72DE9FE4F81EA030404F0004421F00F
:10049000004100944FF0000B23F0004350EA0104A8
:1004A0005ED052EA03045BD0C3F30A54C1F30A5589
:1004B0002C44A4F2F3340194A0FB0254C1F31301C1
:1004C00041F48011C3F3130343F4801301FB02448E
:1004D00000FB034E840A970A44EA815447EA835793
:1004E000A4FB076802958D0A05FB07854FEA932C4C
:1004F00004FB0C542705029D4FEA065847EA1637BD
:10050000B5EB08056EEB070C870E920E47EA8117D4
:1005100042EA8312A7FB0201B6EB0B0164EB000475
:100520002B0D43EA0C335E1844EB1C50DA4651465F
:10053000E7FB0201C5F313044FEA0B3343EA1453FC
:100540004FEA0432019C43EA0603A4F10C0402942E
:10055000009CCDE900B400F0D8F803B0BDE8F08FFE
:1005600000200146F9E72DE9F04D81EA030404F08B
:10057000004B21F0004514464FF0000A23F00041E3
:1005800050EA050220D054EA01021DD0C5F30A57F3
:100590000246C5F31303C1F31300C1F30A5640F436
:1005A000801543F48013A7EB0608101BD64608F20B
:1005B000FD3873EB050002D308F1010801E0921841
:1005C0005B41B8F1000F03DA00200146BDE8F08D71
:1005D00000204FF48011064684460EE0171B73EB93
:1005E000050705D3121B63EB050306434CEA010C18
:1005F00049084FEA300092185B4150EA0107EDD1FB
:1006000052EA030012D082EA040083EA050108439B
:1006100005D0101BAB4106D20122002306E00022C8
:100620004FF0004302E06FF0010253101AEB060096
:100630004CEB085110EB0A0041EB0B01BDE8F04D0B
:1006400000F054B8C1F30A52C1F3130140F2FF3372
:1006500041F480119A4202DA00200146704740F2CC
:1006600033439A42A2F2334202DC5242FFF7DBBD2F
:10067000FFF751BE30B5041E71F1000404DB4FF0EA
:100680000044404264EB0101141E73F1000405DBD9
:100690001C464FF00043524263EB0403994208BFEB
:1006A000904230BD064C074D06E0E06840F0010383
:1006B00094E8070098471034AC42F6D3FFF768FD82
:1006C000A8D20008C8D20008202A06DBCB17203A9F
:1006D00041FA02F043EAE07306E041FA02F3D04047
:1006E000C2F12002914008431946704710B5141E0C
:1006F00073F1000408DA401C41F1000192185B41DB
:100700001A4301D120F0010010BD2DE9F04D9246B1
:100710009B4611B1B1FA81F202E0B0FA80F22032C8
:100720009046FFF7F8FD04460F4640EA0A0041EA0A
:100730000B0153465A46084313D0114653EA0100B1
:1007400019D0C8F140025046FFF76DFD05460E4630
:10075000504659464246FFF7DEFD084305D00120CA
:1007600004E020463946BDE8F08D0020054346EA06
:10077000E0762C4337430A986305E40AA0EB0800AF
:100780000022FD0A44EA47540A3002D500200146FF
:10079000E9E7010510196941DDE9084500196941DA
:1007A000BDE8F04DA2E7FEE7084882B000210268EC
:1007B00042F4805202600068054A00F480500090C4
:1007C00004480260017102B000F0CBBC3038024036
:1007D000003002400001002010B586B0142208A1AC
:1007E0006846FFF743FD052269460A4800F0A2FC6F
:1007F0000446014608A000F0A7F806B0204610BD48
:10080000000102030405060708091011121314154C
:1008100016171819000100204352435F43616C61B1
:10082000756C617465203D202523780D0A00000059
:100830000548C06B0068406803490C39087201F133
:10084000B40000F0FBBC0000288B0020014800F041
:10085000F5BC0000708B002001681823CAB2103A62
:10086000B2FBF3F2054B6FF30901032A9B5CC365EE
:1008700000D9091D816508467047000068D000084E
:1008800010B5014600208B698A6A4FF0C07453B1DD
:10089000B3F5005F15D072B1012A0CD0022A0AD03C
:1008A000032A09D104E01AB1012A06D0022A03D191
:1008B000C96AC90100D5012010BDC96AA142FAD098
:1008C00010BD002AF7D0012AF2D0022AF3D0032A61
:1008D000F3D010BD10B5114CD4F8E823002A1CD079
:1008E00004F2E47000680068400616D5214601F560
:1008F0007B70FFF7BBFC04F57B71D4F8E803C1F80B
:10090000E8030021C4F8E81304F57B7182B2BDE866
:10091000104001F57E7002F00DB810BD4483002038
:1009200030B50468256825F4802525600468636077
:100930008368402B036803D099600068C26030BDB3
:100940009A600068C16030BD0FB42DE9F047DFF850
:100950008080DFF880A008F57E764FF0000909ADB1
:10096000A6F2E4744FF4FA77D4F8E803B84210DA48
:10097000A0F2E9312B4649422044089A02F052FD88
:10098000CAF80400D4F8E8130A18C4F8E823BA42F5
:1009900006DB306800684006E6D5D4F8E82303E0BB
:1009A0003068006840060FD50B490948FFF75EFC28
:1009B000D4F8E803C8F8E803054982B201F57E706F
:1009C000C4F8E89301F0B6FFBDE8F0075DF814FB4A
:1009D00030870020EC000020448300202DE9F04700
:1009E000164CDFF854C00025FE26114FDFF8448076
:1009F0004AF6AA29E246226804E03E6088F80050E0
:100A0000CCF8009013685B06F7D50A4601460B4800
:100A100001F090FF41464A465046236802E03E609E
:100A20000D7002601C686406F9D5BDE8F08700000F
:100A3000002C0040FC00002000300040288B0020EB
:100A40002DE9F84F3248007800285ED102F0C6F94F
:100A500030480025016841F48001016000682F4C96
:100A600000F4800000902C484FF00067C4E90007B4
:100A70004FF00309C4E90A95A561E5614FF4806A66
:100A80002563C4E904A54020C4E902054FF0040829
:100A90004FF4003BC4E908B8204600F09FFCA4F1E5
:100AA00048060022B4630A214620A66301F06CFACE
:100AB000462001F05BFA1848603430382060C4E901
:100AC0000175C4E90A95A561E5612563C4E904A53A
:100AD000E560C4E908B8204600F080FCF463012218
:100AE0000A214420A66301F04FFA442001F03EFAA7
:100AF0006421A4F1B00000F013F83068C16841F03F
:100B00002001C160024801210170BDE8F88F00009A
:100B1000EC00002030380240B8640240708B0020A6
:100B200070B50026044606600D46084605F020FB19
:100B3000206030B12946FFF7C0FB267165710020A7
:100B400070BD02A0FFF700FF012070BD4572726FFB
:100B5000722121210920446174615F427566665FDC
:100B600051756575655F496E6974204572726F7263
:100B70003A6D616C6C6F632072657475726E204E95
:100B8000554C4C0D0A00000070470000F0B50023E2
:100B90001A464FF000454FF48C4600BF016903EB45
:100BA000830401EBC4010A604A608A60CA600A6279
:100BB0000D604A624E604F6827F000474F6000EBBF
:100BC0008307032BB96406D24FF0280C07690CEB9E
:100BD000C4043C4400E00469CC605B1C042BDDD3FE
:100BE000C26502668266C26682650169006800F5B8
:100BF0008050C160F0BD38B50446006800F58050F3
:100C0000816941F480118161206800F5805080691C
:100C10000090012000F084FC2068009900F58050CD
:100C2000816138BD014800F0FDBC0000DC4B0020B4
:100C300070B5A4B00024012506468DF828408DF833
:100C400004501494A8038DF8564005908DF8105068
:100C500002948DF85440C0108DF811508DF81F404B
:100C60008DF8204006908DF81E508DF80F400994A5
:100C70008DF81C4012948DF84C408DF85540694613
:100C8000304600F05DF98DF881508DF880408DF888
:100C9000824028041B908DF8685080011F908DF8C9
:100CA00070508DF8885040128DF871501E941D9030
:100CB0008DF87250239421948DF8895019A93046EB
:100CC000199400F0DDF824B070BD0020704701F0E9
:100CD000BFB8000010B5024800F07AFE002010BD39
:100CE000DC4B002013460A4610B50146034800F0CD
:100CF0000BFE002801D04FF0FF3010BDDC4B002070
:100D000013460A4610B50146034800F06FFF00285D
:100D100001D04FF0FF3010BDDC4B00202DE9F04337
:100D2000836A1830914650F823208D681C46176856
:100D30000026002F6FDB00EB83077F69C7BBD5F868
:100D400000C00127C2F808C0D2F804C0D5F804805A
:100D50006FF30C0C4CEA080CC2F804C091F800C008
:100D60005FEACC7C09D0D2F800C0D1F814802CF412
:100D7000400C4CEA080CC2F800C091F800C05FEAD1
:100D80008C6C09D5D2F800C0D1F810802CF0406CE2
:100D90004CEA080CC2F800C00978490703D511686D
:100DA00041F080011160116841F08051116042E012
:100DB00031E0116821F0005111601168B9F1000FA4
:100DC00002D041F0804101E021F0804111605B1CC4
:100DD000042B00D31B1F50F82320116821F08051F1
:100DE00011601168002903DB00EB83014969A9B197
:100DF00050F8242000210CE0BFF35F8F136823F02C
:100E000000431360641C042C00D3241F491C50F8B9
:100E10002420B942F0D30220BDE8F083AD682968F0
:100E200091605168D5F804C06FF30C0141EA0C01E0
:100E30005160761C7F1CBFF35F8F116841F0004149
:100E40001160A9680029B4D11168B9F1000F02D06E
:100E500041F0804101E021F080411160116841F0D2
:100E60000051116000EB8302416A5161036172B667
:100E7000761C816A3144816262B60020CCE70000B2
:100E800070B50C460168054601F5805188692B4A0A
:100E90001040227BEAB30022637B920642EA43625F
:100EA000637FBBB35FF0000342EA0352A37B42EAD5
:100EB000435263691A43237F42EAC312A37F42EA83
:100EC0008312236A1A4394F8243042EA83020243CD
:100ED0008A61286800F580508669012000F020FBB7
:100EE000286800F580508661A169A06822790843CE
:100EF000216941EA4261084394F8251040EAC11093
:100F0000A16A40EA81002168084340F40001286892
:100F100001E00FE010E000F580500160286800F566
:100F200080500468012000F0FBFA286800F580502A
:100F3000046070BD0122AFE70123B5E7233FDEF86F
:100F400070B5026805460C4610683A49237C084093
:100F5000A168002B63D0002341EAC351637C002BBE
:100F60005FD00023E67F9B0543EA0643194363698C
:100F70001943A37FF3B3002341EA4331237F41EABE
:100F80000331A3691943237941EA832194F820307E
:100F90008BB3002341EA4321E37B41EAC311636A37
:100FA000194394F8283041EA03110143116028687D
:100FB0000668012000F0B4FA286806602A68906983
:100FC0004FF641710840A36C216D41EA034194F84A
:100FD0004C3063B3002394F85560DB01012E00D040
:100FE000002643EAC603194394F85630012B00D07B
:100FF000002301E017E018E041EA830194F854303F
:10100000012B00D0002341EA43010143916128688C
:101010008469012000F084FA2868846170BD01238E
:101020009AE701239EE70123A6E70123B2E7012304
:10103000D1E700000F8120FF2DE9F843044600208E
:101040000090A56E4FF0010804EB8500E76E866CFA
:101050001CE0306A30B9684600F088FC009870B334
:101060003062B060B8F1000F10D0A06D40B34FF403
:101070008C407060306840F0004030606D1C042D82
:1010800000D32D1F04EB85007F1E866C17B1B8F1CD
:10109000000FDED1E06EB8420FD0681C00F00300F4
:1010A000BFF35F8F216900EB800001EBC001206876
:1010B00000F580508160C4E91A57BDE8F88300E06C
:1010C00002E04FF00008E1E70048D2E70046008068
:1010D000014800F0A7BA0000DC4B002072B6FEE722
:1010E000124810B5026886B0002142F00802026082
:1010F0000068029100F0080005900120019008208E
:101100000A4603910A4C00900146204600F09AFEE0
:101110006946204600F096FD322000F001FA0122D7
:101120000821204600F08EFE06B010BD3038024087
:10113000000C024030B50223437103689C6844F000
:1011400001049C60002304E0056851F823402C60F2
:101150005B1C9342F8D3016809680122427108467A
:1011600030BD10B5040002D0607910B106E0012056
:1011700010BD00202071204600F004F801206071AD
:10118000002010BD70472DE9F0410446876D00F046
:101190005FFE064694F835000025022806D0802020
:1011A000606584F834500120BDE8F0812068016852
:1011B00021F0160101602068416921F08001416140
:1011C000206C08B9A06C20B12068016821F00801EA
:1011D00001602068016821F0010101600CE000F06D
:1011E00037FE801B052807D920206065032084F87E
:1011F000350084F83450D7E720680068C007EED186
:1012000094F85C103F208840B860012084F83500D5
:1012100084F834500020C7E790F83510022903D035
:101220008021416501207047052180F83510006854
:10123000016821F001010160002070472DE9F843A9
:1012400004464FF00009CDF8009063484FF4165162
:10125000A56D0068B0FBF1F72E6894F85C100820CB
:1012600000FA01F131420FD021680A6852070BD50C
:101270000A6822F004020A6094F85C108840A860B2
:10128000606D40F00100606594F85C104FF001085B
:1012900008FA01F0304208D021684969090604D5EE
:1012A000A860606D40F00200606594F85C10042056
:1012B0008840304208D021680968890704D5A860B1
:1012C000606D40F00400606594F85C101020884068
:1012D000304218D021680968090714D5A860206831
:1012E0000168490304D50068000308D5A16C07E034
:1012F0000168C90503D4016821F008010160216C6F
:1013000009B12046884794F85C102020884030427C
:1013100031D021680968C9062DD5A86094F8350038
:1013200005282068016806D0490347D500680003F6
:101330001DD4616C1CE021F0160101602068416938
:1013400021F080014161206C08B9A06C20B12068B7
:10135000016821F00801016094F85C103F2088408A
:10136000A86084F8358084F83490216D1FE0E16B2B
:1013700009B120468847606D00282BD0606DC007FA
:1013800014D0052084F835002068016821F001019F
:1013900001600098401C0090B84203D820680068A3
:1013A000C007F6D184F8358084F83490E16C0029C8
:1013B00010D001B02046BDE8F04308470168C905D8
:1013C000D5D4016821F01001016084F8358084F8DB
:1013D0003490CCE7BDE8F883440000202DE9F041CB
:1013E000044600F035FD06465CB1022084F8350065
:1013F000002584F834502068016821F00101016063
:101400000DE00120BDE8F08100F022FD801B0528E1
:1014100005D920206065032084F83500F2E72068B4
:101420000068C007F0D12268116820480140D4E963
:1014300001031843D4E9033633431843636918435F
:10144000A3691843E3691843236A18430843616A90
:10145000042903D1D4E90B13194308431060206811
:101460004069666A20F0070130460E4301270428D0
:101470000CD1A06A0643E06A40B12046FFF700FAAB
:1014800020B14020606584F83570BAE72068466175
:101490002046FFF7E1F994F85C203F2191408160FC
:1014A000656584F835700020ACE700003F8010F0DF
:1014B0002DE9F0410446866D90F83400002501289E
:1014C0000DD0012084F8340094F835700020012FED
:1014D00007D084F8340002252846BDE8F0810220B8
:1014E000FBE7022784F8357060652046FFF718FA9D
:1014F00094F85C103F208840B0602068016841F09B
:1015000016010160206C20B12068016841F00801DB
:1015100001602068016841F001010160DCE7000022
:1015200070B5044600F094FC0546601C02D00448E7
:101530000078044400F08CFC401BA042FAD370BD3C
:1015400038000020704700296AD002681268C2F390
:10155000001281F828200268126802F060024A62D4
:101560000268126842F34022521C81F8202002686F
:101570001268C2F30042CA770268126842F340322E
:10158000521C8A7702681268C2F300320A77026836
:10159000126802F400628A610268126802F48042F2
:1015A0004A610268126842F38052521C4A7402680F
:1015B000126842F3C052521C0A7402681268C2F3E5
:1015C000C012CA730268126802F460228A6002685C
:1015D0001268C2F380220A7102689269C2F3400263
:1015E00081F854200268926942F3C012521C81F8BB
:1015F0004C200268926902F030020A650268926922
:10160000120C8A6402689269C2F3800281F8562043
:1016100000688069C0F3C00081F855000020704761
:101620000120704710B50446006800F580504169FC
:10163000490607D5C169490604D52B4941612046B1
:1016400000F0B8F9206800F580504169C90708D05A
:10165000C169C90705D04FF001114161204600F072
:10166000C2FA206800F580504169090422D5C16999
:1016700009041FD5D4F8881041F00801C4F8881077
:10168000416989040CD54169184A1140C4F88C108D
:10169000C16921F4C031C161E020C4F8840006E0D2
:1016A000426948F280610A40C4F88C2041612046BA
:1016B000FFF748FF2068816B09070AD5C06A00F070
:1016C0006000C4F89400204600F01CF90020C4F823
:1016D000940007480168090305D54FF40021016013
:1016E000204600F081FA10BD4000010000207E007D
:1016F000143C0140F8B5040003D0D4F8840010B1C4
:1017000007E00120F8BD2320C4F88400204600F043
:101710007DF83B480025016841F480410160006884
:1017200000F4804000903748016821F40001016016
:101730000168A268114301600068206800F58050CC
:10174000016841F00101016000F082FB06464FF4A0
:10175000FA770BE000F07CFB801BB84206D904202E
:10176000C4F88800E020C4F88400CAE7206800F5C7
:1017700080500068C007EDD12046FFF759FA0021DC
:10178000E06801EB810200EBC20005604560856006
:10179000C56004EB81039861036843F48013036020
:1017A000032905D22826E36806EBC2021A4400E0AA
:1017B000E268C260026842F440020260491C0429E7
:1017C000DED3A5622068E16800F580500161204603
:1017D000FFF7DCF960680C4A818811640178C378EE
:1017E00041EA0361837840781B0443EA0020014307
:1017F0005164C4F888501020C4F884000020F8BD5B
:10180000443802400438014000800240F0B587B0FF
:10181000044614216846FEF750FD35492068884289
:1018200063D134480024016841F00071016001680F
:1018300001F000710591016841F08061016001686B
:1018400001F080610591016841F00061016001686B
:1018500001F000610591016841F004010160016837
:1018600001F004010591016841F001010160016886
:1018700001F001010591016841F04001016000683B
:10188000022500F0400005903220CDE9000502AAB3
:1018900003260B2782E8D0006946174800F0D2F9EA
:1018A0008620CDE9000502AA694682E8D0001348E7
:1018B00000F0C8F94FF4D040CDE9000502AA69460E
:1018C00082E8D0000E4800F0BDF9002211463D200C
:1018D00000F05AFB3D2000F049FB002211463E205B
:1018E00000F052FB3E2000F041FB07B0F0BD0000CD
:1018F00000800240303802400008024000000240F0
:1019000000180240704700002DE9F0419846036836
:101910000546186900F01C044FF6FF7000EAC1206C
:101920004FF4F861204301EA8211014321F00200E3
:1019300040F001041C6100F08BFA06464FF480373A
:101940000AE000BF00F084FA801BB84202D30120F5
:10195000BDE8F08128680469E007F3D12868406990
:1019600081B20020C8F80010F2E700001CB5044660
:101970000D4805F031F803000FD003F1200020607E
:101980000A4818614FF4C0612068CDE900010021C8
:101990004122084605F0BAFD1CBD0549012008702A
:1019A000002020601CBD00005CD00008717B000896
:1019B00000000020704710B519B1D0F88420102A1B
:1019C00001D0012010BDFFF7BBFA002010BD0000C0
:1019D00070B505460068006920F01C0400F0A0FB0B
:1019E0001049114A0144914202D244F0080416E021
:1019F0000E490F4A0144914202D244F00C040EE019
:101A00000C490D4A0144914209D30C4908440C4940
:101A1000884202D244F0040401E044F01004286833
:101A2000046170BD00D3CEFEC0E1E40040F1E9FDE9
:101A300040787D0100796CFC005A6202001F0AFAAE
:101A400080F0FA0270B50446D0F88400102801D066
:101A5000012070BD2325C4F884500420E066204690
:101A6000FFF7EAFA2068016841F008010160206888
:101A700006680120FFF754FD2068066020680168B1
:101A800041F004010160206806680120FFF748FD6D
:101A9000206806602046FFF7AEF8206800F5805009
:101AA000816941F400518161206800F580508169AD
:101AB00041F002018161C4F88450002070BD70B50E
:101AC0000446D0F88400232801D0012070BD2320D3
:101AD000C4F88400206800F58050816921F4005129
:101AE0008161206800F58050816921F002018161E7
:101AF0002068016821F00401016020680568012068
:101B0000FFF70EFD206805602046FFF774F8206897
:101B1000016821F008010160206805680120FFF7D5
:101B2000FFFC206805601020C4F88400002070BD10
:101B30002DE9F0411546044621B1D4F8840023284C
:101B400005D04EE054F8880F40F0010008E0002274
:101B50002046FFF7E3F828B154F8880F40F0020060
:101B600020603EE0BFF34F8FA06A04EB8001401C71
:101B70008E69A062042801D3001FA06204EB8000DC
:101B80008169206800F58050416000F061F90746E6
:101B900019E0206800F58050406980040BD554F8A6
:101BA000880F40F00800206054F8880C00F5805041
:101BB0004069606015E0681C05D000F049F9C01B61
:101BC000A84206D82DB130680028E2DB0020BDE82D
:101BD000F08154F8880F40F0040020604FF040502E
:101BE00030600120F3E77047704700002DE9F041B5
:101BF00006680546306900F01C044FF6FF7000EAE5
:101C0000C1204FF4F861204301EA8211014398B2E8
:101C100041F0030470612868046100F019F9064678
:101C20004FF480370AE000BF00F012F9801BB84281
:101C300002D30120BDE8F08128680469E007F3D1F0
:101C4000F8E700002DE9F84FDFF8BCA100220125DC
:101C500003264FF00F090AF1040BAAF1040E00BF8E
:101C60000B6805FA02F42340A34270D10F7907F004
:101C70000307012F01D0022F16D187684FEA4208CF
:101C800006FA08FC27EA0C07D1F80CC00CFA08FC8D
:101C90004CEA070CC0F808C04768A7430C79C4F3A6
:101CA000001494403C4344600C79E443A4070AD0F8
:101CB000C4684FEA420C06FA0CF7BC438F6807FA77
:101CC0000CF72743C7600C7904F00304022C12D1EF
:101CD000D40800EB840CDCF820405707FF0E09FA0B
:101CE00007F824EA0804D1F8108008FA07F848EA4F
:101CF0000408CCF8208004684FEA420C06FA0CF77E
:101D0000BC430F7907F0030707FA0CF72743076076
:101D10004C6814F4403F70D03C4C276847F480472F
:101D20002760246822F0030704F480440094384CB0
:101D300007EB040CDCF8084897074FEA177809FA14
:101D400008F7BC43334FB84202D1002724E054E0E7
:101D5000314FB84201D101271EE0304FB84201D1C6
:101D6000022719E02E4FB84201D1032714E02D4F6E
:101D7000B84201D104270FE02B4FB84201D105270B
:101D80000AE02A4FB84201D1062705E0284FB842A1
:101D900001D1072700E0082707FA08F72743CCF806
:101DA0000878DAF800405746D1F804C09C435FEA4F
:101DB000CC2C00D51C433C60DBF800405F46D1F8DA
:101DC00004C09C435FEA8C2C00D51C433C60DEF8C9
:101DD00000407746D1F804C09C435FEA8C3C00D5B4
:101DE0001C433C60084F083F3C68D1F804C09C434A
:101DF0005FEACC3C00D51C433C60521C102AFFF427
:101E00002FAFBDE8F88F0000083C01404438024085
:101E1000003001400000024000040240000802407F
:101E2000000C024000100240001402400018024062
:101E3000001C0240426921EA02030A4043EA0241CF
:101E4000816170470AB1816170470904FBE70000B6
:101E500001488068704700003800002070B5040019
:101E600011D021684CF6CC400860216845F25550ED
:101E70000860D4E9000141602168A0688860FFF72C
:101E8000E7FF05460DE0012070BD00BFFFF7E0FF52
:101E9000401B312805D92068C068800701D0032085
:101EA00070BD2068C0688007F0D121684AF6AA207A
:101EB0000860002070BD000002488168027811446B
:101EC00081607047380000200B4810B5016841F46C
:101ED00000710160016841F480610160016841F4B2
:101EE00080710160072000F06FF80F2000F006F805
:101EF00000F024F8002010BD003C024070B50D4DEC
:101F000004464FF47A712878B1FBF0F00A49096869
:101F1000B1FBF0F000F010FB48B9102C07D2002202
:101F20002146501E00F030F800206C6070BD01208A
:101F300070BD000038000020440000200A4808B5A9
:101F4000016841F480410160006800F48040009025
:101F50000548001F016841F080510160006800F0F1
:101F60008050009008BD000044380240002809DB82
:101F700000F01F02012191404009800000F1E020A3
:101F8000C0F8001170470000F0B40E4B1B680C46FF
:101F9000C3F30223C3F10705042D00D90425191D3D
:101FA000072901D2002300E0DB1E012606FA05F115
:101FB000491E214099409E40761E16403143F0BC98
:101FC00001F04ABA0CED00E0064900F0070208688B
:101FD0004FF6FF03184040EA0220034A104308600E
:101FE000704700000CED00E00000FA052DE9F04715
:101FF0000E46050065D0DFF81481D8F80000F7B26E
:1020000000F00700B04207D288F80070D8F800004E
:1020100000F00700B04254D128683D4C810712D52A
:10202000400703D5206840F4E0502060287800077E
:1020300003D5206840F4604020602068A96820F043
:10204000F000084320602878C0072DD03049686828
:102050000839012812D0022813D0032811D00968AA
:10206000890700292DDA216821F00301014321604D
:10207000FFF7EEFE814641F2883A0EE009688903D7
:10208000EFE709688901ECE7FFF7E2FEA0EB090141
:10209000514502D90320BDE8F0872068696800F047
:1020A0000C00B0EB810FEFD1D8F80010404601F0E2
:1020B0000701B14207D90770006800F00700B0427D
:1020C00001D00120E7E72878400705D52068E968B6
:1020D00020F4E050084320602878000706D52068E7
:1020E000296920F4604040EAC100206000F03EF819
:1020F0002168084AC1F30311515CC84006490860D1
:1021000006480068FFF7FAFE0020C4E7003C0240E2
:102110000838024070D00008440000203C00002035
:102120000148006870470000440000200448054949
:1021300000680968044AC1F38221515CC8407047B5
:10214000440000200838024080D0000804480549B7
:1021500000680968044AC1F34231515CC8407047C5
:10216000440000200838024080D00008154810B50F
:10217000006810F00C02144813D04110042A0FD04C
:10218000082A0ED10F4C241F2268236802F03F0258
:102190005B0207D52068C0F38810A0FB010106E0B0
:1021A000084610BD2168C1F38811A1FB000100237E
:1021B000FEF708F82168C1F30141491C4900B0FB52
:1021C000F1F010BD083802400024F4002DE9F84F6A
:1021D00004006ED02078DFF84C93C007A9F1040505
:1021E0004AD009F104000168C1F38101012908D036
:1021F0000068C0F3810002280AD1D9F8000040022B
:1022000006D52868800337D560680028E1D033E020
:102210006068B0F5803F10D0B0F5A02F286810D0CE
:1022200020F480302860286820F4802028606068CE
:10223000A8B1FFF70DFE06460DE0286840F4803097
:10224000F4E740F480202860F7E700BFFFF700FEC6
:10225000801B642873D828688003F7D50CE0FFF74B
:10226000F7FD064605E000BFFFF7F2FD801B64287E
:10227000F0D828688003F7D42078DFF8AC82800794
:102280004FF0000A3ED5A748001D016811F00C0F61
:1022900008D00068C0F3810002280BD1D9F80000F3
:1022A000400207D42868800716D5E068012800D1CD
:1022B00012E033E1E068B8B10120C8F80000FFF790
:1022C000C7FD064605E000BFFFF7C2FD801B0228E0
:1022D000C0D828688007F7D52868216920F0F80061
:1022E00040EAC10028600DE0C8F800A0FFF7B0FD8B
:1022F000064604E0FFF7ACFD801B02281FD82868C3
:102300008007F7D42078000722D5864F8748616977
:10231000703771B101210160FFF79AFD064604E0B4
:10232000FFF796FD801B022809D838688007F7D58B
:102330000EE0C0F800A0FFF78BFD064605E082E046
:10234000FFF786FD801B02287DD838688007F7D408
:102350002078400768D5DFF8CCB100270BF13C0BA3
:10236000DBF80000C0000BD4DBF8001041F0805116
:10237000CBF80010DBF80000012700F0805000903F
:102380006B4E3068C00510D4306840F48070306007
:10239000FFF75EFD009005E0FFF75AFD0099401A37
:1023A000022850D83068C005F6D55E4EA0686C365D
:1023B00001280FD00528306810D020F001003060CF
:1023C000306820F004003060A068B8B1FFF740FD2D
:1023D00000900FE0306840F00100F4E740F00400A6
:1023E0003060F7E7FFF734FD0099411A41F2883079
:1023F000814266D830688007F4D50EE0FFF728FDEB
:10240000009007E0FFF724FD0099411A41F288305F
:10241000814256D830688007F4D42FB1DBF8001021
:1024200021F08051CBF80010A069C8B33D49091DC7
:102430000968C1F3810102294AD00228504607D019
:10244000C8F8600000E03CE0FFF702FD04463BE016
:102450004746C8F86000FFF7FBFC064605E000BFF2
:10246000FFF7F6FC801B02282BD828688001F7D4E0
:10247000D4E907010843A16A2E4A490802EB014149
:10248000626A41EA8211084394F82C1040EA016123
:10249000C9F8001001203866FFF7DAFC044606E0B0
:1024A0003EE000BFFFF7D4FC001B022809D82868D3
:1024B0008001F7D534E000BFFFF7CAFC001B0228FB
:1024C00002D90320BDE8F88F28688001F4D427E002
:1024D0000128F7D0D9F80000E26900F480019142A8
:1024E0001CD1226A00F03F01914217D147F6C0711A
:1024F000626A0140B1EB821F10D1A26A4FF0FF3334
:1025000000F4403103EB5202B1EB024F06D194F8D4
:102510002C1000F07060B0EB016F01D00120D1E70A
:102520000020CFE70438024000004742800E4742B7
:10253000007000400000FFFF10B5401EB0F1807F2A
:1025400001D3012010BD4FF0E02460610F2160171E
:1025500000F082FF0020A06107202061002010BD54
:10256000704710B504460068406994F84110C0F304
:10257000C010212911D180B12068143050E8001F0B
:1025800021F0800140E80012002AF5D1A06B08B1CB
:10259000FEF7F9FD204600F085FD2068406994F8BB
:1025A0004210C0F38010222911D180B1206814306C
:1025B00050E8001F21F0400140E80012002AF5D148
:1025C000E06B08B1FEF7DFFD204600F044FD00207F
:1025D00010BD7047F8B5016804460868CA684B69C1
:1025E00010F00F0F4FF0000559D003F0010602F470
:1025F0009077374365D0C10705D0D10503D5616C0D
:1026000041F001016164410705D5D90703D0616C30
:1026100041F002016164810705D5D90703D0616CDF
:1026200041F004016164010707D502F02001314344
:1026300003D0616C41F008016164616C00293AD0FB
:10264000800604D5900602D5204600F039FD2068AA
:102650004069616CC0F38010090700D460B3204664
:1026600000F0F9FC20684069400621D5206814304C
:1026700050E8001F21F0400140E80012002AF5D187
:10268000E06BA8B16E490165E06BFEF7C5FD00285F
:1026900011D0E06B016D01B0BDE8F0400847830642
:1026A0000FD593060DD52046BDE8F84000F008BDD3
:1026B0002046FFF78EFFF8BD2046FFF78AFF6564CE
:1026C000F8BD266B2023012E7DD1C6067BD5D6060C
:1026D00079D508684868009048694FF002064006BE
:1026E00041D5E16B086840680004000CE8D0A28D79
:1026F0008242E5D9E085C869B0F5807F2DD0206899
:102700000C3050E8001F21F4807140E80012002ACC
:10271000F5D12068143050E8001F21F0010140E895
:102720000012002AF5D12068143050E8001F21F073
:10273000400140E80012002AF5D184F842302563B8
:1027400020680C3050E8001F21F0100140E8001212
:10275000002AF5D1E06BFEF716FD6663A08DE18DD2
:10276000401A81B22AE0A08DE18D401A81B2E08D3D
:102770000028A5D00029A3D022680C3252E8000F0F
:1027800020F4907042E80007002FF5D12068143043
:1027900050E8002F22F0010240E80027002FF5D179
:1027A00084F84230256320680C3050E8002F22F076
:1027B000100240E80023002BF5D166632046FFF7A6
:1027C000CFFEF8BDFFE705062BD5150629D594F8F1
:1027D00041002128F5D1A068B0F5805F01D12069C2
:1027E000B0B1206A411C2162216800784860E08C09
:1027F000401E0004000CE084E3D12068C16821F091
:102800008001C1602068C16841F04001C160D8E723
:10281000206A0088C0F308004860206A801C20629B
:10282000E5E74006CDD55006CBD5CA68204622F054
:102830004002CA6084F8413000F0B8F8C1E70000F7
:102840000D2F000870B5040004D094F84100002555
:1028500010B106E0012070BD84F84050204600F021
:1028600023F8242084F841002068C16821F4005135
:10287000C160204600F086FC2068016921F4904187
:1028800001612068416921F02A0141612068C16825
:1028900041F40051C1606564202084F8410084F84F
:1028A00042006563002070BD10B586B00446142157
:1028B0006846FDF702FD14492068884221D113487B
:1028C0000021026842F010020260006800F010006F
:1028D00005900E481438026842F001020260006858
:1028E00000F0010005904FF4C06000900220CDE997
:1028F0000101032003900720049069460448FFF774
:10290000A1F906B010BD000000100140443802409B
:102910000000024090F84230202B01D00220704786
:1029200021B11AB10023036300F0B2BC012070474B
:102930007047704770B5044690F84100202801D0D8
:10294000022070BD49B342B32162A284E284002018
:102950006064212384F84130A56B114BEB63A56BB8
:10296000104B2B64A56B104BEB64A36B18652568AB
:1029700013462A1DA06BFEF79BFD21686FF04000F7
:1029800008602068143050E8001F41F0800140E8E2
:102990000012002AF5D1002070BD012070BD00009A
:1029A0000B3000084D3000081D2F0008704770479D
:1029B00010B504000FD000F010F8E068216840F076
:1029C00080000860616820690843A16808432168A5
:1029D0004860002010BD012010BD7047FEE70000D8
:1029E0000EB5094800900620019040F27710029041
:1029F0006846FFF733FA05480068800702D404A050
:102A000000F000FD0EBD00000030004074380240B0
:102A10004C53495F5243204F46460D0A00000000C8
:102A200038B504460020009063696A460121206899
:102A300098476FF00405002825DB63696A46012189
:102A40002068984700281EDB0098400701D4012029
:102A500038BD63696A46002120689847002812DB68
:102A60000098C10408D44FF4045181431CD0810460
:102A70001CD4C0051CD415E063696A461F21206878
:102A80009847002801DA284638BD0098C10401D4CF
:102A9000062038BDC0F38200062805D0022805D0E4
:102AA000052805D0052038BD022038BD032038BDDB
:102AB000042038BD2DE9F8430446002006460546AB
:102AC00000906068A8BBA06800B1804720206FF02C
:102AD0000407206063696A4612213046984700283F
:102AE00001DA3D4607E0009800F01F00B04202D135
:102AF0000025266002E0761C1F2EEBD920681F28D7
:102B000002D96FF0020530E07DBB23694FF400422B
:102B100000219847002830DB63696A46002120685D
:102B20009847002827DBA069804706464FF4FA78CB
:102B30000CE00EE0A0698047801B404518D863690F
:102B40006A46002120689847002814DB009800049A
:102B5000F0D4A069804706464FF4FA67A069804721
:102B6000801BB842FAD9012060602846BDE8F8838E
:102B70006FF00105F9E73D46F7E76FF00305F4E76D
:102B800088B1CA687AB18A686AB10A695AB10A68B2
:102B900082604A68C260CA6842618A6802610969E3
:102BA0008161002070474FF0FF30704710B500F092
:102BB00025F8002000F05EF8012000F05BF84FF4EB
:102BC0007A742046FEF7ACFC002000F043F80120A8
:102BD00000F040F82046FEF7A3FC002000F05AF871
:102BE000012000F057F82046FEF79AFC002000F084
:102BF00031F8BDE81040012000F02CB8134800B5B2
:102C0000026887B0002142F020020260026802F0F0
:102C100020020592026842F020020260006800F083
:102C200020000590012001904FF4C0600090032027
:102C3000CDE9021069460648FFF704F8002000F0CD
:102C400009F8012000F006F807B000BD3038024056
:102C500000140240064B30B1012807D10122810245
:102C60001846FFF7EFB801225102F9E7704700005C
:102C700000140240064B30B1012808D10022810225
:102C80001846FFF7DFB800224FF40071F8E77047ED
:102C900000140240054A28B1012806D181021046DD
:102CA000FFF7C8B84FF40071F9E77047001402400D
:102CB000FEB5454CC020251D2070A8206070012065
:102CC000A0700A20E070FF2028706870A8700027AC
:102CD0002E1DEF7037707770B770F77003F0D6F96C
:102CE000208841BA0A04A17842EA0123E27844BA72
:102CF0002404134344EA01241B06A4B243EA042338
:102D000044BA40BA000440EA0120E4B243EA042392
:102D10001043A5F1100143EA10600860288841BA09
:102D20000A04A97844BA42EA0123EA782404134346
:102D300044EA01241B06A4B243EA042344BA40BA7D
:102D4000000440EA0120E4B243EA04231043A5F161
:102D50000C0143EA10600860308841BA0A04B17877
:102D600044BA42EA0123F2782404134344EA0124DA
:102D70001B06A4B243EA042344BA40BA000440EA62
:102D80000120E4B243EA0423104343EA1060A5F1B2
:102D90000801A5F1080308600C480D490097CDE92A
:102DA00001101A1F111F0B4803F05CFE094804F0C4
:102DB00073F8084804F084F903B00749BDE8F0400F
:102DC000044804F0C3B800002C000020F1490008BA
:102DD000254C0008E44C0020294B00080F4810B592
:102DE0000D4901604FF461214160002181600C2296
:102DF000C160C0E904128161C161FFF723FD08B120
:102E0000FEF76CF9002207212520FFF7BDF8BDE889
:102E100010402520FFF7AAB800100140288B0020A1
:102E2000FEE7FEE77047704710B5FFF745F8BDE8CD
:102E30001040FDF74FBD000030B593B0302168461B
:102E4000FDF73BFA14210CA8FDF737FA1D480025C1
:102E5000016841F080510160006800F080501190DD
:102E60001948016841F4804101600068022400F4BF
:102E70008040119001200090000401908001CDE974
:102E8000064008AA0420A82182E813000B90684697
:102E9000FFF79CF908B172B6FEE70CA90F2081E894
:102EA00031004FF4A0500F904FF480501090052146
:102EB0000CA8FFF79BF8002801D072B6FEE713B00C
:102EC00030BD0000403802400070004005480168F5
:102ED00041F47001016003494FF0006080390860DF
:102EE0007047000088ED00E006480168C90707D078
:102EF00005490A68521C0A60016821F0010101605D
:102F00007047000010140040F800002010B5806BDE
:102F10000021C185C184FFF75CFB10BD70B5846BD7
:102F20002068406994F84110C0F3C01000252129A1
:102F300004D118B1E584204600F0B4F82068406957
:102F400094F84210C0F38010222904D118B1E5850D
:102F5000204600F080F8606C40F01000606420466D
:102F6000FFF737FB70BD10B50146806B0968096833
:102F70004FF00002C9052ED4C28501680C3151E81A
:102F8000003F23F4807341E80034002CF5D1016840
:102F9000143151E8003F23F0010341E80034002CD4
:102FA000F5D10168143151E8003F23F0400341E8B6
:102FB0000034002CF5D1202180F84210016B01294A
:102FC00009D101680C3151E8003F23F0100341E8BA
:102FD0000034002CF5D14263016B012902D0FFF7C8
:102FE000A7FC10BD818DFFF7BBFA10BD10B5806B3B
:102FF00001214163016B012902D0FFF79AFC10BD4A
:10300000818D4908FFF7ACFA10BD10B50146806B01
:1030100009680968C90516D40021C1840168143102
:1030200051E8002F22F0800241E80023002BF5D167
:1030300001680C3151E8002F42F0400241E80023C2
:10304000002BF5D110BDFFF7B1FC10BD10B5806BA2
:10305000FFF7ADFC10BD01680C3151E8002F22F4E0
:10306000907241E80023002BF5D10168143151E83A
:10307000002F22F0010241E80023002BF5D1016B63
:10308000012909D101680C3151E8002F22F010020A
:1030900041E80023002BF5D1202180F842100021C7
:1030A0000163704701680C3151E8002F22F0C00223
:1030B00041E80023002BF5D1202180F84110704712
:1030C00008B590F84210222901D0022008BD82687C
:1030D0004FF480539A4201D1016921B1816A9A4229
:1030E0001BD04AB10AE00268816A5268C2F3080242
:1030F0000A80816A891C08E0026972B1026852681C
:1031000002F07F020A70816A491C8162C18D491EEA
:103110000904090CC18503D01BE002685268F1E77D
:103120000168CA6822F02002CA600168CA6822F4F5
:103130008072CA6001684A6922F001024A61202156
:1031400080F8421000214163026B012A03D0FFF78F
:10315000EFFB002008BD016301680C3151E8002F2E
:1031600022F0100241E80023002BF5D101680A6823
:10317000D20602D50A6849680091818DFFF7F0F9FF
:10318000E7E7000070B5044600680169E26821F4D1
:103190004051114301612169A068E26908436169F6
:1031A000114308432168CA6849F20C639A430243F9
:1031B000CA6020684169A26921F4407111434161EC
:1031C00031492068884202D03049884202D1FEF756
:1031D000BDFF01E0FEF7AAFFE26900231921642583
:1031E0003226B2F5004F626828D0A0FB0101930F90
:1031F0009200FCF7E7FF0146B0FBF5F06FF0180214
:10320000504301EB800006EB0010B0FBF5F000F03E
:10321000F002B1FBF5F002EB0012B1FBF5F06FF03C
:103220001803584301EB800006EB0010B0FBF5F0EB
:1032300000F00F0021681044886070BDA0FB010100
:1032400092185B41FCF7BEFF0146B0FBF5F00201AE
:10325000B1FBF5F06FF01803584301EB800006EB6B
:10326000C000B0FBF5F000F0F80002EB4002B1FB4B
:10327000F5F0584301EB800006EBC000B0FBF5F021
:1032800000F00700D6E700000010014000140140E4
:1032900038B581620446828500201346606422228C
:1032A00084F84220E56B1B4AEA63E56B1A4A2A64FC
:1032B000E56B1A4AEA64E26B10650A462168E06B26
:1032C000091DFEF7F5F82068016840680090206944
:1032D00048B120680C3050E8001F41F4807140E88C
:1032E0000012002AF5D12068143050E8001F41F088
:1032F000010140E80012002AF5D12068143050E89E
:10330000001F41F0400140E80012002AF5D10020E2
:1033100038BD0000672F0008ED2F00081D2F0008A2
:10332000F8B51E4C20680168A4F10C0589064FF021
:1033300001060FD54068696808702E726E702068AB
:10334000C16841F01001C160696864222046491CCF
:10335000FFF7E0FA1148FFF73DF920680168C90658
:103360001AD5E26B297A126852680027C2F164020A
:1033700011442972016841680091C16821F010016F
:10338000C16039460548FFF7ECF82068C16841F094
:103390002001C1602E706F70F8BD0000288B0020E6
:1033A000FEE70000144808B5016841F400610160BF
:1033B0000068124900F400600090114801607E210D
:1033C000C1604FF4007101614FF4C07141607F2111
:1033D00081600A480830016821F001010160084855
:1033E000FFF7E6FA002201211046FEF7CDFDBDE809
:1033F00008400020FEF7BABD40380240002C0040D3
:10340000308C00200FB4054B10B503A9044A029874
:1034100000F004F910BC5DF814FB0000B54C000886
:103420000C0100207CB50C001D461646014601D05B
:10343000601E00E00020CDE90010064B6A462946D8
:10344000304600F0EBF8002C02D0009A00211170F9
:103450007CBD0000233D00080907090E002804DB9D
:1034600000F1E02080F80014704700F00F0000F138
:10347000E02080F8141D704702E008C8121F08C140
:10348000002AFAD170477047002001E001C1121FE5
:10349000002AFBD1704700002DE9FF5F82B00021B8
:1034A000DDE90430020DDDF840B0034318D044F6E6
:1034B0001050A2F2FF3242431514119801281FD078
:1034C000A5EB0B00401C5FEA000A4FF000064E4FD0
:1034D000DFF83891B046504615D5CAF1000413E024
:1034E000119801244AA3012801D16FEA0B01029827
:1034F000119AC0E90031C0E9024206B0BDE8F09F70
:10350000CBF10000DFE704460021404A491842EBB6
:103510000450CDE9001012E0E00707D032463B46E8
:1035200040464946FCF7ADFF8046894632463B4659
:1035300010461946FCF7A5FF06460F466410002CFE
:10354000EAD1DDE90401DDE90023BAF1000F06DA72
:10355000FCF797FF42464B46FCF793FF05E0FDF76B
:1035600002F842464B46FCF7FEFF04460E46002298
:10357000284BFDF77FF803D84FF0FF30014607E0F6
:103580000022254B20463146FCF7D4FEFDF75AF8C1
:10359000102409E0002C0ADB0A220023FCF712FEAB
:1035A000039B30321A55641E50EA0102F2D1641CAA
:1035B000039AC4F111031444119A012A03D0012281
:1035C00008430DD10AE0084304D000204FF0110B4E
:1035D000119072E7A3EB0B056D1E0DE05B4504DD5A
:1035E0004FF0000205F1010504E003DA4FF000029C
:1035F000A5F10105002AECD002981199C0E9023129
:10360000C0E9004579E70000000014400000F03FE9
:10361000300000000000F0430000E03F2DE9FF4FC4
:1036200095B09A46884606460025EEE1252877D1D2
:1036300000242746F94A0121039400E0044316F8C8
:10364000013F203B01FA03F01042F7D130782A28DD
:1036500011D06FF02F033078A0F13002092A16D86C
:10366000039A44F0020402EB820203EB420210448C
:10367000761C0390EFE758F8042B0392002A03DA34
:10368000504244F40054039044F00204761C307815
:103690002E2816D116F8010F44F004042A280DD064
:1036A0006FF02F023078A0F13003092B09D807EB17
:1036B000870302EB4303C718761CF3E758F8047B33
:1036C000761C30786C280FD006DC4C2817D0682880
:1036D0000DD06A2814D104E0742810D07A280FD1B4
:1036E0000DE044F400140AE044F4801401E044F4D2
:1036F00040147278824202D104F58014761C761C44
:10370000307866280BD013DC582877D009DC0028E5
:1037100075D04528F6D04628F4D047281AD193E131
:1037200018E0632835D0642879D0652812D18BE160
:10373000702873D008DC6728F1D069286FD06E2814
:103740000DD06F2806D1ACE073282CD0752874D02A
:10375000782853D05246179990476D1C54E1C4F312
:103760000250022809D003280DD0D8F800100428F0
:103770000DD00D6008F1040846E1D8F80010EA17F2
:10378000C1E90052F6E7D8F800100D80F2E70D709D
:10379000F0E718F8041B8DF8001000208DF80100E8
:1037A000EB46012003E058F804BB4FF0FF306107FF
:1037B0004FF0000102D40DE009F101018946B94240
:1037C0000FDA8145F8DB1BF809100029F4D108E075
:1037D00009F1010189468142FADB1BF80910002931
:1037E000F6D103985346A0EB090721463846179AAD
:1037F00000F080FA284400EB090507E044E008E106
:103800000DE01BF8010B524617999047B9F10109D9
:10381000F7D2534621463846179AF2E039E00A219A
:10382000C4F302524FF0000B0091022A06D058F860
:10383000040BC117032A09D00AE023E008F10700AE
:1038400020F00702F2E80201904605E000B2C1173D
:10385000042A01D140B2C117002906DA0A46002124
:10386000404261EB02012D2202E0220504D52B2209
:103870008DF80420012203E0E20701D02022F7E7BF
:10388000914657E00A2100E010214FF0000B009113
:103890000BE010214FF0000B44F0040408270091C6
:1038A00003E008204FF0000B0090C4F30252022AFC
:1038B00005D058F8040B0021032A08D008E008F1CD
:1038C000070020F00702F2E80201904603E080B210
:1038D000042A00D1C0B24FF0000922072AD532785D
:1038E000702A07D0DDF800C08CF0100C5CEA0B0CDD
:1038F00005D00EE040228DF80420012208E050EAB5
:10390000010306D030238DF804308DF80520022203
:103910009146009B83F0080353EA0B030AD150EA57
:10392000010201D1620705D530228DF804204FF045
:1039300001097F1E3278582A04D039A20C920CAAB1
:1039400002920BE03BA2F9E75B46009AFCF73AFCD7
:103950000C9B9B5C029A521E0292137050EA010269
:10396000F2D1029804A9081A00F1200B600702D5D1
:1039700024F4803400E001275F4502DDA7EB0B0053
:1039800000E0002000EB0B01009003984944401A2E
:103990000390E00306D453462146179A039800F09B
:1039A000A9F90544002706E001A85246C05D179911
:1039B00090476D1C7F1C4F45F6DBE0030CD553464A
:1039C0002146179A039800F095F9054404E0302049
:1039D0005246179990476D1C0099481E0090002987
:1039E000F5DC08E00298029952460078491C0291E1
:1039F000179990476D1CBBF10001ABF1010BF1DC95
:103A00005BE100F065F90544761C307800287FF40E
:103A10000DAE19B02846BDE8F08F0000092801005E
:103A20003031323334353637383961626364656634
:103A300000000000303132333435363738394142F6
:103A40004344454600000000600700D4062708F103
:103A5000070020F00700F0E80223804603F0004C46
:103A60005FEA0C0001D097A009E0200501D596A0DF
:103A700005E0E00701D095A001E0AFF24C00139003
:103A8000307823F0004365280CD006DC452809D0A7
:103A900046281DD047287FD13BE0662818D06728EC
:103AA0007AD136E00021112F01DB112000E0781CD3
:103AB000CDE9000104A90CA8FFF7EEFCDDE90D013A
:103AC0000C9A4FF0000B07F10109109200914EE0A3
:103AD0004FF000400097CDE9011004A90CA8FFF7B2
:103AE000DBFCDDE90D020C9B0F994FF0000B9146BA
:103AF0001093009211B9791C00EB0109B7EB090092
:103B000003D4C0F1FF3B07F10109A9EB07000190C5
:103B100042E0012F00DA01270021112F01DD1120E1
:103B200000E03846CDE9000104A90CA8FFF7B4FC79
:103B3000DDE90D010C9A00914FF0000BB94610928F
:103B400021070FD4009A4A4503DA914601E0A9F112
:103B50000109B9F1010F05DD109AA9F10101515CCC
:103B60003029F4D0B84202DA10F1040F03DA01214F
:103B7000CDE9011010E0002803DC8344A9EB00012B
:103B800002E0411C494500DD8946A0EB0B00401CCA
:103B900001904FF000400290200705D4019848455D
:103BA00002DB4FF0FF30019000208DF84B000298AF
:103BB0000DF14B07B0F1004F25D002200C902B20C7
:103BC0000D90029800280CDA404202902D200D90B2
:103BD00007E00A210298FCF788FB3031029007F8D1
:103BE000011D0C99481E0C900029F2DC0298002857
:103BF000EFD1791E0D980870307800F0200040F069
:103C0000450007F8020D11A8C01BC01D02901398B3
:103C1000007800B1012000EB0901019801EBE0718F
:103C2000029801440398401A401E0390E00306D412
:103C300053462146179A039800F05CF80544139800
:103C4000007818B15246179990476D1CE00323D5B0
:103C500053462146179A039800F04CF805441BE0A0
:103C6000BBF1000F07DB0098584504DD1098179949
:103C700010F80B0001E01799302052469047019848
:103C80000BF1010B401E05F10105019004D12E201E
:103C90005246179990476D1CB9F10001A9F101092D
:103CA000DEDC05E017F8010B5246179990476D1CB2
:103CB0000299481E02900029F4DC53462146179AC7
:103CC00003989EE62D0000002B000000200000005D
:103CD0002DE9F041044600251E461746880404D409
:103CE00005E039462020B0476D1C641EF9D52846F2
:103CF000BDE8F0812DE9F041044600251E469046BE
:103D0000C80301D5302700E02027880404D505E04A
:103D100041463846B0476D1C641EF9D52846BDE8BB
:103D2000F0814A68002A06D00A68531C0B601070A4
:103D30004868401E4860704770B505460C468807C5
:103D400006D006A34FF4B67210A118A0FFF75AFBD5
:103D5000A86800682060A868046070BD2E2E2F4DF2
:103D60006964646C6577617265732F546869726405
:103D70005F50617274792F4C7749502F7372632FA3
:103D8000636F72652F6D656D702E63006D656D706C
:103D90005F667265653A206D656D2070726F706543
:103DA000726C7920616C69676E656400417373653C
:103DB0007274696F6E2022257322206661696C65BA
:103DC00064206174206C696E6520256420696E2012
:103DD00025730A0010B580680468002C0CD0216897
:103DE0000160A00706D005A34FF48C720FA118A0A4
:103DF000FFF708FB204610BD002010BD2E2E2F4DD2
:103E00006964646C6577617265732F546869726464
:103E10005F50617274792F4C7749502F7372632F02
:103E2000636F72652F6D656D702E63006D656D70CB
:103E30005F6D616C6C6F633A206D656D70207072A0
:103E40006F7065726C7920616C69676E65640000E3
:103E5000417373657274696F6E2022257322206628
:103E600061696C6564206174206C696E65202564ED
:103E700020696E2025730A0070B5094D064600249E
:103E800004EB440005EBC000017D29B18068B0421D
:103E900002D1204600F036F9641C0A2CF0DB70BD1C
:103EA000548200202DE9F74F84B04FF00A0B002414
:103EB0000646DA465F46D94602940194CDF80040A2
:103EC000514904EB440001EBC008039098F81450EA
:103ED0000A2F1DD0002D2AD0012D08D0022D06D288
:103EE0004AA340F2231257A166A0FFF78BFA9EB1B6
:103EF0003168D8F8040081420ED1069820B1D8F874
:103F000008100698814207D1204607B0BDE8F08F1F
:103F1000002DE1D127460AE0012D16D0022D06D34F
:103F2000B8F812000099884201D3A2460090641CA0
:103F300024B20A2CC4DB059881074FF0FF30E4D48B
:103F40000A2F16D018DA3C463EE02F49039851F864
:103F500030000028B8F8120005D002998842E6D354
:103F6000A1460290E3E701998842E0D3A34601907D
:103F7000DDE70599C907C8D05146BAF10A0F0EDA34
:103F80000C46214801EB440150F8310080B11FA3D9
:103F900040F26D1245A13BA0FFF734FA08E0594604
:103FA000BBF10A0F03DB4946B9F10A0FADDA0C4643
:103FB0000A2C06DB15A340F27F1242A131A0FFF7C5
:103FC00021FA204600F09EF80A2C06DB0FA340F2EF
:103FD00083123CA12BA0FFF715FA0B4804EB440118
:103FE00000EBC105287D30B108A34FF4C2723AA19D
:103FF00024A0FFF707FA0EB13068686000206882DD
:104000000698A86080E70000548200202E2E2F4DD5
:104010006964646C6577617265732F546869726452
:104020005F50617274792F4C7749502F7372632FF0
:10403000636F72652F697076342F65746861727072
:104040002E6300007374617465203D3D2045544823
:104050004152505F53544154455F50454E44494E80
:1040600047207C7C207374617465203E3D2045545C
:10407000484152505F53544154455F535441424C60
:1040800045000000417373657274696F6E202225CC
:104090007322206661696C6564206174206C696EAE
:1040A0006520256420696E2025730A006172705FA7
:1040B0007461626C655B695D2E71203D3D204E55DB
:1040C0004C4C000069203C204152505F5441424C0E
:1040D000455F53495A4500006172705F7461626CBC
:1040E000655B695D2E7374617465203D3D204554A8
:1040F000484152505F53544154455F454D505459C7
:104100000000000070B5074C00EB4005002654F895
:10411000350018B103F082FC44F8356004EBC500AB
:10412000067570BD548200202DE9F04385B00D0066
:10413000074609D07C684FF480782088404539D103
:104140002079062836D109E01CA340F28A2229A151
:104150002CA0FFF757F905B0BDE8F083607904287B
:1041600028D16088082825D1D4F80E000490A169D0
:10417000686820B1814202D10126334601E0002661
:10418000022304F10802914604A9284600F0A2FB8C
:10419000E08840450ED16EB1022204ABCDE9023277
:1041A000291DCDE9001905F1260319464A4628467E
:1041B00000F090FA384603F031FCCCE72E2E2F4D5C
:1041C0006964646C6577617265732F5468697264A1
:1041D0005F50617274792F4C7749502F7372632F3F
:1041E000636F72652F697076342F657468617270C1
:1041F0002E6300006E6574696620213D204E554C8B
:104200004C000000417373657274696F6E20222543
:104210007322206661696C6564206174206C696E2C
:104220006520256420696E2025730A00FEB51546B9
:104230000E46040006D143A340F21E324FA153A004
:10424000FFF7E0F836B93FA340F21F3259A14FA063
:10425000FFF7D8F835B93BA34FF4487258A14BA0EB
:10426000FFF7D0F82146286800F0B2FE08B1584B9D
:104270003FE02868C0F303110E2925D0A1686368C8
:1042800000EA01020B409A4208D080B2A0F57E41BC
:10429000A93903D0E068B0B304F10C054D4B4E488A
:1042A0001A7802EB420100EBC1010F7D022F2ED3E1
:1042B0008F68A7422BD12F6849688F4227D131469A
:1042C000204600F08BF8FEBD01208DF80400002090
:1042D0008DF805005E208DF80600687801AB00F0CF
:1042E0007F008DF80700A8788DF80800E8788DF831
:1042F00009004FF40060009004F126023146204688
:1043000000F014FCFEBDFFE76FF00300FAE70022A7
:1043100002EB420100EBC1010F7D022F08D38F6831
:10432000A74205D12F6849688F4201D11A70C6E7AC
:10433000521CD2B20A2AEBD332462946204600F05C
:10434000D5F8DFE72E2E2F4D6964646C65776172B6
:1043500065732F54686972645F50617274792F4C71
:104360007749502F7372632F636F72652F69707670
:10437000342F6574686172702E6300006E65746915
:104380006620213D204E554C4C0000004173736562
:104390007274696F6E2022257322206661696C65D4
:1043A00064206174206C696E6520256420696E202C
:1043B00025730A007120213D204E554C4C00000011
:1043C00069706164647220213D204E554C4C0000A0
:1043D00088D00008E0000020548200202DE9F84336
:1043E0000646154688461C4802EB450100EBC10411
:1043F000207D022806D219A340F2EE2225A131A089
:10440000FFF700F8144A05EB4501207D02EBC105DA
:104410000C35022813D1608A0327B0F58E7F04D9AA
:10442000211D304600F010FA07E0B0F5877F06D373
:104430002A46211D304600F00DFA00B927754FF4C9
:10444000006000902B4606F126024146304600F0FF
:104450006DFBBDE8F8830000548200202E2E2F4D06
:104460006964646C6577617265732F5468697264FE
:104470005F50617274792F4C7749502F7372632F9C
:10448000636F72652F697076342F6574686172701E
:104490002E6300006172705F7461626C655B6172B3
:1044A000705F6964785D2E7374617465203E3D2091
:1044B0004554484152505F53544154455F53544111
:1044C000424C4500417373657274696F6E202225FA
:1044D0007322206661696C6564206174206C696E6A
:1044E0006520256420696E2025730A002DE9FC5F94
:1044F0008246263001900E46086814464FF0FF377A
:104500004FF0000B514600F063FD80B93068C0F3F6
:1045100003110E290BD056B148B152460121304645
:10452000FFF7C0FC050005D540B2BDE8FC9F6FF069
:104530000F00FAE77F2D06D337A340F2C13244A122
:1045400047A0FEF75FFF05F0FF094F4909EB490857
:1045500001EBC805287D00280ED0012808D00228CC
:1045600006D22DA340F2CD3248A13DA0FEF74AFF6E
:10457000BBF1000F06D104E001202875C5F808A0A2
:1045800000E034B93146504600F05EF90746002C91
:10459000CBD0287D3C4E02280ED346494FF4006014
:1045A00005F10C0381F80090009021465046019AD5
:1045B00000F0BCFA07462DE001282BD1254640F239
:1045C000F13768892989884207D1286828B112A360
:1045D0003A4639A122A0FEF715FF287B400607D5F1
:1045E00022464FF420710E2003F04EF8044605E0F9
:1045F0002D68002DE5D1204603F07CFB44B156F830
:10460000380008B103F00AFA46F83840002701E004
:104610004FF0FF37384688E72E2E2F4D6964646CC3
:104620006577617265732F54686972645F50617257
:1046300074792F4C7749502F7372632F636F7265B3
:104640002F697076342F6574686172702E63000074
:1046500074797065206F766572666C6F7700000004
:10466000417373657274696F6E2022257322206610
:1046700061696C6564206174206C696E65202564D5
:1046800020696E2025730A00548200206172705FD9
:104690007461626C655B695D2E7374617465203D45
:1046A0003D2050454E44494E47206F72205354419F
:1046B000424C4500E00000206E6F207061636B6526
:1046C000742071756575657320616C6C6F776564B6
:1046D000210000002DE9FF4F81B09846DDE90FA9C8
:1046E000DDF838B006004FF0000706D12CA340F2E9
:1046F000574239A13CA0FEF785FE4FF420721C21E1
:104700000E2002F091FD050046D068891C2806D2D3
:1047100023A340F262423EA133A0FEF773FE6C6811
:10472000119801F0B1FCE08096F82C00062806D024
:104730001BA340F2694243492BA0FEF763FED8F861
:104740000010A160B8F80400A081DAF80010C4F8E5
:104750001210BAF80400E082DBF80000C4F80E0082
:10476000D9F80000A0614FF480702080082060809C
:10477000062020710420607140F60600DDE9022366
:1047800000902946304600F0D1F9284603F046F95A
:10479000384605B0BDE8F08F4FF0FF30F9E7000074
:1047A0002E2E2F4D6964646C6577617265732F548A
:1047B000686972645F50617274792F4C7749502F29
:1047C0007372632F636F72652F697076342F65740F
:1047D000686172702E6300006E6574696620213D09
:1047E000204E554C4C000000417373657274696F24
:1047F0006E2022257322206661696C6564206174D5
:10480000206C696E6520256420696E2025730A007E
:10481000636865636B207468617420666972737481
:1048200020706275662063616E20686F6C6420730F
:104830007472756374206574686172705F68647205
:104840000000000064D20008014A00F003B8000034
:1048500088D000087FB5064D031D0124CDE9003541
:10486000CDE9021422331946FFF734FF04B070BDBE
:104870008ED0000870B5164D002400BF04EB440034
:1048800005EBC002117DF1B1508A401C80B250820C
:10489000B0F5967F0AD2012906D003290AD004294F
:1048A0000AD001290BD00EE0052808D32046FFF7D7
:1048B00029FC08E0042000E00220107503E0111D2F
:1048C0009068FFF7C1FF641C0A2CD7DB70BD0000A5
:1048D00054820020F8B5044690F82C001F46164676
:1048E0000D46062806D020A340F2A9122CA135A01F
:1048F000FEF788FD9DB1286888B1214600F068FB6D
:1049000068B92878C0F303100E2808D0224639462B
:104910002846FFF7C7FA002804DA40B2F8BD6FF066
:104920000F00F8BD00EB40013048022300EBC1024C
:10493000137594603368D360B38813820023538265
:1049400050F8315075B140F831304FF400600090AC
:10495000334604F126022946204600F0E7F82846AF
:1049600003F05CF80020F8BD2E2E2F4D6964646CB6
:104970006577617265732F54686972645F50617204
:1049800074792F4C7749502F7372632F636F726560
:104990002F697076342F6574686172702E63000021
:1049A0006E657469662D3E6877616464725F6C65DC
:1049B0006E203D3D204554485F4857414444525F76
:1049C0004C454E00417373657274696F6E202225E9
:1049D0007322206661696C6564206174206C696E65
:1049E0006520256420696E2025730A00548200200A
:1049F0002DE9F041044640890E270D460E283CD98A
:104A0000E07B18B995F83000401CE07360680178CD
:104A10008689CA0714D0012905D006221C49FBF754
:104A200057FC48B10CE0417851B980785E2807D135
:104A3000607B40F0100002E0607B40F00800607393
:104A4000082E03D0B6F5C16F17D10DE095F82D00F3
:104A5000000712D53946204603F092F968B9294675
:104A6000204600F0FDFB10E095F82D00000704D56E
:104A70003946204603F084F918B1204602F0CEFFF3
:104A800003E029462046FFF74FFB0020BDE8F081F8
:104A900088D0000870B59AB0064664216846FBF7D6
:104AA0000CFC00252C461F48FDF7BAFF96F82D1088
:104AB00049070DD5012809DC1A48E838FCF7FFFF43
:104AC000304602F0EFF9304602F044FA1AB070BDF9
:104AD0000128FBDD4FF40061CA00022806D003283C
:104AE00005D0042805D00528F0D103E00C46154672
:104AF00000E00C460B486946E838FCF724FD0948FD
:104B0000CDE905546946E838FCF755FF0548E83813
:104B1000FCF798FF304602F0D3FA304602F070FA04
:104B2000D4E70000C44C0020704700002DE9F0419C
:104B300004461F4690460E46069801F0A5FA054623
:104B40000E21304602F00CFB18B16FF00100BDE8F9
:104B5000F0817068858139680160B9888180D8F8F2
:104B60000020C0F80620B8F80410418194F82C0009
:104B7000062806D006A34FF4997213A11FA0FEF7D2
:104B800041FC31462046A269BDE8F04110470000D3
:104B90002E2E2F4D6964646C6577617265732F5496
:104BA000686972645F50617274792F4C7749502F35
:104BB0007372632F6E657469662F65746865726EB3
:104BC00065742E63000000006E657469662D3E6892
:104BD00077616464725F6C656E206D7573742062BA
:104BE00065203620666F722065746865726E657424
:104BF0005F6F7574707574210000000041737365F8
:104C00007274696F6E2022257322206661696C655B
:104C100064206174206C696E6520256420696E20B3
:104C200025730A0010B5040006D10BA34FF4B5722A
:104C300010A114A0FEF7E6FB732084F82E00742068
:104C400084F82F00194860611948A061204601F0DE
:104C50004FF9002010BD00002E2E2F4C5749502F29
:104C60005461726765742F65746865726E657469E6
:104C7000662E63006E6574696620213D204E554C9A
:104C80004C000000417373657274696F6E202225B9
:104C90007322206661696C6564206174206C696EA2
:104CA0006520256420696E2025730A002D420008C6
:104CB000D95F0008034909680A685206FCD5C2B2E8
:104CC0004A607047288B00200A46032100F0F4B8A0
:104CD0002DE9FE4F8A4644490446D1F8088098F8E9
:104CE00000000007850E142D79D36089042876D33F
:104CF00060680078002872D0082870D1486901F1F6
:104D00001407C0F303120E2A69D08946096800F01F
:104D10005FF9002863D12089082860D305F10E01CE
:104D20000E46204602F01CFA002830D02089411996
:104D300089B2884253D84FF420720E2002F074FAE0
:104D400006004CD0718905F10800814216D32A462D
:104D500041467068FBF78AFA2946304603F010F89E
:104D6000002806D021A3B6222EA13CA0FEF74AFBC4
:104D700004E02146304602F0D5FC18B1304602F07E
:104D80004DFE2CE0204602F049FE34460CE0314650
:104D9000204602F0F5FF002806D014A3C72239A14F
:104DA0002EA0FEF72FFB1AE029462046666802F087
:104DB000D7F9A0B960683968FF22C160D9F810102E
:104DC00001610021317071800272418101228DE800
:104DD00006040A46FF233946204600F011FB204610
:104DE000BDE8FE4F02F01ABE184D00202E2E2F4DAA
:104DF0006964646C6577617265732F546869726465
:104E00005F50617274792F4C7749502F7372632F02
:104E1000636F72652F697076342F69636D702E63CE
:104E20000000000069636D705F696E7075743A20F0
:104E30006D6F76696E6720722D3E7061796C6F615F
:104E40006420746F2069636D7020686561646572A9
:104E5000206661696C65640A000000004173736537
:104E60007274696F6E2022257322206661696C65F9
:104E700064206174206C696E6520256420696E2051
:104E800025730A0069636D705F696E7075743A20EE
:104E9000726573746F72696E67206F726967696E8D
:104EA000616C20702D3E7061796C6F616420666169
:104EB000696C65640A0000002DE9FF479146884649
:104EC00006464FF420722421222002F0ADF905009D
:104ED00031D06889242806D218A34FF4B47225A1D2
:104EE0002FA0FEF78FFA6C6877681C2284F8008088
:104EF00084F801904FF00008A4F80480A4F806801C
:104F0000686871680830FBF7B1F9F868039003A886
:104F100000F086FC60B1A4F802800122CDF8008088
:104F2000CDE90120FF2303AA0021284600F068FAFA
:104F3000284602F073FDBDE8FF8700002E2E2F4D9E
:104F40006964646C6577617265732F546869726413
:104F50005F50617274792F4C7749502F7372632FB1
:104F6000636F72652F697076342F69636D702E637D
:104F700000000000636865636B20746861742066DC
:104F80006972737420706275662063616E20686F49
:104F90006C642069636D70206D6573736167650073
:104FA000417373657274696F6E20222573222066C7
:104FB00061696C6564206174206C696E652025648C
:104FC00020696E2025730A000A460B21FFF774BF83
:104FD000421C12D088B191F82D2092070BD54B6856
:104FE000834208D0896800EA01020B409A4202D14C
:104FF0000143491C01D00020704701207047000088
:105000002DE9F74F88B00446099800251426808CB6
:10501000AF1F1438C11700EB5170C0F3CF000390DD
:1050200060680690017801F00F01052903D0384629
:105030000BB0BDE8F08F6189142907D25BA34FF450
:105040003F7269A16FA0FEF7DDF9F0E7C08801F0BB
:105050001BF8C0F30C0100F4005002910790208966
:1050600014381FFA80F88EE003984FF6FF7101EABA
:10507000C0004146404500D9084604904FF42072D4
:1050800014210E2002F0D0F85FEA000A7ED0BAF8B0
:105090000A00142806D245A34FF4497263A159A00F
:1050A000FEF7B0F91422DAF804000699FBF7DEF8EF
:1050B000DAF804000590049F35E06089811B8DB209
:1050C000B04206D239A340F22D3260A14DA0FEF7C6
:1050D00099F9AF4200D23D461DB3052001F02AFCEC
:1050E0005FEA000957D060684B463044CDE90005BF
:1050F00041222946002002F009FA5FEA000B50D055
:10510000204602F0F7FD5549C9E9041459465046B6
:1051100002F018FA781B07043F0C06D0002624681A
:10512000CBE724680026002FC7D1701986B20998F2
:10513000808C143840450298C0F30C0001DB0799BD
:1051400009B140F4005000F09FFF0599C880049811
:10515000143080B200F098FF05994880059800212E
:105160004181099851460A9A43699847504602F08E
:1051700055FC0499A8EB01001FFA80F8DDE9020153
:10518000084480B20290B8F1000F00E006E07FF41E
:105190006BAF00204CE7504602F040FC4FF0FF3070
:1051A00046E7484600F06CFBF5E700002E2E2F4D39
:1051B0006964646C6577617265732F5468697264A1
:1051C0005F50617274792F4C7749502F7372632F3F
:1051D000636F72652F697076342F6970345F667201
:1051E00061672E63000000006970345F667261675A
:1051F00028293A207062756620746F6F2073686F7B
:1052000072740000417373657274696F6E20222599
:105210007322206661696C6564206174206C696E1C
:105220006520256420696E2025730A0074686973FF
:10523000206E656564732061207062756620696EFA
:10524000206F6E652070696563652100702D3E6C6E
:10525000656E203E3D20706F66660000595E000856
:105260002DE9F047456807460E4628780421B1EB42
:10527000101F03D0384602F0D1FB77E000074FEA59
:105280009068688800F000FF04463889A04203D97E
:105290002146384602F094FC79894145EAD33889A1
:1052A000A042E7D3B8F1140FE4D32969DFF81C91C9
:1052B000C1F303100E28C9F81410EA68C9F81020C9
:1052C00005D0304600F086F850B1344619E096F823
:1052D0002D00C00702D070680028F6D1002410E02D
:1052E00099F8140000247F280BD03948046806E0A0
:1052F000B44203D0204600F06DF810B92468002CA9
:10530000F6D13146D9F81000FFF762FE0028B1D17E
:1053100099F81000C0F303100E28ABD0002CA9D0D0
:10532000E88830F0C00005D0384600F035F90700B5
:105330001CD07D68C9F80850C9E90046297838466C
:105340000907890EA9F80C10414602F019FD687A88
:10535000012818D0062811D011280AD04D46214620
:10536000D9F81400FFF734FE90B11EE00020BDE82C
:10537000F0873146384607F0DDFC19E03146384603
:1053800003F0B8FD14E031463846FFF7A1FC0FE00A
:10539000287DC0F303100E2807D04146384602F09E
:1053A000F7FB02213846FFF78FFC384602F036FB48
:1053B0000021C9F80010C9F80410C9F80810A9F8AC
:1053C0000C10C9F81010C9F81410CFE7184D0020C0
:1053D0007C00002010B590F82D10C9070CD0416852
:1053E00051B1064A52698A4204D001461046FFF77D
:1053F000EFFD08B1012010BD002010BD184D0020A8
:10540000FEB5DDE90954089E1AB109B10F6807B964
:10541000211D0096CDE9015400F002F8FEBD000008
:105420002DE9F84F0546DDE90BA8807BDDF828B0B3
:105430001F4616468946012806D02FA34FF4557201
:105440003AA13DA0FDF7DEFF6FF00104002E35D03C
:105450001421284601F084FE002832D168896C6846
:10546000142806D224A34FF462723DA132A0FDF7A6
:10547000C9FF277284F809A0306820614520207098
:1054800084F801B0288900F0FFFD414F60804FF0A3
:10549000000AA4F806A0388800F0F6FDA08038883D
:1054A000401C3880B9F1000F05D0D9F80000E06049
:1054B000A4F80AA00CE037480068F8E768891428C7
:1054C00002D22046BDE8F88F68686E4600690090F9
:1054D000B8F8240040B12989814205D932464146B5
:1054E0002846FFF78DFDEDE7D8F8143040463246E8
:1054F00029469847E6E700002E2E2F4D6964646C1C
:105500006577617265732F54686972645F50617268
:1055100074792F4C7749502F7372632F636F7265C4
:105520002F697076342F6970342E6300702D3E72AF
:105530006566203D3D203100417373657274696F6B
:105540006E2022257322206661696C656420617477
:10555000206C696E6520256420696E2025730A0021
:10556000636865636B207468617420666972737424
:1055700020706275662063616E20686F6C642073B2
:1055800074727563742069705F6864720000000053
:10559000E200002090D100082DE9F05F45688346C5
:1055A000287800F00F0005287DD1E88800F06CFD18
:1055B000C004070C688800F067FD29780907890E88
:1055C000814270D8401A1FFA80F8584602F052F80B
:1055D0006A4C0646208830440A2809D931462846B4
:1055E00000F0E4FB00285ED0208830440A28E8D888
:1055F000A14664684FF0000A0CE06069E9688842DF
:1056000007D1A0692969884203D1A089A988884265
:1056100003D02468002CF0D106E02CB1E88800F01B
:1056200033FDC0041BD025E0042001F083F9040001
:105630000AD13146284600F0B9FBB04233DB0420E2
:1056400001F078F90400CED02021FAF736FE0F20C1
:10565000E077D9F804102160C9F8044004E0E0893B
:1056600000F012FDC00405D01422294604F1080000
:10567000FAF7FCFDA87940F340156D1C08D007EB44
:10568000080080B2B84263D34FF6EB7188425FD80E
:105690002A465946204600F03BF9411C58D0B9F83B
:1056A0000020324400E064E0A9F8002035B107EBA7
:1056B0000801A183A17F41F00101A177012845D113
:1056C000A08B1422143087B2606804F10801456889
:1056D00028462E68FAF7CAFD384600F0D5FC6880E7
:1056E000A5F806A0A5F80AA0656809E014213046CF
:1056F000776802F045FB3146284601F023FF3E68FB
:10570000002EF3D1D9F804104E468C4205D1002169
:1057100005E00868A04202D001460029F9D12046E0
:1057200000F01AFA284601F0A5FF04463088A0428E
:1057300006D213A340F29B2220A127A0FDF762FE10
:105740003088001B30802846BDE8F09F0020FBE732
:10575000606870B9D9F80400844206D008A340F20A
:10576000AB2227A11CA0FDF74DFE0021204600F032
:10577000F3F9584602F052F9E8E70000E40000208F
:105780002E2E2F4D6964646C6577617265732F549A
:10579000686972645F50617274792F4C7749502F39
:1057A0007372632F636F72652F697076342F69701F
:1057B000345F667261672E630000000069705F727B
:1057C000656173735F70627566636F756E74203E9A
:1057D0003D20636C656E0000417373657274696F80
:1057E0006E2022257322206661696C6564206174D5
:1057F000206C696E6520256420696E2025730A007F
:105800006E6F74206669727374616C74686F75670B
:1058100068206A75737420656E71756575656400BE
:1058200070B50146144813E090F82D20D3070FD02F
:1058300053070DD543685BB184680D68234005EAC2
:1058400004069E4216D0920702D4C268954211D037
:1058500000680028E8D10948006850B190F82D2070
:10586000D30706D0520704D5426812B109787F29C0
:1058700000D1002070BD00007C00002080000020CE
:1058800010B5040006D106A34FF4317213A116A07F
:10589000FDF7B8FD2146BDE81040052000F092BF9D
:1058A0002E2E2F4D6964646C6577617265732F5479
:1058B000686972645F50617274792F4C7749502F18
:1058C0007372632F636F72652F697076342F6970FE
:1058D000345F667261672E63000000007020213D16
:1058E000204E554C4C000000417373657274696F13
:1058F0006E2022257322206661696C6564206174C4
:10590000206C696E6520256420696E2025730A006D
:105910002DE9F05F4C68064693460F4600254FF090
:105920000108608800F0B0FB21784FF0FF3A0907CA
:10593000890E814231D8A0EB0109E08800F0A4FB78
:10594000C0047C68010C0020206001EB090083B2D8
:10595000A180E3808B4220D3726829E05068B0F8C0
:1059600004C0614515D222606DB1B5F806C061452D
:1059700013D38088834210D82F60A088844506D036
:105980004FF0000803E08088834206D877608AB130
:105990002EE002D0C288914202D25046BDE8F09F6C
:1059A00025B1EA88624501D04FF00008026805463B
:1059B000002AD3D195B1E888A188884206D92AA3C4
:1059C0004FF4DB7237A13FA0FDF71CFD2F60E88884
:1059D000A18888420CD04FF0000809E0706830B10F
:1059E00021A34FF4DF7241A136A0FDF70BFD7760D4
:1059F000BBF1000F02D1B07FC007CFD0B8F1000FCC
:105A000030D07268002A2DD050688088002829D1B3
:105A10002168204629B14C68C088A1888842F7D007
:105A200020E0B8F1000F1DD032B90FA340F2DF1211
:105A30003CA124A0FDF7E6FC70684068A04206D1B6
:105A400009A34FF4F07237A11EA0FDF7DBFC20681C
:105A500030B105A34FF4F17236A11AA0FDF7D2FCC4
:105A600001209BE7002099E72E2E2F4D6964646C7E
:105A70006577617265732F54686972645F506172F3
:105A800074792F4C7749502F7372632F636F72654F
:105A90002F697076342F6970345F667261672E6388
:105AA00000000000636865636B20667261676D6566
:105AB0006E747320646F6E2774206F7665726C61EC
:105AC00070000000417373657274696F6E20222547
:105AD0007322206661696C6564206174206C696E54
