:020000040800F2
:10000000E0120020A1010008E31F0008D91E00082B
:10001000E11F0008670700088927000800000000AA
:10002000000000000000000000000000E71F0008C2
:10003000F10B000800000000E51F0008E91F0008A0
:10004000BB010008BB010008BB010008BB010008A0
:10005000BB010008BB010008BB010008BB01000890
:10006000BB010008BB010008BB010008BB01000880
:1000700069070008BB0100089D070008BB010008D4
:10008000BB010008BB010008BB010008BB01000860
:10009000BB010008BB010008BB010008BB01000850
:1000A000BB010008BB010008BB010008BB01000840
:1000B000BB010008BB010008BB010008BB01000830
:1000C000BB010008BB010008BB010008BB01000820
:1000D000BB010008E5260008BB01000869270008ED
:1000E000BB010008BB010008BB010008BB01000800
:1000F000BB010008BB010008BB010008BB010008F0
:10010000BB010008BB010008BB010008BB010008DF
:10011000BB010008BB010008BB010008A9200008C2
:10012000BB010008BB010008BB010008BB010008BF
:10013000BB010008F50B0008010C0008BB0100081A
:10014000BB010008BB010008BB010008BB0100089F
:10015000A9070008BB010008C5070008BB0100088B
:10016000BB010008BB010008BB010008BB0100087F
:10017000BB010008BB010008BB0100080000000033
:10018000BB010008BB010008DFF810D000F06AFADC
:1001900000480047D5300008AFF30080E01200208F
:1001A0000648804706480047FEE7FEE7FEE7FEE711
:1001B000FEE7FEE7FEE7FEE7FEE7FEE78D2000082C
:1001C000890100082DE9F05F0546002092469B4614
:1001D00088460646814640241BE02846414647465D
:1001E000224600F020F853465A46C01A914110D3D7
:1001F00011461846224600F06EF82D1A67EB0108EA
:100200004F4622460120002100F065F817EB000957
:100210004E41201EA4F10104DFDC484631462A4647
:100220004346BDE8F09F202A04DB203A21FA02F081
:100230000021704721FA02F3D040C2F12002914020
:1002400008431946704710B5431A934209D28318E0
:10025000881803E010F8011D03F8011D521EF9D2A1
:1002600010BD40EA01039B0703D009E008C9121F33
:1002700008C0042AFAD203E011F8013B00F8013B60
:10028000521EF9D210BDD2B201E000F8012B491E76
:10029000FBD270470022F6E710B513460A46044623
:1002A0001946FFF7F0FF204610BD30B50B4601465A
:1002B00000202022012409E021FA02F59D4205D305
:1002C00003FA02F5491B04FA02F52844151EA2F1AF
:1002D0000102F1DC30BD202A04DB203A00FA02F1F1
:1002E000002070479140C2F1200320FA03F3194324
:1002F000904070472DE9FE4F804681EA0300C00F11
:100300000C46009021F0004123F00045B8EB0200BC
:10031000A94105D24046214690461C460B4602465E
:1003200023F00040104347D0270DC7F30A00C3F362
:100330000A510290401A019040286BDAC3F313006F
:1003400040F4801B0098924620B10023D2EB030AB0
:1003500063EB0B0B01985946C0F140025046FFF782
:10036000BAFF06460D4650465946019A00F08CF9F0
:1003700010EB08006141002487EA115284EAE77318
:100380001A4340D0009A62B3019A012A4FEA0752F9
:1003900015DC001B61EB02014FF0004202EA07523C
:1003A000CDE90042001C41F5801132462B4600F099
:1003B0008CF903B0BDE8F08F40462146F9E7001BF9
:1003C00061EB0201001C41F5801300185B4120180D
:1003D000A2F5001747EB030140EAD570B6196D414D
:1003E00011E06D084FEA360645EAC0754FEA07523C
:1003F000001B61EB0201001C41F5801149084FEA26
:1004000030000019514132462B4603B0BDE8F04F91
:1004100000F04CB90098012240000023D0EB02020A
:1004200063EBE073009821464FEAE074B8EB0000FC
:1004300061EB0401E9E783F000435BE781F00041F1
:1004400058E72DE9FE4F81EA030404F0004421F04F
:10045000004100944FF0000B23F0004350EA0104E8
:100460005ED052EA03045BD0C3F30A54C1F30A55C9
:100470002C44A4F2F3340194A0FB0254C1F3130101
:1004800041F48011C3F3130343F4801301FB0244CE
:1004900000FB034E840A970A44EA815447EA8357D3
:1004A000A4FB076802958D0A05FB07854FEA932C8C
:1004B00004FB0C542705029D4FEA065847EA1637FD
:1004C000B5EB08056EEB070C870E920E47EA811715
:1004D00042EA8312A7FB0201B6EB0B0164EB0004B6
:1004E0002B0D43EA0C335E1844EB1C50DA465146A0
:1004F000E7FB0201C5F313044FEA0B3343EA14533D
:100500004FEA0432019C43EA0603A4F10C0402946E
:10051000009CCDE900B400F0D8F803B0BDE8F08F3E
:1005200000200146F9E72DE9F04D81EA030404F0CB
:10053000004B21F0004514464FF0000A23F0004123
:1005400050EA050220D054EA01021DD0C5F30A5733
:100550000246C5F31303C1F31300C1F30A5640F476
:10056000801543F48013A7EB0608101BD64608F24B
:10057000FD3873EB050002D308F1010801E0921881
:100580005B41B8F1000F03DA00200146BDE8F08DB1
:1005900000204FF48011064684460EE0171B73EBD3
:1005A000050705D3121B63EB050306434CEA010C58
:1005B00049084FEA300092185B4150EA0107EDD13B
:1005C00052EA030012D082EA040083EA05010843DC
:1005D00005D0101BAB4106D20122002306E0002209
:1005E0004FF0004302E06FF0010253101AEB0600D7
:1005F0004CEB085110EB0A0041EB0B01BDE8F04D4C
:1006000000F054B8C1F30A52C1F3130140F2FF33B2
:1006100041F480119A4202DA00200146704740F20C
:1006200033439A42A2F2334202DC5242FFF7FBBD4F
:10063000FFF751BE30B5041E71F1000404DB4FF02A
:100640000044404264EB0101141E73F1000405DB19
:100650001C464FF00043524263EB0403994208BF2B
:10066000904230BD064C074D06E0E06840F00103C3
:1006700094E8070098471034AC42F6D3FFF788FDA2
:10068000AC320008CC320008202A06DBCB17203A17
:1006900041FA02F043EAE07306E041FA02F3D04087
:1006A000C2F12002914008431946704710B5141E4C
:1006B00073F1000408DA401C41F1000192185B411B
:1006C0001A4301D120F0010010BD2DE9F04D9246F2
:1006D0009B4611B1B1FA81F202E0B0FA80F2203209
:1006E0009046FFF7F8FD04460F4640EA0A0041EA4B
:1006F0000B0153465A46084313D0114653EA0100F2
:1007000019D0C8F140025046FFF78DFD05460E4650
:10071000504659464246FFF7DEFD084305D001200A
:1007200004E020463946BDE8F08D0020054346EA46
:10073000E0762C4337430A986305E40AA0EB0800EF
:100740000022FD0A44EA47540A3002D5002001463F
:10075000E9E7010510196941DDE90845001969411A
:10076000BDE8F04DA2E7FEE7064810B5C06B006893
:10077000416805A000F0C8F80248BDE81040A83064
:1007800000F0A2BA640B00205553415254335F4E1F
:10079000445452203D2025640D0A0000014800F019
:1007A00093BA0000AC0B00200548C06B006840689D
:1007B00003490C39087201F1B40000F085BA000059
:1007C0005C0A0020014800F07FBA0000A40A002063
:1007D00001681823CAB2103AB2FBF3F2054B6FF36B
:1007E0000901032A9B5CC36500D9091D8165084680
:1007F000704700008C32000810B5014600208B695C
:100800008A6A4FF0C07453B1B3F5005F15D072B16E
:10081000012A0CD0022A0AD0032A09D104E01AB115
:10082000012A06D0022A03D1C96AC90100D50120D4
:1008300010BDC96AA142FAD010BD002AF7D0012A22
:10084000F2D0022AF3D0032AF3D010BD30B50468E9
:10085000256825F480252560046863608368402B43
:10086000036803D099600068C26030BD9A60006878
:10087000C16030BD0FB42DE9F047DFF88080DFF8AC
:1008800080A008F57E764FF0000909ADA6F2E47469
:100890004FF4FA77D4F8E803B84210DAA0F2E9315D
:1008A0002B4649422044089A01F080FFCAF8040010
:1008B000D4F8E8130A18C4F8E823BA4206DB306813
:1008C00000684006E6D5D4F8E82303E03068006805
:1008D00040060FD50B490948FFF7B5FCD4F8E803EB
:1008E000C8F8E803054982B201F57E70C4F8E893C0
:1008F00001F0B4FABDE8F0075DF814FB64060020CF
:1009000018000020780200200FB42DE9F05FDFF816
:10091000DC90DFF8DCA0A9F57B740BAE4FF4FA771E
:100920004FF000084FF0FE0B04F2E475D4F8E80332
:10093000B84210DAA0F2E9313346494220440A9A1B
:1009400001F034FFCAF80800D4F8E8130A18C4F814
:10095000E823BA4222DB286800684006E6D525492C
:100960002248D4F8E823FFF76EFCD4F8E803C9F86E
:10097000E8031E4982B201F57E70C4F8E88301F0F5
:100980006DFABDE8F01F5DF814FB00BFCBF8006006
:10099000194B87F80080C3F800A006E05E46DFF838
:1009A0005CB0174F28684AF6AA2A01684906EDD5B7
:1009B00010490E48FFF747FCD4F8E803C9F8E803EC
:1009C0000A4982B201F57E70C4F8E88301F046FA64
:1009D0005A463B46514608482C6803E0166083F8A7
:1009E0000080016025686D06F8D5CAE7640600201E
:1009F000180000207802002000300040002C004049
:100A0000140000202DE9F047164CDFF854C00025F3
:100A1000FE26114FDFF844804AF6AA29E2462268F2
:100A200004E03E6088F80050CCF8009013685B0644
:100A3000F7D50A4601460B4801F010FA41464A46EE
:100A40005046236802E03E600D7002601C68640638
:100A5000F9D5BDE8F0870000002C0040140000200C
:100A6000003000405C0A002010B5114CD4F8E82397
:100A7000002A1CD004F2E47000680068400616D515
:100A8000214601F57B70FFF7DEFB04F57B71D4F89E
:100A9000E803C1F8E8030021C4F8E81304F57B710A
:100AA00082B2BDE8104001F57E7001F0D7B910BDEB
:100AB000780200202DE9F84F2F480078002859D1FE
:100AC00001F004FB2D480025016841F4800101601C
:100AD00000682C4C00F48000009029484FF000671B
:100AE000C4E900074FF00309C4E90A95A561E5616F
:100AF0004FF4806A2563C4E904A54020C4E90205D7
:100B00004FF004084FF4003BC4E908B8204600F059
:100B1000ABF9A4F148060022B4630A214620A6637B
:100B200000F052FC462000F041FC1548603430389B
:100B30002060C4E90175C4E90A95A561E5612563F2
:100B4000C4E904A5E560C4E908B8204600F08CF9C2
:100B5000F46301220A214420A66300F035FC4420FE
:100B600000F024FC6421A4F1B00000F00DF802486C
:100B700001210170BDE8F88F1800002030380240D4
:100B8000B8640240A40A002070B50026044606603E
:100B90000D46084602F044FB206030B12946FFF7BD
:100BA00079FB26716571002070BD02A0FFF762FE1F
:100BB000012070BD4572726F7221212109204461AC
:100BC00074615F427566665F51756575655F496EF4
:100BD0006974204572726F723A6D616C6C6F63203C
:100BE00072657475726E204E554C4C0D0A000000F3
:100BF00070470000014800F007BA000070010020B3
:100C0000014800F001BA00007001002072B6FEE752
:100C10002DE9F0410446876D00F068FB064694F824
:100C200035000025022806D08020606584F8345005
:100C30000120BDE8F0812068016821F01601016003
:100C40002068416921F080014161206C08B9A06CE5
:100C500020B12068016821F0080101602068016866
:100C600021F0010101600CE000F040FB801B052831
:100C700007D920206065032084F8350084F83450BB
:100C8000D7E720680068C007EED194F85C103F20D9
:100C90008840B860012084F8350084F83450002082
:100CA000C7E790F83510022903D080214165012063
:100CB0007047052180F835100068016821F00101B6
:100CC00001600020704700002DE9F84304464FF012
:100CD0000009CDF8009063484FF41651A56D0068E7
:100CE000B0FBF1F72E6894F85C10082000FA01F1CF
:100CF00031420FD021680A6852070BD50A6822F0EA
:100D000004020A6094F85C108840A860606D40F0AE
:100D10000100606594F85C104FF0010808FA01F0DA
:100D2000304208D021684969090604D5A860606D81
:100D300040F00200606594F85C1004208840304266
:100D400008D021680968890704D5A860606D40F063
:100D50000400606594F85C1010208840304218D080
:100D600021680968090714D5A8602068016849034B
:100D700004D50068000308D5A16C07E00168C90527
:100D800003D4016821F008010160216C09B12046FB
:100D9000884794F85C1020208840304231D0216888
:100DA0000968C9062DD5A86094F835000528206883
:100DB000016806D0490347D5006800031DD4616C63
:100DC0001CE021F0160101602068416921F08001DA
:100DD0004161206C08B9A06C20B12068016821F045
:100DE0000801016094F85C103F208840A86084F8F6
:100DF000358084F83490216D1FE0E16B09B1204605
:100E00008847606D00282BD0606DC00714D0052086
:100E100084F835002068016821F001010160009824
:100E2000401C0090B84203D820680068C007F6D183
:100E300084F8358084F83490E16C002910D001B03A
:100E40002046BDE8F04308470168C905D5D40168CC
:100E500021F01001016084F8358084F83490CCE7EB
:100E6000BDE8F8830C0000202DE9F041044600F0B5
:100E70003DFA06465CB1022084F83500002584F86E
:100E800034502068016821F0010101600DE001206B
:100E9000BDE8F08100F02AFA801B052805D9202042
:100EA0006065032084F83500F2E720680068C00719
:100EB000F0D12268116820480140D4E901031843A9
:100EC000D4E903363343184363691843A3691843CD
:100ED000E3691843236A18430843616A042903D16C
:100EE000D4E90B1319430843106020684069666A0F
:100EF00020F0070130460E43012704280CD1A06AD8
:100F00000643E06A40B12046FFF776FC20B140205E
:100F1000606584F83570BAE7206846612046FFF7BF
:100F200057FC94F85C203F2191408160656584F80E
:100F300035700020ACE700003F8010F02DE9F04153
:100F40000446866D90F83400002501280DD001205C
:100F500084F8340094F835700020012F07D084F80D
:100F6000340002252846BDE8F0810220FBE7022775
:100F700084F8357060652046FFF768FC94F85C10D3
:100F80003F208840B0602068016841F01601016090
:100F9000206C20B12068016841F0080101602068E0
:100FA000016841F001010160DCE700002DE9F05F1C
:100FB000044600F09BF90546601C02D00D480078FD
:100FC00004440026DFF83080DFF83090DFF830B0DE
:100FD000FE274AF6AA2A00BF00F088F9401BA0426B
:100FE00006D2C8F8007089F80060CBF800A0F3E7DB
:100FF000BDE8F09F00000020002C004014000020FD
:10100000003000407047000010B50446006800F54D
:1010100080504169490607D5C169490604D52B4965
:101020004161204600F059F8206800F58050416980
:10103000C90708D0C169C90705D04FF00111416146
:10104000204600F04BF8206800F580504169090403
:1010500022D5C16909041FD5D4F8881041F00801D0
:10106000C4F88810416989040CD54169184A1140B7
:10107000C4F88C10C16921F4C031C161E020C4F80A
:10108000840006E0426948F280610A40C4F88C207E
:1010900041612046FFF7B6FF2068816B09070AD53A
:1010A000C06A00F06000C4F89400204600F014F814
:1010B0000020C4F8940007480168090305D54FF4DF
:1010C00000210160204600F00AF810BD4000010038
:1010D00000207E00143C0140704770477047704705
:1010E0002DE9F84FDFF8BCA10022012503264FF0BF
:1010F0000F090AF1040BAAF1040E00BF0B6805FAF0
:1011000002F42340A34270D10F7907F00307012FA7
:1011100001D0022F16D187684FEA420806FA08FC70
:1011200027EA0C07D1F80CC00CFA08FC4CEA070CB3
:10113000C0F808C04768A7430C79C4F30014944072
:101140003C4344600C79E443A4070AD0C4684FEAE6
:10115000420C06FA0CF7BC438F6807FA0CF72743DA
:10116000C7600C7904F00304022C12D1D40800EB00
:10117000840CDCF820405707FF0E09FA07F824EA30
:101180000804D1F8108008FA07F848EA0408CCF8F7
:10119000208004684FEA420C06FA0CF7BC430F7932
:1011A00007F0030707FA0CF7274307604C6814F4AD
:1011B000403F70D03C4C276847F480472760246844
:1011C00022F0030704F480440094384C07EB040C2D
:1011D000DCF8084897074FEA177809FA08F7BC4384
:1011E000334FB84202D1002724E054E0314FB842D7
:1011F00001D101271EE0304FB84201D1022719E08A
:101200002E4FB84201D1032714E02D4FB84201D12F
:1012100004270FE02B4FB84201D105270AE02A4FDF
:10122000B84201D1062705E0284FB84201D107276F
:1012300000E0082707FA08F72743CCF80878DAF81F
:1012400000405746D1F804C09C435FEACC2C00D53F
:101250001C433C60DBF800405F46D1F804C09C436F
:101260005FEA8C2C00D51C433C60DEF800407746DA
:10127000D1F804C09C435FEA8C3C00D51C433C6021
:10128000084F083F3C68D1F804C09C435FEACC3C5F
:1012900000D51C433C60521C102AFFF42FAFBDE860
:1012A000F88F0000083C0140443802400030014003
:1012B000000002400004024000080240000C02400E
:1012C000001002400014024000180240001C0240BE
:1012D000426921EA02030A4043EA02418161704700
:1012E0000AB1816170470904FBE70000014880688A
:1012F0007047000000000020024881680278114415
:1013000081607047000000200B4810B5016841F46F
:1013100000710160016841F480610160016841F47D
:1013200080710160072000F06FF80F2000F006F8D0
:1013300000F024F8002010BD003C024070B50D4DB7
:1013400004464FF47A712878B1FBF0F00A49096835
:10135000B1FBF0F000F00AFB48B9102C07D20022D4
:101360002146501E00F030F800206C6070BD012056
:1013700070BD0000000000200C0000200A4808B5E5
:10138000016841F480410160006800F480400090F1
:101390000548001F016841F080510160006800F0BD
:1013A0008050009008BD000044380240002809DB4E
:1013B00000F01F02012191404009800000F1E0206F
:1013C000C0F8001170470000F0B40E4B1B680C46CB
:1013D000C3F30223C3F10705042D00D90425191D09
:1013E000072901D2002300E0DB1E012606FA05F1E1
:1013F000491E214099409E40761E16403143F0BC64
:1014000001F0EEB90CED00E0064900F007020868B3
:101410004FF6FF03184040EA0220034A10430860D9
:10142000704700000CED00E00000FA052DE9F047E0
:101430000E46050065D0DFF81481D8F80000F7B239
:1014400000F00700B04207D288F80070D8F800001A
:1014500000F00700B04254D128683D4C810712D5F6
:10146000400703D5206840F4E0502060287800074A
:1014700003D5206840F4604020602068A96820F00F
:10148000F000084320602878C0072DD030496868F4
:101490000839012812D0022813D0032811D0096876
:1014A000890700292DDA216821F003010143216019
:1014B000FFF71CFF814641F2883A0EE00968890374
:1014C000EFE709688901ECE7FFF710FFA0EB0901DE
:1014D000514502D90320BDE8F0872068696800F013
:1014E0000C00B0EB810FEFD1D8F80010404601F0AE
:1014F0000701B14207D90770006800F00700B04249
:1015000001D00120E7E72878400705D52068E96881
:1015100020F4E050084320602878000706D52068B2
:10152000296920F4604040EAC100206000F038F8EA
:101530002168084AC1F30311515CC840064908609C
:1015400006480068FFF7FAFE0020C4E7003C0240AE
:1015500008380240943200080C00002004000020EB
:101560000448054900680968044AC1F38221515CB6
:10157000C84070470C00002008380240A432000820
:101580000448054900680968044AC1F34231515CC6
:10159000C84070470C00002008380240A432000800
:1015A000154810B5006810F00C02144813D0411013
:1015B000042A0FD0082A0ED10F4C241F226823685A
:1015C00002F03F025B0207D52068C0F38810A0FB41
:1015D000010106E0084610BD2168C1F38811A1FB96
:1015E00000010023FEF7EEFD2168C1F30141491C13
:1015F0004900B0FBF1F010BD083802400024F400AF
:101600002DE9F84F04006ED02078DFF84C93C00726
:10161000A9F104054AD009F104000168C1F3810170
:10162000012908D00068C0F3810002280AD1D9F846
:101630000000400206D52868800337D5606800287E
:10164000E1D033E06068B0F5803F10D0B0F5A02F56
:10165000286810D020F480302860286820F480208A
:1016600028606068A8B1FFF741FE06460DE02868D3
:1016700040F48030F4E740F480202860F7E700BFB2
:10168000FFF734FE801B642873D828688003F7D5E1
:101690000CE0FFF72BFE064605E000BFFFF726FE35
:1016A000801B6428F0D828688003F7D42078DFF8FE
:1016B000AC8280074FF0000A3ED5A748001D0168A4
:1016C00011F00C0F08D00068C0F3810002280BD184
:1016D000D9F80000400207D42868800716D5E068D2
:1016E000012800D112E033E1E068B8B10120C8F868
:1016F0000000FFF7FBFD064605E000BFFFF7F6FD23
:10170000801B0228C0D828688007F7D5286821697F
:1017100020F0F80040EAC10028600DE0C8F800A001
:10172000FFF7E4FD064604E0FFF7E0FD801B02281A
:101730001FD828688007F7D42078000722D5864F65
:1017400087486169703771B101210160FFF7CEFDF3
:10175000064604E0FFF7CAFD801B022809D8386856
:101760008007F7D50EE0C0F800A0FFF7BFFD0646E2
:1017700005E082E0FFF7BAFD801B02287DD83868BB
:101780008007F7D42078400768D5DFF8CCB1002770
:101790000BF13C0BDBF80000C0000BD4DBF80010B1
:1017A00041F08051CBF80010DBF80000012700F079
:1017B000805000906B4E3068C00510D4306840F403
:1017C00080703060FFF792FD009005E0FFF78EFD1E
:1017D0000099401A022850D83068C005F6D55E4EF0
:1017E000A0686C3601280FD00528306810D020F092
:1017F00001003060306820F004003060A068B8B1AB
:10180000FFF774FD00900FE0306840F00100F4E74E
:1018100040F004003060F7E7FFF768FD0099411AD7
:1018200041F28830814266D830688007F4D50EE0F6
:10183000FFF75CFD009007E0FFF758FD0099411AA3
:1018400041F28830814256D830688007F4D42FB1F5
:10185000DBF8001021F08051CBF80010A069C8B36C
:101860003D49091D0968C1F3810102294AD00228B6
:10187000504607D0C8F8600000E03CE0FFF736FDB6
:1018800004463BE04746C8F86000FFF72FFD0646D8
:1018900005E000BFFFF72AFD801B02282BD828682F
:1018A0008001F7D4D4E907010843A16A2E4A490808
:1018B00002EB0141626A41EA8211084394F82C105C
:1018C00040EA0161C9F8001001203866FFF70EFDFB
:1018D000044606E03EE000BFFFF708FD001B0228BB
:1018E00009D828688001F7D534E000BFFFF7FEFC77
:1018F000001B022802D90320BDE8F88F2868800168
:10190000F4D427E00128F7D0D9F80000E26900F408
:10191000800191421CD1226A00F03F01914217D10F
:1019200047F6C071626A0140B1EB821F10D1A26A12
:101930004FF0FF3300F4403103EB5202B1EB024FA2
:1019400006D194F82C1000F07060B0EB016F01D05C
:101950000120D1E70020CFE70438024000004742D1
:10196000800E4742007000400000FFFF10B5401E8F
:10197000B0F1807F01D3012010BD4FF0E024606101
:101980000F21601700F02CFF0020A06107202061CC
:10199000002010BD704710B504460068406994F8F7
:1019A0004110C0F3C010212911D180B1206814303A
:1019B00050E8001F21F0800140E80012002AF5D114
:1019C000A06B08B1FFF724F9204600F013FD206852
:1019D000406994F84210C0F38010222911D180B1DF
:1019E0002068143050E8001F21F0400140E8001248
:1019F000002AF5D1E06B08B1FFF70AF9204600F0A4
:101A0000D2FC002010BD7047F8B501680446086894
:101A1000CA684B6910F00F0F4FF0000559D003F062
:101A2000010602F49077374365D0C10705D0D10590
:101A300003D5616C41F001016164410705D5D90707
:101A400003D0616C41F002016164810705D5D907BB
:101A500003D0616C41F004016164010707D502F015
:101A60002001314303D0616C41F008016164616C75
:101A700000293AD0800604D5900602D5204600F011
:101A8000C7FC20684069616CC0F38010090700D46E
:101A900060B3204600F087FC20684069400621D5ED
:101AA0002068143050E8001F21F0400140E8001287
:101AB000002AF5D1E06BA8B16E490165E06BFFF734
:101AC000F0F8002811D0E06B016D01B0BDE8F040E6
:101AD000084783060FD593060DD52046BDE8F8408C
:101AE00000F096BC2046FFF78EFFF8BD2046FFF7BA
:101AF0008AFF6564F8BD266B2023012E7DD1C606C2
:101B00007BD5D60679D508684868009048694FF0BB
:101B10000206400641D5E16B086840680004000CED
:101B2000E8D0A28D8242E5D9E085C869B0F5807F12
:101B30002DD020680C3050E8001F21F4807140E85F
:101B40000012002AF5D12068143050E8001F21F05F
:101B5000010140E80012002AF5D12068143050E855
:101B6000001F21F0400140E80012002AF5D184F85E
:101B70004230256320680C3050E8001F21F010012E
:101B800040E80012002AF5D1E06BFFF741F86663E8
:101B9000A08DE18D401A81B22AE0A08DE18D401A1E
:101BA00081B2E08D0028A5D00029A3D022680C3294
:101BB00052E8000F20F4907042E80007002FF5D1A2
:101BC0002068143050E8002F22F0010240E800277E
:101BD000002FF5D184F84230256320680C3050E89E
:101BE000002F22F0100240E80023002BF5D166639D
:101BF0002046FFF7CFFEF8BDFFE705062BD51506FB
:101C000029D594F841002128F5D1A068B0F5805F6E
:101C100001D12069B0B1206A411C2162216800789D
:101C20004860E08C401E0004000CE084E3D1206892
:101C3000C16821F08001C1602068C16841F04001A5
:101C4000C160D8E7206A0088C0F308004860206AB5
:101C5000801C2062E5E74006CDD55006CBD5CA688A
:101C6000204622F04002CA6084F8413000F032F988
:101C7000C1E700005D22000870B5040004D094F8AC
:101C80004100002510B106E0012070BD84F84050ED
:101C9000204600F023F8242084F841002068C16821
:101CA00021F40051C160204600F014FC2068016955
:101CB00021F4904101612068416921F02A014161CC
:101CC0002068C16841F40051C1606564202084F837
:101CD000410084F842006563002070BD70B586B095
:101CE000044614216846FEF7D5FA234E22680021E7
:101CF0002248022303240725B2421AD11F4A143274
:101D0000166846F010061660126802F0100205927E
:101D1000026842F001020260006802AA00F00100BD
:101D2000059082E832006002CDE90003694614485C
:101D30001DE0144EB2421CD1104A1032166846F40F
:101D400080261660126802F480220592026842F032
:101D500002020260006802AA00F00200059082E818
:101D600032004FF44060CDE9000369460648FFF7B2
:101D7000B7F906B070BD00000010014030380240D5
:101D80000000024000480040000402402DE9F84FE6
:101D9000044690F842009A4616460D46202802D086
:101DA0000220BDE8F88FB5B1AEB1002060642221F9
:101DB00084F842102063FFF799FAA6858146E685EC
:101DC000A0684FF480582027404501D1206920B1F8
:101DD0002E46002529E00120E3E7002625E04B46BA
:101DE000002220212046CDF800A000F041FC18B1CF
:101DF00084F842700320D4E726B1A06840451AD089
:101E000038B108E020684068C0F3080025F8020BEC
:101E100008E0206978B12068406800F07F0000BFCA
:101E200006F8010BE08D401EE085E08D0028D6D13C
:101E300084F84270B5E720684068F1E790F84230D6
:101E4000202B01D00220704721B11AB10023036377
:101E500000F0C6BB012070477047704770B504465C
:101E600090F84100202801D0022070BD49B342B350
:101E70002162A284E28400206064212384F841303E
:101E8000A56B114BEB63A56B104B2B64A56B104B33
:101E9000EB64A36B1865256813462A1DA06BFFF73A
:101EA0004DF821686FF0400008602068143050E859
:101EB000001F41F0800140E80012002AF5D1002007
:101EC00070BD012070BD00005B2300089D23000849
:101ED0006D22000870477047FEE710B500F026F845
:101EE000002000F05FF8012000F05CF84FF47A74F5
:101EF0002046FFF75BF8002000F044F8012000F0D6
:101F000041F82046FFF752F8002000F05BF801206E
:101F100000F058F82046FFF749F8002000F032F8AA
:101F2000BDE81040012000F02DB80000134800B5B6
:101F3000026887B0002142F020020260026802F0CD
:101F400020020592026842F020020260006800F060
:101F500020000590012001904FF4C0600090032004
:101F6000CDE9021069460648FFF7BAF8002000F0F4
:101F700009F8012000F006F807B000BD3038024033
:101F800000140240064B30B1012807D10122810222
:101F90001846FFF7A5B901225102F9E77047000082
:101FA00000140240064B30B1012808D10022810202
:101FB0001846FFF795B900224FF40071F8E7704713
:101FC00000140240054A28B1012806D181021046BA
:101FD000FFF77EB94FF40071F9E770470014024033
:101FE000FEE7FEE77047704710B5FFF785F9BDE8DB
:101FF0001040FEF739BD000030B593B0302168467F
:10200000FEF748F914210CA8FEF744F91D480025F5
:10201000016841F080510160006800F0805011902B
:102020001948016841F4804101600068022400F40D
:102030008040119001200090000401908001CDE9C2
:10204000064008AA0420A82182E813000B906846E5
:10205000FFF7D6FA08B172B6FEE70CA90F2081E8A7
:1020600031004FF4A0500F904FF480501090052194
:102070000CA8FFF7DBF9002801D072B6FEE713B019
:1020800030BD000040380240007000400548016843
:1020900041F47001016003494FF00060803908602D
:1020A0007047000088ED00E006480168C90707D0C6
:1020B00005490A68521C0A60016821F001010160AB
:1020C0007047000010140040100000200F4810B5A9
:1020D0000D4901604FF461214160002181600C22B3
:1020E000C160C0E904128161C161FFF7C5FD08B19B
:1020F000FEF78CFD002207212520FFF765F9BDE8DA
:1021000010402520FFF752B9001001405C0A002062
:102110002DE9F84F2D480025016841F400110160B8
:10212000006800F40010009000F056F8294C284890
:102130004FF0030820604FF000606060C4E90A853A
:10214000A561E5614FF480692563C4E904954020E9
:10215000C4E9020504274FF4003AC4E908A7204661
:10216000FEF782FEA4F148061948B463A663603402
:1021700030382060F805C4E90105C4E90A85A56185
:10218000E5612563C4E90495E560C4E908A7204634
:10219000FEF76AFEF463012209210E20A663FFF711
:1021A00013F90E20FFF702F9022209210C20FFF794
:1021B0000BF90C20FFF7FAF800213046FFF7EBFB94
:1021C0003046BDE8F84F0121FFF7E5BB303802404B
:1021D00058600240AC0B0020114808B5026800218D
:1021E00042F48022026000680E4A00F480200090D1
:1021F0000D4802604FF4E13242600C22C161C0E937
:102200000412C16081608161FFF736FD002209215F
:102210002720FFF7D9F8BDE808402720FFF7C6B808
:102220004038024000480040640B002013460A4634
:1022300010B501460348FFF7A9FD0349012081F8C5
:10224000660010BD5C0A00206C0C00200A460146A6
:102250000148FFF703BE0000640B002010B5806B3F
:102260000021C185C184FFF7CEFB10BD70B5846B22
:102270002068406994F84110C0F3C010002521295E
:1022800004D118B1E584204600F0B4F82068406914
:1022900094F84210C0F38010222904D118B1E585CA
:1022A000204600F080F8606C40F01000606420462A
:1022B000FFF7A9FB70BD10B50146806B096809687E
:1022C0004FF00002C9052ED4C28501680C3151E8D7
:1022D000003F23F4807341E80034002CF5D10168FD
:1022E000143151E8003F23F0010341E80034002C91
:1022F000F5D10168143151E8003F23F0400341E873
:102300000034002CF5D1202180F84210016B012906
:1023100009D101680C3151E8003F23F0100341E876
:102320000034002CF5D14263016B012902D0FFF784
:1023300093FD10BD818DFFF72DFB10BD10B5806B97
:1023400001214163016B012902D0FFF786FD10BD19
:10235000818D4908FFF71EFB10BD10B50146806B4B
:1023600009680968C90516D40021C18401681431BF
:1023700051E8002F22F0800241E80023002BF5D124
:1023800001680C3151E8002F42F0400241E800237F
:10239000002BF5D110BDFFF79DFD10BD10B5806B72
:1023A000FFF799FD10BD01680C3151E8002F22F4B0
:1023B000907241E80023002BF5D10168143151E8F7
:1023C000002F22F0010241E80023002BF5D1016B20
:1023D000012909D101680C3151E8002F22F01002C7
:1023E00041E80023002BF5D1202180F84210002184
:1023F0000163704701680C3151E8002F22F0C002E0
:1024000041E80023002BF5D1202180F841107047CE
:1024100008B590F84210222901D0022008BD826838
:102420004FF480539A4201D1016921B1816A9A42E5
:102430001BD04AB10AE00268816A5268C2F30802FE
:102440000A80816A891C08E0026972B102685268D8
:1024500002F07F020A70816A491C8162C18D491EA7
:102460000904090CC18503D01BE002685268F1E73A
:102470000168CA6822F02002CA600168CA6822F4B2
:102480008072CA6001684A6922F001024A61202113
:1024900080F8421000214163026B012A03D0FFF74C
:1024A000DBFC002008BD016301680C3151E8002FFE
:1024B00022F0100241E80023002BF5D101680A68E0
:1024C000D20602D50A6849680091818DFFF762FA49
:1024D000E7E7000070B5044600680169E26821F48E
:1024E0004051114301612169A068E26908436169B3
:1024F000114308432168CA6849F20C639A430243B6
:10250000CA6020684169A26921F4407111434161A8
:1025100031492068884202D03049884202D1FFF711
:102520002FF801E0FFF71CF8E26900231921642568
:102530003226B2F5004F626828D0A0FB0101930F4C
:102540009200FDF73FFE0146B0FBF5F06FF0180278
:10255000504301EB800006EB0010B0FBF5F000F0FB
:10256000F002B1FBF5F002EB0012B1FBF5F06FF0F9
:102570001803584301EB800006EB0010B0FBF5F0A8
:1025800000F00F0021681044886070BDA0FB0101BD
:1025900092185B41FDF716FE0146B0FBF5F0020113
:1025A000B1FBF5F06FF01803584301EB800006EB28
:1025B000C000B0FBF5F000F0F80002EB4002B1FB08
:1025C000F5F0584301EB800006EBC000B0FBF5F0DE
:1025D00000F00700D6E700000010014000140140A1
:1025E00038B5816204468285002013466064222249
:1025F00084F84220E56B1B4AEA63E56B1A4A2A64B9
:10260000E56B1A4AEA64E26B10650A462168E06BE2
:10261000091DFEF793FC206801684068009020695E
:1026200048B120680C3050E8001F41F4807140E848
:102630000012002AF5D12068143050E8001F41F044
:10264000010140E80012002AF5D12068143050E85A
:10265000001F41F0400140E80012002AF5D100209F
:1026600038BD0000B72200083D2300086D22000895
:102670002DE9F843984617460D460446089E24E087
:10268000701C22D0FEF732FEA0EB0800B0421AD830
:10269000CEB12068C168490717D5802D15D0402DCF
:1026A00013D00168C94309070FD4016800254068A9
:1026B00000902046FFF777FE0820606484F84050C1
:1026C0000120BDE8F8830320FBE72068006835EAB5
:1026D000000004D00020B842D2D00020F1E7012051
:1026E000F9E70000F8B51F4C20680168A4F10C055B
:1026F00089064FF001060FD54068696808702E7290
:102700006E702068C16841F01001C1606968642280
:102710002046491CFFF792FB0020FFF753FC1148AD
:10272000FFF772F920680168C9061AD5E26B297AA9
:10273000126852680027C2F16402114429720168CC
:1027400041680091C16821F01001C1603946054817
:10275000FFF721F92068C16841F02001C1602E70A7
:102760006F70F8BD5C0A0020054910B56322A1F224
:102770000910FFF763FBBDE810400248FFF744B9BA
:102780006D0C0020640B0020FEE700000FB4054B29
:1027900010B503A9044A029800F004F910BC5DF8D2
:1027A00014FB0000C1300008240000207CB50C00A0
:1027B0001D461646014601D0601E00E00020CDE90E
:1027C0000010064B6A462946304600F0EBF8002C14
:1027D00002D0009A002111707CBD0000AB300008CF
:1027E0000907090E002804DB00F1E02080F800143E
:1027F000704700F00F0000F1E02080F8141D7047D2
:1028000002E008C8121F08C1002AFAD170477047B9
:10281000002001E001C1121F002AFBD17047000017
:102820002DE9FF5F82B00021DDE90430020DDDF803
:1028300040B0034318D044F61050A2F2FF32424396
:102840001514119801281FD0A5EB0B00401C5FEA5E
:10285000000A4FF000064E4FDFF83891B046504660
:1028600015D5CAF1000413E0119801244AA30128E8
:1028700001D16FEA0B010298119AC0E90031C0E959
:10288000024206B0BDE8F09FCBF10000DFE704464E
:102890000021404A491842EB0450CDE9001012E0F3
:1028A000E00707D032463B4640464946FDF7C9FDA2
:1028B0008046894632463B4610461946FDF7C1FD23
:1028C00006460F466410002CEAD1DDE90401DDE97B
:1028D0000023BAF1000F06DAFDF7B3FD42464B467E
:1028E000FDF7AFFD05E0FDF71EFE42464B46FDF746
:1028F0001AFE04460E460022284BFDF79BFE03D825
:102900004FF0FF30014607E00022254B20463146BC
:10291000FDF7F0FCFDF776FE102409E0002C0ADB41
:102920000A220023FDF74EFC039B30321A55641E29
:1029300050EA0102F2D1641C039AC4F11103144459
:10294000119A012A03D0012208430DD10AE008435D
:1029500004D000204FF0110B119072E7A3EB0B0590
:102960006D1E0DE05B4504DD4FF0000205F1010531
:1029700004E003DA4FF00002A5F10105002AECD0D3
:1029800002981199C0E90231C0E9004579E70000D9
:10299000000014400000F03F300000000000F04351
:1029A0000000E03F2DE9FF4F95B09A468846064665
:1029B0000025EEE1252877D100242746F94A012198
:1029C000039400E0044316F8013F203B01FA03F0B2
:1029D0001042F7D130782A2811D06FF02F033078C9
:1029E000A0F13002092A16D8039A44F0020402EB3F
:1029F000820203EB42021044761C0390EFE758F882
:102A0000042B0392002A03DA504244F4005403904A
:102A100044F00204761C30782E2816D116F8010FE7
:102A200044F004042A280DD06FF02F023078A0F172
:102A30003003092B09D807EB870302EB4303C718C0
:102A4000761CF3E758F8047B761C30786C280FD09E
:102A500006DC4C2817D068280DD06A2814D104E071
:102A6000742810D07A280FD10DE044F400140AE045
:102A700044F4801401E044F440147278824202D19C
:102A800004F58014761C761C307866280BD013DC95
:102A9000582877D009DC002875D04528F6D046287C
:102AA000F4D047281AD193E118E0632835D0642880
:102AB00079D0652812D18BE1702873D008DC6728A3
:102AC000F1D069286FD06E280DD06F2806D1ACE008
:102AD00073282CD0752874D0782853D05246179973
:102AE00090476D1C54E1C4F30250022809D003281A
:102AF0000DD0D8F8001004280DD00D6008F104089E
:102B000046E1D8F80010EA17C1E90052F6E7D8F814
:102B100000100D80F2E70D70F0E718F8041B8DF837
:102B2000001000208DF80100EB46012003E058F86A
:102B300004BB4FF0FF3061074FF0000102D40DE0FD
:102B400009F101018946B9420FDA8145F8DB1BF82A
:102B500009100029F4D108E009F1010189468142F8
:102B6000FADB1BF809100029F6D103985346A0EBB5
:102B7000090721463846179A00F080FA284400EBEE
:102B8000090507E044E008E10DE01BF8010B52469F
:102B900017999047B9F10109F7D2534621463846B3
:102BA000179AF2E039E00A21C4F302524FF0000B09
:102BB0000091022A06D058F8040BC117032A09D045
:102BC0000AE023E008F1070020F00702F2E8020122
:102BD000904605E000B2C117042A01D140B2C117E6
:102BE000002906DA0A460021404261EB02012D224B
:102BF00002E0220504D52B228DF80420012203E0F7
:102C0000E20701D02022F7E7914657E00A2100E0D1
:102C100010214FF0000B00910BE010214FF0000B42
:102C200044F004040827009103E008204FF0000B53
:102C30000090C4F30252022A05D058F8040B002178
:102C4000032A08D008E008F1070020F00702F2E8A4
:102C50000201904603E080B2042A00D1C0B24FF0D6
:102C6000000922072AD53278702A07D0DDF800C083
:102C70008CF0100C5CEA0B0C05D00EE040228DF8B5
:102C80000420012208E050EA010306D030238DF829
:102C900004308DF8052002229146009B83F0080342
:102CA00053EA0B030AD150EA010201D1620705D5AC
:102CB00030228DF804204FF001097F1E3278582A07
:102CC00004D039A20C920CAA02920BE03BA2F9E7C5
:102CD0005B46009AFDF776FA0C9B9B5C029A521EAB
:102CE0000292137050EA0102F2D1029804A9081A64
:102CF00000F1200B600702D524F4803400E00127A6
:102D00005F4502DDA7EB0B0000E0002000EB0B01AC
:102D1000009003984944401A0390E00306D45346B8
:102D20002146179A039800F0A9F90544002706E008
:102D300001A85246C05D179990476D1C7F1C4F45F6
:102D4000F6DBE0030CD553462146179A039800F0B2
:102D500095F9054404E030205246179990476D1CC0
:102D60000099481E00900029F5DC08E002980299BD
:102D700052460078491C0291179990476D1CBBF18F
:102D80000001ABF1010BF1DC5BE100F065F90544FA
:102D9000761C307800287FF40DAE19B02846BDE8C7
:102DA000F08F0000092801003031323334353637D6
:102DB0003839616263646566000000003031323387
:102DC0003435363738394142434445460000000027
:102DD000600700D4062708F1070020F00700F0E89C
:102DE0000223804603F0004C5FEA0C0001D097A05C
:102DF00009E0200501D596A005E0E00701D095A0E7
:102E000001E0AFF24C001390307823F000436528C6
:102E10000CD006DC452809D046281DD047287FD194
:102E20003BE0662818D067287AD136E00021112FC0
:102E300001DB112000E0781CCDE9000104A90CA8F9
:102E4000FFF7EEFCDDE90D010C9A4FF0000B07F1E6
:102E50000109109200914EE04FF000400097CDE93B
:102E6000011004A90CA8FFF7DBFCDDE90D020C9BA7
:102E70000F994FF0000B91461093009211B9791CF5
:102E800000EB0109B7EB090003D4C0F1FF3B07F1E8
:102E90000109A9EB0700019042E0012F00DA0127A8
:102EA0000021112F01DD112000E03846CDE900019D
:102EB00004A90CA8FFF7B4FCDDE90D010C9A009100
:102EC0004FF0000BB946109221070FD4009A4A45E3
:102ED00003DA914601E0A9F10109B9F1010F05DD1D
:102EE000109AA9F10101515C3029F4D0B84202DAFC
:102EF00010F1040F03DA0121CDE9011010E00028E0
:102F000003DC8344A9EB000102E0411C494500DDDC
:102F10008946A0EB0B00401C01904FF0004002904E
:102F2000200705D40198484502DB4FF0FF3001909F
:102F300000208DF84B0002980DF14B07B0F1004FC7
:102F400025D002200C902B200D90029800280CDA3E
:102F5000404202902D200D9007E00A210298FDF7D3
:102F6000A4F93031029007F8011D0C99481E0C900D
:102F70000029F2DC02980028EFD1791E0D98087024
:102F8000307800F0200040F0450007F8020D11A84D
:102F9000C01BC01D02901398007800B1012000EB07
:102FA0000901019801EBE071029801440398401A6D
:102FB000401E0390E00306D453462146179A039817
:102FC00000F05CF805441398007818B15246179940
:102FD00090476D1CE00323D553462146179A03986A
:102FE00000F04CF805441BE0BBF1000F07DB009834
:102FF000584504DD1098179910F80B0001E0179957
:1030000030205246904701980BF1010B401E05F10C
:103010000105019004D12E205246179990476D1C4E
:10302000B9F10001A9F10109DEDC05E017F8010B97
:103030005246179990476D1C0299481E029000292C
:10304000F4DC53462146179A03989EE62D000000B3
:103050002B000000200000002DE9F041044600256F
:103060001E461746880404D405E039462020B047A0
:103070006D1C641EF9D52846BDE8F0812DE9F041AC
:10308000044600251E469046C80301D5302700E0BF
:103090002027880404D505E041463846B0476D1C1A
:1030A000641EF9D52846BDE8F0814A68002A06D09A
:1030B0000A68531C0B6010704868401E48607047D7
:1030C000034909680A685206FCD5C2B24A607047D3
:1030D0005C0A002008B5FEF717F9FEF78DFF4FF4E4
:1030E0007A70FDF763FFFEF721FFFEF7F6FEFDF7AE
:1030F000E1FC28A0FDF7BEFBFFF70AF830A0032192
:10310000006800906846FFF7A1F86FF08052322106
:103110002C48FFF78BF82CA0FFF738FBFE27DFF8D1
:10312000C080DFF8C090DFF8C0B0304D254C4AF6C3
:10313000AA2A0026C8F8007089F80060CBF800A021
:10314000287820B12E70697A6868FDF75BFC94F8E6
:10315000660001280ED126A0FFF718FB84F86660F0
:1031600014F8641F1748FDF74DFC14F8641915484E
:10317000FFF76CF8A06E0028DCD0E06E0028D9D0F4
:103180004FF4FA70FDF712FFD4E91A121DA0FFF7F1
:10319000FDFACFE7424F4F54092053544D33324686
:1031A0003430375A4754365F456D626564646564F0
:1031B0005F496E69745F537563636573730D0A00CD
:1031C000122334006C0C002055415254335F526579
:1031D000636569765F46696E6973680D0A00000071
:1031E000002C00401400002000300040500A002055
:1031F00055415254335F5265636569765F4461742B
:10320000610D0A00746573745F31203D2025642CC4
:1032100020746573745F32203D202564200D0A0000
:10322000F0B50B30154D20F007010024144A0FE0D3
:1032300003688B420BD38B4205D95E1A431847684B
:10324000C3E9006700E04368136002C004E0021DA8
:1032500010680028ECD12046002802D1286808B167
:103260000020F0BD064A07481060074A121A22F0F3
:103270000702C0E9002401202860D7E72C000020C5
:1032800028000020E40C0020E00E002000061016AC
:1032900000061016000000000000000001020304F8
:1032A000060708090000000001020304CC320008F0
:1032B000000000203000000000280008FC32000858
:1032C00030000020B01200001028000801000000AB
:1032D00010000000000000000024F40000000000C6
:1032E00000000000000000000000000000000000DE
:0C32F000000000000000000000000000D2
:040000050800018965
:00000001FF
