:020000040000FA
:10000000B80A0020BD000000DB000000DD00000099
:1000100000000000000000000000000000000000E0
:10002000000000000000000000000000DF000000F1
:100030000000000000000000E1000000E3000000FC
:1000400091000100C1F70000E5000000297C0000DC
:1000500081260000396D0000E5000000B983000032
:10006000EDF7000005EE00003DA100008909000049
:100070006101010075140000B5140000FD140000BA
:100080002D150000E5000000000000000000000049
:1000900000000000E90B0000010C00004982000094
:1000A000A9070000551101000348854600F06AFBCE
:1000B0000048004769250100B80A002000200021FF
:1000C00000220023002400250026074680468146A2
:1000D00082468346844604480047FEE7FEE7FEE783
:1000E000FEE7FEE7FEE70000A9000000D2B201E053
:1000F0000270401C491EFBD270470022F6E710B583
:1001000013460A4604461946FFF7F0FF204610BD85
:1001100010B54843044615F0C7F9002805D0002162
:10012000002C02D0641E0155FAE710BDF0B5074659
:100130000846584087B0C00F049048000E4659004A
:1001400040084908BC1A884105D2384631461E4647
:1001500017460B4602465800400810434CD0300D5D
:10016000039040055900400D490D0590401A02903A
:10017000402872DA18030121000B09050843019099
:1001800004980092002805D001995242002088412D
:1001900000920190029840210A1A0199009800F0FB
:1001A0002FFA05460C466B4607CB00F04AFAC019F9
:1001B0007141039A0E0D0023D71756401A467A4014
:1001C000164344D0049A002A2DD0029A012A039A99
:1001D00015DC1205C01A914101263605001C71413B
:1001E000D20F059ED2070093019202962A4623461B
:1001F00000F047FA07B0F0BD38463146FAE7160579
:10020000224A0F46B218C01AB74101210905001C45
:100210004F4100187F41114618187941E20F1043F1
:100220006D19644113E0E2076D0815436408C207C5
:100230001443039A01261205C01A91413605001C89
:100240007141CE07400830434908C01851412A4641
:10025000234600F009FACDE7FFE7049801224000A9
:10026000C117121A00238B4104983146C417381A5B
:10027000A141EEE730B40124E407634030BC55E708
:1002800030B40124E407614030BC4FE70000E0FFD8
:10029000F0B51FB488B00B9909980024484009991B
:1002A000C00F490049080991C0070B990090490007
:1002B00049080B9109990898A64608431CD00B9948
:1002C0000A98084318D0099801244000420D4800BC
:1002D000410D099824050003000B204309900B9859
:1002E0000003000B20430B9050181C4940180022BB
:1002F00001901446104605E0002001460DB0F0BD07
:10030000032801DA034600E003239C46C11A0AAE23
:100310000AE05F0008ADED5B4F00F75B7D4300270F
:10032000AA187C41491C5B1E6145F2DD410004AB0B
:100330005A522104120C0A43240C401C0828DFDB0B
:10034000019802900099704601910090059B049AD3
:100350000799069800F095F9D0E700000DFCFFFF23
:10036000F0B50C465C4085B0E40FE40703944C0004
:100370000026640859009446490802460296224322
:1003800021D062460A431ED06200570D4A000E0378
:100390002303550D012402462C492405781B1B0B11
:1003A000360B401823432643614600901C46501AE2
:1003B000B44103D30098401C009002E092180098CA
:1003C0005B41002803DA0020014605B0F0BD0020A3
:1003D000012109050746864611E064461D46141BA7
:1003E000B54106D36546521BB341744607430C43DF
:1003F000A646CD0740084908284392185B410546A8
:100400000D43EAD11046184313D0604619465040B8
:100410007140084306D06046101AB34106D201224B
:10042000002306E000220123DB0702E00122D24381
:100430005310009874460105381C6141029C039DCD
:100440000019694100F010F9BFE70000FD0300004A
:1004500010B5002904DB0C460121C9074042A14127
:10046000002B04DB1C460123DB075242A341101A78
:100470008B4101D3012010BD002010BD10B5002913
:1004800004DB0C460121C9074042A141002B04DBDB
:100490001C460123DB075242A341801A994101D235
:1004A000012010BD002010BD0EB5C217C10F504075
:1004B000CA0740180021054B0293019200910A4699
:1004C0000B4600F0DEF803B000BD0000330400006E
:1004D0000EB505490291002100910A460B46019193
:1004E00000F0CFF803B000BD3304000070B5CD0FAD
:1004F0004A0009030123090B1B0519430B4BED07A8
:100500000024520D9A4201DA002070BD074B3433AB
:100510009A4203DC9A1A00F083F802E00449511869
:1005200088402C43F1D0404270BD0000FF03000022
:10053000CDFBFFFF4A0009030123090B1B051943EB
:10054000094B10B5520D9A4201DA002010BD064B3E
:1005500034339A4203DC9A1A00F062F810BD034962
:100560005118884010BD0000FF030000CDFBFFFFC5
:1005700070B50446002903D000202022012310E09A
:10058000002801D00020C043C046C0460DE02546EB
:10059000D5408D4205D30D469540641B1D469540C0
:1005A00040191546521E002DF1DC214670BD000099
:1005B00070B5002504462E46002911D0002C01DA22
:1005C00001254442002901DA012649422046FFF76D
:1005D000CFFFB54200D04042002D00D0494270BD4F
:1005E000002C02DA0121C90702E0002C00DD0349DA
:1005F0000846C046C046214670BD0000FFFFFF7F91
:1006000010B5202A04DB0146203A9140002010BD9D
:10061000914020239C1A0346E3401943904010BDAB
:1006200010B5202A04DB0846203AD040002110BD36
:100630000B46D340D0402024A21A914008431946CB
:1006400010BD10B5202A06DBCB170846203A104112
:10065000C1170B4306E00B461341D0402024A21AD9
:1006600091400843194610BD10B5002B08DA00244C
:10067000401C614192185B411A4301D1400840007F
:1006800010BDF0B51FB482B005460C0003D008467B
:1006900014F09CFE02E014F099FE20300246009017
:1006A00021462846FFF7ACFF049B059A04460F46F7
:1006B00018431143084314D0184610431BD0009828
:1006C00040210A1A18460599FFF7AAFF05460E466B
:1006D000009A05990498FFF793FF084305D001207D
:1006E00004E02046394607B0F0BD0020C11705439D
:1006F0000E432C43374300990E986305401A790541
:10070000E40A00220C43FD0A0A3002D5002001460B
:10071000E9E70105101969410C9C0D9D001969411B
:10072000FFF7A2FFDFE7000030B50446CD0FED076D
:100730000020054304D10D460121C9076442A941A7
:10074000DD0FED07284304D118460123DB07524291
:1007500083411846151B884101D2084806E0012054
:10076000400762404B401A4300D10548EFF3008137
:100770000902090A014381F3008830BD00000080AE
:1007800000000060064C0125064E05E0E36807CC3A
:100790002B430C3C98471034B442F7D3FFF788FC46
:1007A0003059010050590100BCB5AF48002101701B
:1007B0006F4801702B4801690191416900910199CD
:1007C00000290CD00199012905D001229403611C54
:1007D000019B8B421FD1654901224A7035E0009987
:1007E00000293AD00099890504D560490A78042384
:1007F00013430B7081691C4A114204D15B490A788A
:10080000F72313400B70009941615848C1680029D3
:1008100023D0009820E0019D54490B78254211D146
:1008200013430B70019A5203120F04D0524A1368FB
:100830000724A34313600C4A019B13420ED00A788D
:10084000082300E0022213430B700199016147481D
:100850008168002901D001988847BCBD016811401A
:100860000160F2E7043000409E9E0700B0B50E4DD7
:10087000AC1C204608F072FF204608F069FF2046B5
:1008800008F072FF18200024214607F059F8F348B9
:100890000470F648054901600549416085600549D5
:1008A000C160691C0161B0BDFE3F00002317B202A8
:1008B0009E5E0000FFFF0700B0B5F54CA078002851
:1008C00030D0D6480025057029480570E078401CD6
:1008D000E070C0B205281ED3E57026480068C00746
:1008E00002D06079401C60712079401C2071C0B238
:1008F000C92810D3607997280CD304F059FB00283D
:1009000008D02078012101432170D54801680722D1
:1009100091430160A57004F04BFB002812D1657073
:10092000A5700FE0607800280CD00025657004F0F9
:100930003FFB002806D0B9480570A58001206080E3
:100940000B4805702078C0070ED02078FE210140AA
:1009500021700A480021017009480170094801709E
:100960002078102101432170B0BDC0462001002035
:10097000900300201C30004014D00040930300205E
:1009800094030020950300201CB5A44800210170A9
:10099000364C206801900198C00704D03448818803
:1009A00001220A4382800198800704D5304881885B
:1009B00002220A4382800198400715D52D48C0883D
:1009C0001F210140122904D12948818808220A43A5
:1009D0008280606A26498A88274B134001221202CE
:1009E00080091040C01888800198000704D520486D
:1009F000818804220A4382800198C00609D51C48D8
:100A0000818810220A4382800168002901D00020D9
:100A100088470198800609D51548818820220A4315
:100A200082800168002901D0012088470198400692
:100A300009D50F48818840220A4382800168002935
:100A400001D0022088470198000609D5084881880E
:100A500080220A4382800168002901D00320884750
:100A6000019820601CBDC0460E01002014E000402B
:100A70003001002018020020FFFE0000B0B5012563
:100A8000EC02204608F06AFE204608F061FE20468F
:100A900008F06AFE0B20032106F052FFE807F04938
:100AA00008600C2008610E204861B0BDF8B54D4EBD
:100AB000B07E002800D180E00024B4764620315C6E
:100AC000F278012A06D0002A14D101227271317104
:100AD000F2700FE0327931718A4201D0012201E0D7
:100AE0007279521C7271D2B2032A03D10022F270C1
:100AF0000122B271792907D0462910D0082913D1D3
:100B0000082070777D200CE02D212C4A51560029B9
:100B100014D4B077082070777D2084000CE07077C3
:100B2000E1208400012211E0B077082070772D20A9
:100B300022490856002806D4022207E0792070775F
:100B40004B200401EEE77920F077032231461D3176
:100B50000025284609F038FAB07901282DD1B57161
:100B6000174F3878103038700F2000037988014013
:100B7000081978802A201149095C3F200840FFF7B6
:100B8000A7FC104B2A46FFF783FB05460E4620467E
:100B9000FFF79EFC02460B4628463146FFF7E0FB76
:100BA000FFF7A4FC084908807F214A02B988114058
:100BB000782800D378200843B880F8BD940400203A
:100BC0002C0200200040AF403604002005480021E0
:100BD00041830170817181804177C1708177C177D4
:100BE0007047C046D403002080B500F0E7FB0349FE
:100BF0003120C2008858001D885080BDD8040020D4
:100C000080B5054800F00EFC04480021017004483E
:100C10000168491C016080BD100000400E010020E9
:100C20008C04002000280ED01948017801220A43C4
:100C30000270017808220A430270EE480168072218
:100C40009143016070470448012101701048017808
:100C5000F7220A400270704796030020200100200E
:100C600014D0004007490968016070470030004017
:100C700001218904034A13680B4000688843C018A7
:100C80001060704700300040014A9060D1607047AA
:100C90002001002080B582B0019001A80090017869
:100CA00089200BF0EDFC009841788A200BF0E8FCDD
:100CB000009881788B200BF0E3FC0098C1788C20A1
:100CC0000BF0DEFC02B080BD81B0009001B0704737
:100CD00080B582B000F036F800F06EF901A80090FF
:100CE00000F066F800984178C72211401831417031
:100CF000C17838221143C17000F0C8F8032000F019
:100D000025F902B080BD0000002804D0AD490A6872
:100D100010239A430A600749087070470248016827
:100D2000594808407047C04620E00040014800781C
:100D30007047C04691040020A248016801229143F7
:100D4000016070479F48016801220A4302607047B2
:100D500080B503280FD8800001A108588746C046F7
:100D6000710D00007B0D0000810D00008B0D000057
:100D70000C48016806E000200BE00A48006806E025
:100D8000084841684048084003E0064840680001C0
:100D9000000DFFF789FB044A044BFFF779FAFFF7D0
:100DA000A5FB80BD24E000409A9999999999E93F63
:100DB000FCB565490A680723DB43019304781C40AE
:100DC000D206520F121902700C6845783F262E4049
:100DD0006409A30100939D194570C72616400A684F
:100DE000170938221740BE1906700E68877803234A
:100DF0009F4333059B0FDE198670F8232B400D6847
:100E00006D046D0FEB1843700C239E430F687F0B2E
:100E10001F40BE1986700B68C778019C27401B03D2
:100E20005B0FDB19C370009C2C190D686D0C15400D
:100E300064194470CF2434400D68ED0C30262E40E8
:100E40003419847093430C68A40D1440E218C270E6
:100E5000BF2313400968C907490E5918C170FCBD6A
:100E600000E0004063490968C90701D100207047CC
:100E700004490968044A002800D0090C11400320E5
:100E8000484370472CE00040FF0F000070B5027827
:100E90002D490B681C24A3435207D20E9A180A60EE
:100EA0004278520860231A400C689C43A2180A60DA
:100EB00003780722D4010D68A5431B0123405B1969
:100EC0000B60847803239D020E68AE43A407240DB3
:100ED000A4190C60447815030E68AE436407640CD3
:100EE000A4190C608478DD030E68AE4364032C40C3
:100EF000A4190C60C47855040E68AE436407240B33
:100F0000A4190C60447815050E68AE4364042C40A7
:100F1000A4190C608478DB050D689D43E4041C4033
:100F200063190B60C37852060C6894439A06520FFB
:100F3000520612190A60C0780A6801239A434006D3
:100F4000C00F1018086070BD00E00040052807D8E9
:100F500040B2800003A108581A490A6802430A6097
:100F60007047C04640000000800000000001000003
:100F7000000200000200000008000000052807D859
:100F800040B2800003A108580E490A6802400A6076
:100F90007047C046BFFFFFFF7FFFFFFFFFFEFFFF61
:100FA000FFFDFFFFFDFFFFFFF7FFFFFF05480168A3
:100FB00020229143016070470248016820220A43C1
:100FC000026070470CE00040034800680001010D1A
:100FD0000A2048437047C04618E0004005480068B2
:100FE000C00701D100207047034800680005400C8D
:100FF0007047C04614D0004034E0004081B00090FB
:101000000099002048640099086400994822885497
:1010100001B0704780B582B0414800780190042843
:101020004ED80198810001A0405887464110000029
:101030005D1000008F100000A3100000B51000002C
:10104000DC48C07F012808D1FFE700F048F93449A7
:101050000120087033490870FFE732E0314800781A
:10106000002808D0FFE72F4900200870D1480078F9
:101070000FF0CEFA52E0CF48807F002806D1FFE77C
:10108000CC490220C87726490870FFE719E000F034
:1010900059F9002804D0FFE7214903200870FFE731
:1010A0000FE000F043F8C349002088771C49042072
:1010B000087006E01A490020087000F0FFF800E010
:1010C000FFE7BC48C07F002803D0FFE706F086FAA0
:1010D000FFE7B848807F00281CD0FFE7124800686F
:1010E000002805D1FFE706F0D9FB0F490860FFE7AC
:1010F0000D48006806F0DAFB64280AD3FFE707F022
:101100002BF8AC4A0420D07700219177044908706D
:10111000FFE703E0044900200860FFE702B080BD5C
:101120002E040020140000203004002080B584B07C
:10113000A0480290801C0EF067FF0298801D0EF000
:1011400063FF03A900200870FFE703A8007899490E
:1011500049784906490F891E88420EDAFFE703A83D
:1011600000788100934840180A300EF04DFFFFE7E9
:101170000398401C03A90870E7E78E480190417866
:101180004906490F801C002206F098FF01990420AF
:10119000C87704B080BDC04680B58EB0854909913E
:1011A0000220069088770020079007F0F7FD069A46
:1011B000014609980C910C9906F09AFB079807F0E4
:1011C000EDFD01460998891C0C910C99801C0422A4
:1011D000089206F08DFB0798099A917F091D917777
:1011E00007F0DCFD089A01460998891D0C910C99BD
:1011F000801D06F07DFB0998817F091D8177007AAB
:101200006B2851D1FFE76B48407A41284CD1FFE76A
:101210006848049041784906490F0BAA059211705D
:101220000EF0E4FE0498801C0EF0EEFE0498801D83
:101230000EF0EAFE05990B98801E08700AA900209E
:101240000870FFE70AA800780BA90978884227DA16
:10125000FFE7002007F0A2FD01460AA802900278ED
:10126000920089180A310C910178524801900A3095
:101270000390890040180C99042206F039FB019B69
:10128000029903989A7F121D9A770978890040186D
:101290000EF0BAFEFFE70A98401C0AA90870D1E7D1
:1012A0000DA90120087005E04249002088770DA9AA
:1012B0000870FFE70DA800780EB080BD80B504204F
:1012C00008F040FA0FF06CF90FF0AAF90FF094F95A
:1012D0000C200FF077F903200FF05EF980BD80B588
:1012E00084B0202008F034FA012002908002052109
:1012F000009105F007FC00990298C00205F002FC7D
:101300000420019008F02AFA019808F021FA0198C7
:1013100008F02AFA032003900FF060F9E120400260
:101320000FF02EF90FF082F90FF06CF902990020FE
:1013300006F006FB0C200FF04BF903980FF02CF988
:1013400004B080BD80B582B01A48C07F032806D0A3
:10135000FFE719490020087001A9087026E0154828
:10136000807F02280DDBFFE713480078C0070028C4
:1013700007D1FFE70F480EF039FE0F490120087032
:10138000FFE70C49887F497889081C221140891C95
:10139000884207DBFFE708490020087001A9012007
:1013A000087003E001A900200870FFE701A8007899
:1013B00002B080BD56040020340400200148012101
:1013C000016070470C00004080B582B00820019099
:1013D00008F0BEF9019808F0C7F9064800F01AF8BD
:1013E00000F010F81520032106F0AAFA00F004F826
:1013F00002B080BD50C30000012081070A6802438B
:101400000A60704701208007016808220A430260D1
:1014100070470000FF2109068843014908607047B2
:10142000080000400121C16070470168012291431A
:1014300001607047016801220A430260704710B5DD
:10144000026802239A438B78134303600A784B782F
:10145000134302680424A2431A430260FF221206C7
:1014600049689143816010BD016808220A43026007
:1014700070470000B0B53B4800210170084D29704D
:101480000124204600F088F8002805D02003298C8C
:10149000014329840BF074F8012000F0C5F8B0BDB9
:1014A00090030020FF210906884301490860704726
:1014B0003020004010B52B48002101700224204646
:1014C00000F06AF800280DD02748C18904220A4399
:1014D000C28140480168A1430160012149020268BC
:1014E0008A430260022000F09FF810BDFF21090628
:1014F00088430149086070473420004010B5042437
:10150000204600F091F8174800210170204600F0B5
:1015100037F844480121017010BDC046FF2109067B
:1015200088430149086070473820004010B50D48D5
:10153000002101700824204600F02EF800280CD06D
:101540000948C1892143C18122480168A143016042
:101550000121C90202688A430260082000F064F891
:1015600010BDC0460E0100200C02002002490140BF
:10157000024801607047C046FFFF0F003C2000405A
:1015800014490A6882430A607047C04611490A68D4
:1015900002430A607047C046254909680840411E59
:1015A0008841704710B51024204608F0D7F820462F
:1015B00008F0CEF8204608F0D7F810BD0002054923
:1015C0000A6882430A607047000202490A680243BF
:1015D0000A6070470020004080B50420FFF7D0FF6C
:1015E000104800214170017080BDC04610B504460E
:1015F000102008F0ADF87D206043FFF78FFF0F2427
:10160000204606F091F90321204606F099F90424BA
:101610002046FFF7D9FF0348002101702046FFF75D
:10162000B5FF10BDD4010020014908607047C046D5
:101630000420004010B50A4C20786178884206D01A
:101640006070607B4007810F12200FF0B1FF207B9C
:10165000810703D5ED2108401030207310BDC0462E
:101660001003002010B501240021204608F08CF85A
:10167000600208F067F807F0F5FF10BD10B5012013
:1016800005F07CFF0B494A880B4810408A880B49BB
:1016900011402C220D4CA25C03231340084AD35C5A
:1016A0002B22A25C5206920F064CA25C07F0DAFCD9
:1016B00010BDC0462C020020FF0F0000FF010000FB
:1016C000145701002C590100004870479404002071
:1016D000F0B59BB0FC4A9069FC4CA0601069000C0E
:1016E000A0815069E0815069000C2082D069000916
:1016F00020755068000C607550680004C00EA0751D
:1017000050684000400EE075D0694004400F2076DC
:10171000D0698003400F6076D069C002400FA07688
:10172000D0690002400FE076D068A0839068000A7C
:10173000A0779068000C2084106E0005000F222115
:10174000605410462030606010466430206090681D
:101750002321605450682A23E55CC0211A910D4072
:101760004005800E4019E054106911462B22A35CFD
:101770001825AB4380002840C018A054089260236D
:1017800098430E460C3E119635682D0D1D402818C5
:101790000790A05436682C25675D03201790C3433B
:1017A0001F40F600B60FF61966550C200690C2438E
:1017B000059216400F687F090740BF196755302210
:1017C0000D9297430E46086840091040381860553E
:1017D0003F270740086840091A99084038186055A3
:1017E00030690121084032221292A55CC943099157
:1017F0000D4028180290A05430682D22A15C194099
:101800008000800F4018A0541346254640241094B1
:10181000E1431A910840119A1168090E21400918F4
:10182000E9541C46049310682E22AB5C04270F97E2
:10183000FE430E963340C00E3840C018A8541646DA
:101840007F220C921140B54F3B685B0BDB015918AE
:1018500003912955099C204039680904C90F0818CB
:10186000A85502221992D143189108403968490BB2
:1018700011404018A85508221692D14314910840EF
:10188000396911404018A855179909023B690B4066
:10189000591E8B41190110221592D2431392104008
:1018A000401832460196A85520231793D9430A9130
:1018B00008403E463969C90919404018A8541A9988
:1018C00008403968C90F89014018A8540C9908408C
:1018D0003968490C80230B9319404018A8543A6882
:1018E0002F21685C20409201D20F10186854189A7A
:1018F00010403A68520E199B1A40101868540E9AFC
:1019000010403A6852000F9B1A4080186854149C8B
:1019100020407A689200169B1A4080186854139AE7
:1019200010407A689200159F3A40801868540A9ACD
:10193000104072689200179F3A40801868541A9AB3
:10194000104032683746D207520E86186E543A68F5
:101950000D9FE85D204052001A401018E855139A78
:1019600010406F4A5268D20D159B1A401018E85566
:101970000A9A1040694C226ED209179B1A408018AF
:10198000E855099A104022681201D20F8018E855D4
:10199000189A10402268D20B199B1A408018E855FB
:1019A0000C9B1E402268920A0B9C224092196A549A
:1019B0000E9C2040594E7168C907490F08183A46D5
:1019C000E8551A9908403168109F39404018A854CA
:1019D0001F461840316889000B9B19404018A854D5
:1019E000316831202A5C189B1A40C908199B19409C
:1019F000891829542140326952090F9B1A40511805
:101A00002954149A114032699208169B1A40891879
:101A10002954139A11403269159B1A408918295488
:101A20001A9A1140F2695201109B1A4089182954E0
:101A30003940119A1268D20FD2018A182A54029B97
:101A40002340F169C907490FC918129C2955DF23A2
:101A50001340F269D200179F3A40D2182A541898BE
:101A6000014030694009199A1040401828552C4F00
:101A700039682422A9543968090A2522A9543968E9
:101A8000090C2622A9543968090E2722A95479681D
:101A90002822A9547968090A2922A9540599039C86
:101AA0000C403168090C069A11400919049C29550B
:101AB000CF220A403168090C0D9B19405118295555
:101AC000F821079A04E0C04610DF010094040020CA
:101AD00011407A68520F8918089AA954149908403D
:101AE0007968490E169A11400818129BE8540F2184
:101AF0000140F069000DF02202408818E854F068B7
:101B0000000C3321685400F03FF80198285C40072E
:101B1000C00F05F033FD1BB0F0BDC04610DF010063
:101B200094DF010010B508490A6801239A4312188E
:101B30000A60411E8841C0003221C04A535CF7242C
:101B40001C400443545410BD043000400A4A01288C
:101B500005D002280FD1D31C09480A2202E0931CA9
:101B60000648062219700F230B40934005490A6866
:101B700002401A430A607047080000203FFCFFFF44
:101B8000FFC3FFFF00B00040B0B5FFF79DFD2F2160
:101B9000FF22425430213B22425436211922425422
:101BA000352142542A21425CC02313403C33435424
:101BB0003422835CFC210B4083542B22835C8024E1
:101BC0001C40693484547D22D2004282174A8285A7
:101BD00028228277828341224275154A0285154A5E
:101BE000C282154A154B0360154B036242623722CD
:101BF000835C3324822505552E248D2505553224FA
:101C0000642505553124AC2505550B4083540D49F9
:101C100081618C210175002101820B4AC2608160C3
:101C20000A4941600A498163B0BDC046BCBD00009D
:101C3000B4FA00001E41000096B4FA96C85801009C
:101C40007800030A06050201E62F0000185701007C
:101C50001C0C010170B5E34CA0782179884203D0B7
:101C60002071002000F096FCDF4D2888C00706D0C8
:101C7000A888800703D4002000F0FEFB04E0288839
:101C8000800701D500F0D2FBA189A089C90727D11F
:101C9000A189800736D4880602D4208A000642D063
:101CA000A0892026B043A081208A218AFF22914367
:101CB000401EC0B208182082608AC00604D03020BE
:101CC000CA49085C400640D4002000F077FB6888D1
:101CD000304368800420A07028883043288070BD7D
:101CE0000121C9430840A081524800220260026AD3
:101CF0000A4002623020BD49085C00070ED5022070
:101D0000A0700BE002208143A1814A4800210160BC
:101D10004160016A032291430162A2702888202158
:101D20000143298070BDE08900050ED5E089F349A3
:101D30000140E1813F480021016041608160016A0A
:101D40000722914301620520A07070BDB0B5E84C38
:101D5000A0782179884213D1A189A089C90719D116
:101D6000800727D5A08902218843A081314800211E
:101D700001604160016A032291430162A27019E08F
:101D800020712C4801214162026A0A4302622A49F9
:101D900001600FE00121CA431040A08125480023C3
:101DA0000360036A13400362A170D2480188402295
:101DB0000A430280CF480188C90706D08188890775
:101DC00003D4002000F058FBB0BDA189890602D4DD
:101DD000218A09061CD0A28920218A43A281228A55
:101DE000238AFF25AB43521ED2B29A182282628AFE
:101DF000D20604D03022C04B9A5C520607D44288E7
:101E00000A434280002000F0D9FA0420A070B0BD3F
:101E1000E0890005FBD5E089F9490140E1810548E9
:101E20000021016041608160016A072291430162E3
:101E30000520EBE7107000403D00108A940400205C
:101E400080B5002000F0C2FD80BD80B5002000F00C
:101E500009FE80BD80B5002000F098FE80BD000026
:101E6000BCB5E248017982788A4212D1E2490A88F7
:101E7000D20712D08A8892070FD408880122904393
:101E800008800024204600F0F7FA204602F0C2FD48
:101E9000BCBD002002F034FEBCBD8289D20737D120
:101EA0008289920738D4438AE0221340C02B43D161
:101EB0004F4A0024146154619461D461038AFF2560
:101EC000AB430382038ADBB2038201231360D46035
:101ED000946801940324A404019DA5439C042C1937
:101EE00001941C06019DA54301955B06019C9C4342
:101EF0000194019B9360D36A3E4C1C40D4620B2238
:101F00000270042282704888202202434A80BCBDAD
:101F1000002002F099FCBCBD81890222914381819D
:101F2000408AC00604D03020B449085600282DD479
:101F3000002002F0C9FCBCBD8489838964071FD4DA
:101F40009B0602D4038A1B0625D083892022934353
:101F50008381038A048AFF25AC435B1EDBB2E3184E
:101F60000382408AC00604D03020A44B185C40068F
:101F70000CD4488810434880002002F007FDBCBD07
:101F800004218B438381408AC00600D0BCBD002061
:101F900002F0C4FCBCBDC1890905F7D5C189984BC5
:101FA0000B40C381418A9143418211490022CA609A
:101FB0000A614A618A61CA618189012291438181F2
:101FC0008189022291438181018AFF22914301820A
:101FD000018AC9B20182052181708189042291435D
:101FE0008181BCBD0C020020B003002094040020BD
:101FF00004700040E0FBFFFF70B5EA4DE8786979B6
:10200000884203D06871012000F0C4FAE64E30889F
:10201000C00702D0B088800705D43088800705D576
:1020200000F004FA02E0012000F026FAA989A8894C
:10203000090726D4A989400734D4880602D4288AFF
:10204000000642D0A98920208143A981298A2A8AB1
:10205000FF239A43491EC9B251182982698AC906C9
:1020600004D03021D14A515C490640D471880143E3
:1020700071800124204600F0A1F90420E870A0023C
:102080001FE008218843A88159480021C160816967
:102090002022914381613020C449085C00070ED59D
:1020A00002200BE004208143A98151480021C16036
:1020B000816081693022914381610320E8700120B1
:1020C000800231880143318070BDE88900050ED55A
:1020D000E889B7490140E98145480021C160816034
:1020E000016081693422914381610520E87070BDEF
:1020F0000C020020B003002094040020FFF7000031
:10210000B0B5DC4CE0786179884214D1A189A0890E
:1021100009071AD4400729D5A08904218843A08142
:1021200033480021C160816081693022914381611F
:102130000320E0701AE060712D482021C16182699E
:102140000A4382612B49C16010E008218843A081C5
:1021500027480021C16081692022914381610120CB
:10216000E070C002C1490A8802430A80BF48018862
:10217000C90702D08188890722D4A189890602D49F
:10218000218A090620D0A28920218A43A281228A9D
:10219000238AFF25AB43521ED2B29A182282628A4A
:1021A000D20604D03022F44B9A5C520607D44288FF
:1021B0000A434280012000F001F90420E070B0BD24
:1021C000012000F059F9B0BDE0890005F7D5E0899C
:1021D00077490140E18106480021C16081600160CA
:1021E00081693422914381610520E7E70C020020D8
:1021F000187000403D00608AB00300209404002065
:10220000FFF7000080B5012000F0E0FB80BD80B545
:10221000012000F027FC80BD80B5012000F0B6FC55
:1022200080BD0000BCB5D9484179C2788A423FD10F
:10223000CF490A88D20702D08A88920740D482897F
:10224000120739D48289920745D4438AE022134089
:10225000C02B50D1574A0023D3601361536193615F
:10226000048AFF25AC430482048AE4B20482012478
:102270001460D3615368019303239B04019D1D43A4
:1022800001952306019D9D4301956306019C9C4396
:102290000194019B5360936A474C1C4094620B224B
:1022A00002700422C2704888202202434A80BCBDCA
:1022B000012002F025FCBCBD012002F0C5FABCBD26
:1022C00008880124A0430880204600F0D5F8204665
:1022D00002F0A0FBBCBD8189022291438181408A2A
:1022E000C00604D03020D949085600282DD401203A
:1022F00002F0EAFABCBD8489838964071FD49B0677
:1023000002D4038A1B0625D083892022934383812C
:10231000038A048AFF25AC435B1EDBB2E318038209
:10232000408AC00604D03020C84B185C40060CD44C
:10233000488810434880012002F028FBBCBD0421DE
:102340008B438381408AC00600D0BCBD012002F0CF
:10235000E5FABCBDC1890905F7D5C189144B0B400D
:10236000C381418A9143418212490022CA61CA60F5
:102370000A614A618A618189082291438181818948
:10238000022291438181018AFF2291430182018AC5
:10239000C9B201820521C1708189042291438181E2
:1023A000BCBDC0460C020020B003002094040020F5
:1023B000FFF7000008700040C1FBFFFF78B52C4913
:1023C0000023CB60714A148AFF25AC4314820C6849
:1023D000009401242506009EAE4300966504009EED
:1023E0002E43009600280BD08B614B614B6A34243E
:1023F000A3434B6203239B04009C1C4300940CE00A
:102400004B608B604B6A0725AB434B6203239B04F5
:10241000009D9D43A304EB180093101804238370C0
:10242000009808600C20107078BDC04681B05048FC
:1024300001880222914301800D480021C160534967
:102440000A8AFF239A430A8201218A040260426AAF
:1024500000928902009A8A4300920421009A8A43DA
:1024600000920099416201B07047C046B00300205D
:102470000C7000400C020020F8B504463C4801886E
:102480000126B14301803B4DE8680090300400997B
:102490000143009170040099814300912E276B4AFB
:1024A000D057364B002C13D0002803D42F20105CBB
:1024B000800728D007F07EF9304B644AC00622D549
:1024C0002B20105C0721014004291AD02D4819E067
:1024D000002803D42F20105C80071CD007F06AF975
:1024E000264B5A4AC00616D52B20115C07200840FF
:1024F00004280ED8314681401A20014209D02048D4
:1025000008E01F48A86100981840F10401430091B9
:1025100004E01D48A86100981840009034402868E5
:10252000B04300192860D057002803D42F20105C36
:10253000800708D007F03EF9444AC00603D53006AC
:102540000099014300912F20105C400703D57006CD
:102550000099014300910D48018AFF2291430182B5
:102560000B486863296B014329630098E860F8BD54
:10257000B00300200070004094040020FFFFF3FF30
:102580001301008B1301048B1301038B0C02002039
:1025900004060000B8B50021009130232B4AD15C1D
:1025A00009072B4914D42022009C144300940122D3
:1025B0005202009C144300942E4A0092002821D01D
:1025C0000B63C86A1843C862244808622A4834E08A
:1025D0003724155DAD0701D51F4D00E01D4D009559
:1025E000002818D00B63C86A1843C8621B480862E9
:1025F000105D80071A481FD43423D25CD2071CD147
:1026000018481AE003200863CA6A0243CA621648DF
:10261000C8601A4816E003200863CB6A0343CB6204
:102620001148C860105D800710480AD43423D25C7A
:10263000D20707D10E4805E05D30C86100984860B8
:10264000B8BD5D30086100980860B8BD94040020F2
:10265000047000400B7608000B7630003F00648069
:102660003F0063843F007A843F0014803F0013845E
:102670003F002A84290601003F0064843F0014843F
:10268000F0B585B000200390C14CA1690491616947
:102690000291C0490870C04908700499C90723D144
:1026A000049989073ED40499490745D40499090738
:1026B00055D40499C9067BD40499890600D581E0D4
:1026C00001200499C90500D5AFE00499890500D51A
:1026D000B3E00499490567D580020299014260D0B0
:1026E000CD498A898023AFE00299C90758D0FA4DB5
:1026F000698AE0220A40A02A2CD1698A20220A4352
:10270000C0218A436A8221460C3908606069012130
:10271000884360610DF00EFFF1488088800737D54F
:102720009F4836E00298800704D5EB488189022251
:102730000A438281022034E00298400708D5E64827
:10274000018A028AFF239A43491CC9B251180182A7
:10275000042026E0A88901210143A98120E00299F3
:10276000090713D5DC4D698A0906490F04D06A8A26
:10277000C0210A40C02A40D101200002298A08183D
:10278000FF218843298AC9B208182882082008E056
:1027900082482060688A40210143A02081436982E9
:1027A00001200399014303910398A06105B0F0BD96
:1027B0000298C00604D5EE48818904220A4382812A
:1027C0001020EEE7029989064ED5E94D698AE0228C
:1027D0000A40A02A3BD1698A20221143C023994391
:1027E0006982A0606069904360610DF0A3FEBC48FF
:1027F0008088800730D56A482FE0B94A9388DB0784
:10280000C4D06B8ADB0604D06B8A1F261E400F2EB5
:10281000BCD392886B8AE0273B409207D60F202BCF
:1028200024D1002E3FD05E4E3EE0000202990142CC
:10283000B7D0F6498A89102306E040020299014286
:10284000AFD0F2498A89202313438B81A9E7A88955
:1028500008210143A98107E050482060688A40218F
:102860000143A0208143698220209AE76A8A3A4086
:10287000402A23D14B4801680822914301600DF0A2
:102880006FFE698AB9430722D24342434648101873
:10289000012292024B32904246D26020014369826B
:1028A0000DF048FE43E03D4E0DF044FE2660688A80
:1028B00040210143A0208143698267E76A8A3A4048
:1028C000602A12D13748016808229143016007202D
:1028D000C04301900DF044FE019948433949401826
:1028E000394988422AD3402029E06A8A3A40802A1E
:1028F0002DD120602B4801680822914301600DF022
:102900002FFE698AB9430722D24342432648121850
:10291000012083024B339A4206D2A02211436982DE
:10292000002E24D0244923E0202001436982002E78
:1029300001D01F4800E01D48206027E78020698AF9
:10294000B94340186882002E0CD015480BE0688A05
:102950003840A02800D019E7688A0843202188431E
:10296000688213E70D4820600DF0E4FD0EE7114981
:102970002160002E04D121460C39114A0A6002E080
:102980000E48A0602020A061616901436161FDE6FD
:102990001C7000400E0100209003002002001180F6
:1029A00002006180002000407FFA7F000200178053
:1029B00002006780BB001182BB006182020066805A
:1029C000020016807BEA7F009311000070B5EF498A
:1029D0000A18937811798B421CD04021C9430028F2
:1029E00001D00E4D01E00D462035894C26882E4041
:1029F00026801371002800D0094922880A402280CD
:102A000081005C4808220A50A188C90702D101212F
:102A10008904816070BDC0460C020020FFFBFFFFEF
:102A2000FFF7FFFFB0B501242502284606F090FE0F
:102A3000284606F099FE0420214604F081FF07484D
:102A400000210160082141602B22054B9A5C07237D
:102A500013409A1E022A00D88160B0BD0070004069
:102A60009404002010B5C94A11188B780C79A34240
:102A700013D1D089C0040FD5D0891B4B0340D3811B
:102A8000508A1F239843508201200004134A136880
:102A9000034313600320887010BD0B7181000F4A3F
:102AA0008918083908230B600121890411605849ED
:102AB0000A88002807D00B4802400A800888554A37
:102AC00002400A8010BD202082430A8008884022EC
:102AD0009043088010BDC0460C0200200C700040DE
:102AE000B0030020FFFB0000FFEF000010B5A74877
:102AF00001784278914211D182898189D20716D119
:102B0000890734D50221CA43838913408381194B35
:102B100000241C61DC6A1440DC6227E08378154ADB
:102B2000042B14D1144B1360164B174C13E00122E5
:102B3000914381810F4B0021D9601961DC6A032226
:102B40009443DC628378042B0ED013460DE00A4BCD
:102B500053600A4B0A4CD460136103231363D46A95
:102B60001C43D462417010BD0223C254017010BDD9
:102B70000C02002004700040611E3100FA008480C5
:102B80000A006080FA0034800A001080B0B57F49E6
:102B90000818827803799A4230D1CA8912052CD557
:102BA000CA891C4B1340CB811B4B00221A605A6010
:102BB0009A60DA601A615A611C6A3F25AC431C6254
:102BC0000A828B890F24A3438B81114B5C880125DA
:102BD00025435D805C88022525435D804B8A1A4C25
:102BE0001C404C824B8A194C1C404C824B8AE0247E
:102BF000A3434B820A7005218170B0BD0271044865
:102C00000188012291430180B0BDC0460C02002022
:102C1000B0030020FFF700001070004010B55B4CBF
:102C20006078217881420DD004F088FE608A0649E0
:102C300001406182608A05490140618204F0A8FE7A
:102C40002078607010BDC046FFF00000FF8F0000CC
:102C500070B54E4801784278914213D18189C907F5
:102C600018D18189890718D4028A018A12061BD0DB
:102C7000028AFF239A43491EC9B25118018201F00A
:102C8000A5FB70BD4170418A01220A431E218A437F
:102C9000428270BD01F05AFD70BD818902229143CC
:102CA000818101F059FC70BD090A3DD18289818979
:102CB000520745D4090767D50121090282890823F3
:102CC0009A4382810F221203438ADB065B0F14D1E1
:102CD0002F4B1C881034F0252C401E88AE4334192D
:102CE0001C805C8814400D46F43525435D807F24AC
:102CF00064029D88254078359D80FF231C04254B68
:102D00001D69A5431D61448A2405240F8578A41EEE
:102D1000042D1BD1032C32D87C4424796400A744B1
:102D200001202224234C1AE0FF21C943028A5218B1
:102D30000A40018AC9B28918018201F0ADFB70BD59
:102D400004229143818101F07DFC70BD032C16D8D3
:102D50007C4424796400A744010A0D10114C1C60C6
:102D60000DE0134C04E0114C05E00F4C06E00C4C58
:102D70005C6004E0094C9C6001E0074CDC60FF32C1
:102D8000438A13400B43438270BDC0460C020020AF
:102D90002C020020147000409C008D859C007B85D7
:102DA0009C00AA859C009E859C003D859C002B85EF
:102DB0009C005A859C004E85FEB5F34C20786178C6
:102DC00088422BD1A089C0072CD1218A208A0906EC
:102DD00031D0218AFF229143401EC0B208182082C0
:102DE0000F2006023546FF35E84840882840012775
:102DF000390202916831884200D8B5E0608AC00685
:102E0000400F00D0B0E0628A32403146EC310520FC
:102E10000302FB489A426DD1F84B7BE00021A16090
:102E2000607029E101F092FC01204003F2490A6838
:102E300002430A6020E1000A2AD1A089000700D4D9
:102E40001AE101252E02A08908218843A081608A09
:102E5000C006400F11D12C20EC49085C032202402F
:102E6000F148835C2B20085C4006800FEF490A5C28
:102E70003046F430782106F0F5F8ED480269ED4966
:102E80000A400261A278042A00D14FE14F234EE1AB
:102E9000FF20C043218A09180140208AC0B240188F
:102EA00020822F21D948415C890603D5A1684900B9
:102EB000491CA160D14D6B880F2109020A46FF32DF
:102EC00013402C26865DF60806273740D54EF65B64
:102ED000B34200D3D0E0638ADB065B0F00D0CBE0C7
:102EE000678A0F4005231B0214269F4200D04FE142
:102EF000C34F5CE1628A324003235B029A42BF4BBC
:102F000008D0608A304009210902884224D1314624
:102F1000FE31BC4801905A88511829405A881846F9
:102F2000B94B13400B43438003462D21B74A515CF4
:102F30008907490F0198415A7D204001484359882B
:102F40002940FDF715FB782800D37820AB4B9988F2
:102F5000AF4A0A4002439A8018881030F021084096
:102F60001A888A43101818802F21A848415C8906C6
:102F700000D481E0A1684900A160628A3240052343
:102F80001B029A4213D1A34A914210D19B4A528804
:102F90002A40029BF4339A4209D19B48FF30618A50
:102FA000014003204002081860824B2062E0638ADF
:102FB0003340628A07252D02AB4219D1964B9942C4
:102FC00016D191490B46FF331A40FB02D218628298
:102FD000934A15680826B543156015689D4315602A
:102FE0002D22805C03220240012A2CD064202BE099
:102FF0003240F8028242814B3ED1884881423BD127
:1030000081480146FF31628A0A40092109025118AC
:103010006182618A03220A431C218A4362825988A1
:10302000014002984018F43058809888784901404F
:103030007831998018881030F02108401A888A4326
:103040001018188018E0C8206C4B5A880A40801865
:103050004B21C9004018588098886D49014078314B
:10306000998018881030F02108401A888A43101877
:103070001880E12001F0BEFDE089000755D5E08908
:1030800008218843E0810F200102608A0840032262
:103090005202904220D159494A885B4802404B2352
:1030A000DB00D2184A808A88594B134078338B80D2
:1030B0000A881032F0231A400D889D43AA180A800E
:1030C000FF30618A01400720000208186082E12079
:1030D000400001F08FFDFEBD628A0A400120C3025C
:1030E0009A4205D0628A0A40072109028A421CD10D
:1030F000454A1146FF31638A0B40052109025918E0
:1031000061823E494B88134000021818F430488011
:1031100088883F4A024078328A8008881030F0223E
:1031200010400B88934318180880FEBD27235B04CA
:1031300007680F40FB180360042A01D08D2200E0CD
:103140003D221204C3680B409918C16041683A4A95
:10315000114005231B06C918416041682D4F3940B5
:103160009C31416081681140C91881608168394093
:103170009C318160032020702348FF30618A014028
:1031800031436182680351E60C0200202C020020CA
:10319000638A0B4003277F02BB42194F07D0638A23
:1031A0000B40092109028B421DD1164F0226698866
:1031B000891911406B88144E1E400E436E802D21DC
:1031C000405C8007400F395A7D20400148436988A0
:1031D0001140FDF7CDF9782800D37820A9880C4A52
:1031E0000A400243AA8028881030F02108402A882B
:1031F0008A43101828803FE7043000402C0200204A
:10320000B0570100C057010000F0FFFF94040020F8
:1032100000FEFFFF0000FFFF2A00C0FFAC0200FC21
:1032200000200040B8570100145701002C5901003C
:1032300014700040FFFF00FFFFFFFF80F0B587B074
:10324000DA4C22786078824220D1A089C0073CD134
:10325000A08980077FD4218A208A090600D18FE0C7
:10326000218AFF229143401EC0B208182082608A42
:10327000C0066ED1E08901210843E081608A0843DD
:103280001E218843608201F0A1F876E000200590BD
:10329000EB498868069001204304069D9D430695EE
:1032A000A578634B042D17D1664D0495664D0395A3
:1032B000664D0295664D0195009303239B04069D80
:1032C0009D438304EB18069314E001F03FFAE08974
:1032D00001210143E1813CE0564D0495564D039593
:1032E000564D0295564D0195009303239B04069D70
:1032F0001D4306952F25574B5E5D370708D5049E65
:103300000E61039E4E61029E8E61009E0E625E5DA6
:10331000F60601D5019ECE613E260E63CF6A374385
:10332000CF626270628A4C4E16400202B21862820C
:103330005A5D3F2A03D830229A5C920709D0069A38
:103340008A604103A2898A43A281C003A189014303
:10335000A18107B0F0BDA08902218843A081608AC5
:10336000C006F6D1E08901210843E081608A084364
:103370001E218843608201F0EFF803202070E8E707
:10338000000A28D1A189A08949073CD48004E0D54E
:1033900001204003A1898143A181A9480021016145
:1033A00041618161C1610162218AFF2291432182D1
:1033B000218AC9B22182C16A3E229143C162424937
:1033C0008988490004220A40115807239B02994327
:1033D00011500520D2E7FF20C043218A091801407F
:1033E000208AC0B240182082608AC006B1D1E0892C
:1033F00001210843E081608A08431E2188436082DE
:1034000001F04AF8B9E70425A843A081608AC00604
:103410009FD1E08901210143E181608A02210143BA
:103420001D208143618201F00DF9257091E7C046AE
:103430009C0000859C009E859C00AA859C007B8545
:103440009C008D859C004E859C005A859C002B8598
:103450009C003D8594040020FFF0000010B57748E3
:103460000278437876499A420BD042708278042AD7
:1034700002D108220A6001E008224A600122920477
:103480008A60828992051BD582890E4B1340838105
:103490000D4A538810241C435480012212048B6867
:1034A00013438B6082780321042A01D00A4600E08E
:1034B0000222815400210170418A1F2291434182DE
:1034C00010BDC046FFFD0000B0030020F0B55B4812
:1034D000027843785A499A420BD18289D20715D093
:1034E000828901239A4382811A038389134383814A
:1034F0000CE08378042B04D10B6810241C430C606F
:1035000003E04B6810241C434C604270C2891206D1
:10351000274C0FD5C28980239A43C2818278042A1E
:1035200002D00322520501E001221205CB6823409C
:103530001343CB600122C389DB051E4B05D5C5892A
:103540001D40C581CD682540CD60140285892D05BB
:103550001DD58589184E2E4086810025CD60CE6A06
:103560009643CE628678042E06D1032686700E68B6
:103570001027BE430E6005E00326C6704E68102774
:1035800037434F600570458A1F26B54345828589BC
:10359000254209D084891C4084810023CB60CB6AFA
:1035A0009343CB620D210170F0BDC0460C02002098
:1035B000FFFF00FFFFFE0000FFF7000010B5F04C1A
:1035C0002078617888420CD1A089C00719D1A089E0
:1035D000800716D4208A00062FD000F0AFFA0A2008
:1035E0002AE0E849174ACA60A278042A11D1184A89
:1035F0000A61184A4A61012212020B6813430B60E8
:1036000010E000F09BFAA1780320042911D00146B4
:1036100010E00D4A0A610D4A4A61012212024B680C
:1036200013434B6007220A63CB6A1343CB6260707B
:1036300010BD022160540020207010BD0C0200203B
:1036400004700040A4000184FA006080FA006A81DE
:10365000FA001080FA001A81F8B5FD4C20786178E4
:1036600088423DD101252802A189C9074CD1A189F1
:10367000890749D4228A218A120600D1A4E0228A2D
:10368000FF239A43491EC9B251182182C7490A88AB
:103690001032F0231A400E889E43B2180A804A88DE
:1036A000C34B1340C018F43048808888C14A024098
:1036B00078328A80E7484269BF490A404261628A9B
:1036C0005204520FA378042B00D0C5E0032A00D186
:1036D0000EE1022A00D015E182690A401321C2E0FE
:1036E000DC4AA949516101210B02A578042D48D17A
:1036F000AA4DD560AA4D1561AA4D9561AA4DD56117
:1037000015681D43156047E0A189A943A181A289DD
:1037100002218A43A281A54A13881033F0252B4049
:103720001688AE43F31813805388A14D1D404019ED
:10373000F430508090889F4B034078339380F94B4E
:103740000020D860186158619861D861228AFF25ED
:10375000AA432282228AD2B222821F22D243DD6A67
:103760001540DD62A5780323042D00D0194663546B
:1037700007210903638A8B4363822070608A1040AB
:1037800020E0824DD560824D1561824D9561824D5C
:10379000D56155681D435560238AFF25AB432382BD
:1037A0001F231363D56A1D43D562628A0423134322
:1037B0001B2293436382607007200003628A824366
:1037C000080310186082F8BD814250D2A0894007DA
:1037D000F9D5A08904218843A0812E217748415C36
:1037E000C907F0D0714D29881031F02211402B8883
:1037F00093435918298069886D4A0A404B21090171
:10380000511869802A21415C3F200840FCF760FE86
:103810006D4A6E4BFCF73CFDFCF78CFE782800D31C
:103820007820A988634A0A400243AA80F948C269FD
:1038300061490A40C261628A5204520FA378042B84
:1038400000D081E0022A00D189E0012A00D090E076
:1038500042690A400D217EE0032A4DD0022A51D14F
:1038600082690A403B214904114381614AE0FF20FB
:10387000C043218A09180140208AC0B24018208222
:103880004A4E30881030F021084032888A431018A0
:103890003080708846490140E1208000081870801F
:1038A0002A20E449085C3F273840FCF711FE444ACF
:1038B000444BFCF7EDFCFCF73DFE782800D3782064
:1038C000B1883C4A0A400243B280D24882693A49F0
:1038D0000A408261628A5204520FA378042B17D1E6
:1038E000032A20D0012A28D142690A400D2116E07E
:1038F000C2690A40172102E0C2690A403F21490417
:103900001143C16107200003618A8143280319E044
:10391000032A0DD0012A10D142690A4035214904F9
:103920001143416109E0C2690A401721490402E0DC
:10393000C2690A4079041143C16107200003618A0A
:103940008143680308183DE7022A0CD0012A10D1F0
:1039500042690A40352149041143416109E0826905
:103960000A40132102E082690A403B2149041143C5
:10397000816107200003618A814303200003E1E79E
:103980000C02002004700040FA00008139016080C0
:1039900039016780FA007681FA007E813901108052
:1039A00039011780FA002681FA002E812C020020AE
:1039B00000F0FFFF00FEFFFFFFFF00FF9404002068
:1039C000CDCCCCCCCCCC1140B81E85EB51B80A4044
:1039D000B0B5A64C20786178884212D1A089C00782
:1039E00019D1A089800716D4208A00062ED000F0B5
:1039F000A5F801204006FA498A6882438A600920B6
:103A000023E0A278F649042A0DD1134A0A60164A27
:103A1000164B174D0CE000F091F8A1780320042913
:103A200010D001460FE00C4A4A600C4A0C4B0D4D79
:103A3000CD600B614A6107220A63CB6A1343CB62F4
:103A40006070B0BD0221605400202070B0BDC0463F
:103A50000C02002004700040899E3C00E9017E8930
:103A60007D0067857D006285E9012E897D001785CF
:103A70007D001285B0B5D948027841788A4227D1B5
:103A80008189C90705D18189890702D4C18989043F
:103A90001DD58189012291438181828902218A4336
:103AA0008281C289244B1340C381C28910231343EE
:103AB000C381CB4C0022E2602261E56A03239D436F
:103AC000E5628478042C00D0194643540270B0BDDE
:103AD0008378C349042B06D10B682024A3430B60D1
:103AE000134B144C05E04B682024A3434B600E4B52
:103AF0000E4CCC600B6142704F4A928852000423F6
:103B00001340CA5809246402A243CA5003220A631C
:103B1000CB6A1343CB6201214902C2890A43C281A5
:103B2000B0BDC046047000406100628661006186DD
:103B30006100128661001186FFDF0000A7488189BD
:103B40000122914381818189022291438181018AED
:103B5000FF2291430182054800210160416081609C
:103B6000016A0722914301627047C046107000400D
:103B7000B0B59A4C2078617888421AD1A089C007E4
:103B800021D1A089800730D4208A00063ED0FFF7DB
:103B9000D5FF2E202749085C40062DD5608AC00637
:103BA0002AD1072020702448418820220A434280DD
:103BB000B0BDA2788A49042A08D1174A0A601A4A75
:103BC0001A4B1B4D07E0FFF7B9FF15E0124A4A6098
:103BD000124A134B134DCD600B614A6107220A63F1
:103BE000CB6A1343CB626070B0BDFFF7A7FF3020F4
:103BF0001049085C40070AD4A1780320042901D0A9
:103C0000014600E00221605400202070B0BD082071
:103C1000FBE7C04604700040219E3C007D00778297
:103C20007D0075817D0062817D0027827D00258178
:103C30007D00128194040020B003002067480178C1
:103C40004278914204D04170818940220A438281A6
:103C50008189C90509D58189644A0A4082810D217B
:103C60000170418AE0229143418270470C0200209A
:103C7000F8B5002200925948057801218C02467857
:103C8000574BB5420DD04570009DDD60C589254379
:103C9000C5818578042D02D111251D6001E0112513
:103CA0005D60C589AD073FD5C5890226B543C5818D
:103CB000C5894026B543C581DD6A0D43DD621D6BB4
:103CC0000D431D63CD07009E2E4300961225475FCE
:103CD0007F252D06009EAE43424D002F07D40727B7
:103CE0003F063E430096009E2E40C82507E00B2766
:103CF0003F063E430096009E2E4089256D003543C9
:103D00000095FF252E04009DB5438678042E02D130
:103D10000526360401E0032676043543009585899F
:103D20008D438581009DDD60C589AD060BD5DD6ABB
:103D30008D43DD62C5894026B543C581C5892026EE
:103D4000B543C581DA60858925421ED0DA60C48911
:103D50004025AC43C4818489234D25408581DC6A9C
:103D60008C43DC628478042C06D1032484701C68A4
:103D70001025AC431C6005E00324C4705C6810256A
:103D8000AC435C608C049C6002708489E40519D5A6
:103D90008478042C04D11C681025AC431C6003E01B
:103DA0005C681025AC435C608489104D254085819A
:103DB000C4894025AC43C481DA60DA6A8A43DA6296
:103DC0000D2202708289D20706D082898A438281BD
:103DD000C18940220A43C281F8BDC0460C020020BE
:103DE000047000400000FFFFFFFB0000FFFE00002A
:103DF000F8B5AA4CA0788000A9A108588047E078BF
:103E00008000ADA10858804720788000B0A10858F4
:103E10008047A089000607D5A08980218843A0811A
:103E2000E54A9088C0070FD1A0782179814207D157
:103E3000E0786179814203D120786178814202D0B3
:103E4000B84800210170F8BD608AC0060CD0618AB4
:103E50001F2001400D2907D0618A01400E2903D09F
:103E6000618A01400F29DFD17D208100638ADB0652
:103E7000A54B04D0658A1F262E400F2E30D1DD6A57
:103E80003F26B543DD620025DD601D615D619D61FA
:103E9000DD611D62258AFF26B5432582258AEDB2A4
:103EA000258201252E069F68B7439F60974E31807B
:103EB0001688A778002F07D00427A77020273E4335
:103EC000168029221A6008E00427E770E127BF0066
:103ED0007C373E43168029225A60E2892A43E281D8
:103EE0005A6B0092009A920F1ED1608A1F22904353
:103EF0006082874802881032F0231A4005889D436B
:103F0000AA1802804288844B13405A1842807F4A84
:103F100011808188814A0A4078328280A078042802
:103F200018D10320A0707FE7009A920F022A14D1C3
:103F3000628A0E2313431122934363821F22D20508
:103F4000009B134093422CD18E480168402291433C
:103F5000016069E70320E07066E701239D07032203
:103F60009607009F3740AF4200D05DE7658A0D2677
:103F70002E431225AE4366821207009D15401E0790
:103F8000B54237D1614A1288AF239B009A4247D08D
:103F900083009A424CD12C22864B9A5C402A3CD218
:103FA00044E02C23834AD35C9B095B005C4DEB5AB5
:103FB000009D2D01ED0E32266E4389193231994252
:103FC00000D931E7524D2B881033F02633402F882B
:103FD000B743FB182B806B884F4E1E400E436E80FC
:103FE0002A21515C3F220A40400150436A884949D6
:103FF000114048E0009D1540444A12885B079D42ED
:1040000028D1AF239B009A4208D0E1234B252D01F4
:10401000AA421CD09B009A421CD1C8310A4617E024
:104020002C22E14B9A5C402A0ED2C8310A4611E09C
:10403000E12189008A420DD12C21DB4B5956002900
:1040400008D54B210A0103E0E1218A0000E09A0033
:104050002E490A802E4D29881031F02319402E88D0
:104060009E43711829802B4B1A4069882A4E0E40B6
:10407000B11869802A21CC4A515C3F220A40400194
:10408000504369881940FCF773FA782800D37820E8
:10409000A988224A0A400243AA80C5E60C020020F1
:1040A000411E0000551C00004D1D0000611E000057
:1040B000551E00004B1E000005220000F91F0000E5
:1040C0000121000025220000192200000F2200001B
:1040D0001D2C0000ED2A00003D320000512C000094
:1040E000B92D0000CD340000713B0000753A00008E
:1040F000D1390000BD350000593600003D3C0000BC
:10410000713C00005D34000004700040120100208A
:104110002C020020FF0F000000F0FFFF00FEFFFF59
:10412000B85701000E0100200248007A40210140EA
:10413000880970476801002010B553490C790223A3
:104140001C4010490A68012803D1002C05D11A43EC
:1041500008E0002C04D19A4304E00420024301E06B
:10416000042082430A6010BD47480079012180077E
:104170000A4600D5022203480068C0B2D040084079
:104180007047C04614D000402B20F049085C07213E
:104190000140042907D801207944097949008F4456
:1041A00003020304020000207047374800798007AB
:1041B000C00F704794040020B0030020B0B515492B
:1041C000CD6B00281BD008242046FDF7D9F979488B
:1041D0008178F7220A4082702046FDF725FA1248BE
:1041E00005402846FDF7C2F92046FDF7EDF91020FD
:1041F000012103F0A5FB2046FDF7C8F9B0BD086812
:104200000822904308600120C0020A6882430A60C5
:10421000B0BDC046002000407D2141430248084017
:10422000024908607047C046FFFF0F003C20004075
:1042300080B515488178CA070CD100F013F80AF050
:10424000A3FF0DF01FF85748007880000449085874
:10425000804780BDFE221140817000F017F880BDBC
:104260001800002010B54F4C207800280BD0FCF728
:10427000B5FE6080044800798007C00FFCF7F2FDAE
:104280001E21E180A08010BDB0030020F8B5454894
:104290000024047000F0A2FC00F0CEFC2F27DF4EBB
:1042A000F057002808D4C0B2402101403022B25C4F
:1042B00003231340591821D007F0E8F93B4841780F
:1042C000FD220A4042704188042291434180FCF75C
:1042D0007DFC37480025294606F0B0F9284605F050
:1042E00069FE34484178EF220A4042700125284691
:1042F00003F044F9A80405F025FAF05D2E27C10764
:1043000007D1F157002904D40222104001D1C8B2CC
:104310001AE00125680405F015FA0DF067F9264842
:104320004178FE220A40427020460CF055FF0720DB
:1043300021460DF019F820460CF0E2FE1F480470EB
:10434000284603F01BF9F05D400618D50BF0A2F9E2
:104350001B480188202291430180002420460AF056
:10436000BBFEFF2021460AF011FF20460AF038FD6F
:104370000124204603F002F9E00405F0E3F92C20C3
:10438000305C032101400F48435C2B20305C400629
:10439000800F0D490A5C7D208000782104F062FEC8
:1043A000F8BDC0463202002094040020F40300202F
:1043B000FF030000180200201C030020100300204F
:1043C000F0020020145701002C590100B0B52C2137
:1043D0009248415C09070F221403002928D5D549CA
:1043E000498AC906090F23D1D34D29881031F022FB
:1043F00011402B88934359182980698821404B220A
:1044000012010A436A802A21415C3F200840FCF7E0
:104410005FF81F4A1F4BFBF73BFFFCF78BF8782830
:1044200000D378207F214902AA880A400243AA804B
:10443000FF2000047C494A6882434A60BD48428AA2
:104440001205120F8378042B07D1042A0ED0022AFA
:104450000ED0012A13D17A4A06E0042A0AD0022A91
:104460000BD0012A0BD1734A0A6108E0724A02E0BC
:10447000384A03E06D4A8A6001E0354A0A60FF3439
:10448000418A2140032212020A434282B0BDC04643
:10449000B81E85EB51B80A40B0B52C20E849085C3D
:1044A0000C2202400F2000030C2A20D1E54A528A38
:1044B000D206120F1BD1A04A13881033F0242340D8
:1044C0001588A543EB181380538803407D242401ED
:1044D0001C4354802A23C95C8906490E782900D3DD
:1044E00078217F235B0294881C4061189180FF2112
:1044F00009044D4A93688B439360D2494B8A1B054C
:104500001B0F8C78042C07D1032B0ED0022B0ED05E
:10451000012B13D14A4B06E0032B0AD0022B0BD000
:10452000012B0BD1434B136108E0444B02E0094BD4
:1045300003E03F4B536001E0054B1360FF304A8AB4
:1045400002400120800210434882B0BD9404002044
:104550009C009E859C004E85B0B52C21B848415CDE
:104560000907890F0F221403002928D0EA49498A34
:10457000C906090F23D1704D29881031F02211404E
:104580002B8893435918298069882140E1229200A1
:104590000A436A802A21415C3F200840FBF798FFCC
:1045A0001F4A204BFBF774FEFBF7C4FF782800D3AB
:1045B00078207F214902AA880A400243AA80FF206E
:1045C000000419490A6882430A60EF48428A1205CA
:1045D000120F8378042B07D1042A0ED0032A0ED0A1
:1045E000012A13D1164A06E0042A0AD0032A0BD066
:1045F000012A0BD10F4A0A6108E00F4A02E00F4A74
:1046000003E00A4A8A6001E0094A4A60FF34418AAD
:104610002140012252020A434282B0BD940400208C
:10462000CDCCCCCCCCCC1140147000409C007B8510
:104630009C00AA859C0084859C002B859C005A8543
:104640009C00348570B53948011F0B68384A134007
:104650000B60816811408160ED494B8ADB065B0F7E
:104660000CD1354B9C88354D25409D801C881034DD
:10467000F0252C401E88AE4334191C800F231B02EA
:104680004C8A1C4003252D02AC4206D18D7804686B
:104690001440042D0ED12D250DE04C8A1C4001251F
:1046A000AD02AC420FD18D7844681440042D06D180
:1046B0002B2505E055256D042C43046003E07B2584
:1046C0002D042C43446004681D4D2C400460046894
:1046D0001C4E34401434046044682C4044604468E8
:1046E0003440143444604D8A1D4001242602B542F2
:1046F00002D04D8A1D420AD18B78042B01D0212390
:1047000000E00D239B04C56815401D43C5600420CF
:104710000870488A3A4A0240052000021018488270
:10472000600309490A6882430A6070BD187000403E
:10473000FFFF00FF0C0200202C020020FFC1000040
:10474000FFFFFF800000FFFF04300040BCB5E14CDC
:10475000A0890125A843A081608AC006400F15D119
:10476000608A1F21884360822C20DB49085C032279
:1047700002402148835C2B20085C4006800F1F49C3
:104780000A5C7D208000782104F06CFC4D490020FB
:10479000086048608860C86008614861228AFF2319
:1047A0009A432282228AD2B222820A6A0192019A12
:1047B000AA4301920222019B934301930423019D8A
:1047C0009D4301950823019D9D4301951023019D63
:1047D0009D4301952023019D9D430195019B0B6203
:1047E000A3780321042B00D00A46A1542070608ACC
:1047F000034901406182BCBD145701002C590100DE
:10480000FFF0000010B501200402204604F0A6FFCE
:10481000204604F0A9FFDE48082101602B22D64B78
:104820009A5C072313409A1E022A00D84160EA4886
:1048300000218181C181018241800170418210BDCE
:10484000940400200C020020B0B51E4A0023D3605F
:10485000E1490C8AE4B20C828C8900280BD008252F
:10486000AC438C8153613A24E443CA4DAD88ED07D3
:104870000ED1A41C0DE00125AC438C811360536064
:104880003A24E443C34DAD88ED0709D12F3409E044
:104890005360156A2540156213610122D20205E0BA
:1048A00013611F34136A234013624022B94B1C88E2
:1048B00014431C804A8AE0239A434A820818012143
:1048C0008170B0BD1070004010B501210B064F4A39
:1048D00014689C43146000249460D4601461546193
:1048E0003E23DB43002801D0946101E054601F3374
:1048F000546A1C405462CE4A138AFF24A343138295
:10490000138ADBB21382538AE024A34353821170CB
:1049100010180421817010BD0C02002078B5C44924
:104920004A8AE0239A434A82384A00239360D3603C
:10493000136153610C8AFF25AC430C820C8AE4B2EC
:104940000C821468009401242504009EAE43009656
:104950000325AD04009EAE4300963E25ED4300289E
:1049600001D0936101E053601F35536A2B405362BD
:104970002306009C9C430094009B136006220A704F
:1049800008180421817078BD0C020020B8B51F49B9
:1049900000228A60CA600A614A610B68009300289D
:1049A0000AD08A614A6A3E239A434A6203229204E9
:1049B000009B134300930CE04A6003229204009B87
:1049C0009343012292049A1800924A6A1F239A4341
:1049D0004A62974A138AFF24A3431382138ADBB2E5
:1049E000138201235C04009D254300951C06009D55
:1049F000A54300955B06009C9C430094009B0B60C4
:104A00000C211170101804218170B8BD0C70004089
:104A10000C020020FEB586494A8A20252A43C0237D
:104A20009A434A823023544AD45C2609E708374027
:104A300001263740294C002803D0002F05D0284FED
:104A400004E0002F08D02A4F07E0264F0297264F98
:104A50000197264F00970AE0264F0297264F0197AD
:104A6000264F009700276762276BAF4327630746EF
:104A700037402168B143C91921602F21575C3F2F6E
:104A80000AD8D65CB10707D10821394004D11021DA
:104A9000394001D12F4002D002996161D65CB10644
:104AA00002D50199E161D65C710703D42E21515CD6
:104AB000490601D5009921625D4909180979012942
:104AC00001D0FDF7D9FC206B1A21084320636163F4
:104AD000FEBDC0460C02002094040020007000407F
:104AE00092006A8A92006E8A02006780F9006781EC
:104AF00092001A8A92001E8A02001780F90017811C
:104B0000BCB50446002001903020F349085C01093F
:104B1000C0080840C007194804D00190002C07D0F5
:104B2000184808E01C300190002C03D0174802E020
:104B3000134800E014480090A100019A14480A505C
:104B40000099002C02D00162202101E0C160012106
:104B5000C26A0A43C2620163354D688AE021884314
:104B600068820C488088C00702D02046FFF752FFB9
:104B7000281981780171BCBD940400200D9E260087
:104B80003D00158A3D00658A3D00108A3D00608A1F
:104B900004700040B0030020B0B52D4D29680224F8
:104BA000A14329602249CA8904239A43CA816C60BF
:104BB0007D214143FF2000068143696301204002BB
:104BC0002968014329600E20214602F0B9FE2868B9
:104BD00020432860B0BDC0460C0200201C4801687C
:104BE0000222914301600121490202688A43026066
:104BF0007047C046B0B50824E143154D2A680A4005
:104C00002A600B4AD3890B40D3816C607D214143DC
:104C100008480840E8630121C8022A6802432A6064
:104C2000102002F08DFE286820432860B0BDC046E9
:104C30000C020020FFFF0F00054801680822914385
:104C400001600121C90202688A4302607047C046C0
:104C500000200040F8B59E4C21786078814207D052
:104C60001820E0706170617B4907890F0CF0A0FC8F
:104C7000207B810752D5FD2108402073217901292D
:104C800008D0002948D11822E270E2895206920C1D
:104C9000628341E0637B102200921343637301231C
:104CA0005D02668B35401F27FF0332013A405219DF
:104CB0005D0377012F40D219B50980272F40D21903
:104CC000F50920272F40D219350908272F40D2197E
:104CD000750A02272F40D219E5897F273D403543C9
:104CE0006E02FF01803737401743EA07D20C3A4380
:104CF000DF0237401743EA019B0213403B43AA00FF
:104D0000402616401E43AA08009B1A4032436B00FF
:104D100004251D4015436583491C2171410613D5A7
:104D2000BF21084020732B200CF000FC01200CF068
:104D3000D1FB617BC80608D4207BC00604D4E07890
:104D40004907890F0CF034FCF8BD002020710922BE
:104D50002270674A1070EF2001406173F8BDC046B1
:104D600080B582B001900091019807F0EFFC002817
:104D700001D0FFE70FE00198016C405C00990870DA
:104D80000199086C401CC217920E82183F239A4367
:104D9000801A0864FFE702B080BD0000FEB54C4FEA
:104DA00038787978884206D07870787B4007810F10
:104DB00014200CF0FDFB3D7BA80777D5FD200540B6
:104DC0003D73F8898006400F424C23D00720B8720B
:104DD000797B06200291084004282ED1D348007D1B
:104DE000FBF776FB0024404B2246FBF7B9FA3C4B1D
:104DF0002246FBF74DFA01900E463C4B2246FBF74C
:104E00003DFB044601983146FBF770FB002C2ED089
:104E1000E82038E00320B872A24801781031017010
:104E20009B498A78202313438B70797B06220A40A2
:104E3000042A1FD019214C011DE0BC48407DFBF71E
:104E400047FB0024254B2246FBF78AFA244B2246D7
:104E5000FBF71EFA01900E46224B2246FBF70EFB93
:104E6000044601983146FBF741FB002C0AD1194B4F
:104E7000184009E06F3C0F21090342880A40224391
:104E8000428013E0FC20134B86490A7810320A70E6
:104E90000340782B00D37823029A520600D50346AC
:104EA0007F2040028A8802409818888068060DD5C5
:104EB000BF2005403D7332200CF038FB01200CF080
:104EC00009FBE14800210170B87A3870FEBDC04688
:104ED00010030020FF010000940400200000244083
:104EE0000000444000806F400000144000006D400E
:104EF0000E01002010B5044604F01AFC002809D069
:104F000013491448012C0AD0022C0BD11249134A20
:104F1000134B09E008480949094A0A4B04E00A4AC8
:104F20000A4B01E00F4A104B104C23606260A160F5
:104F3000E0608020606110BD9B6319270B13004A5D
:104F40008222F00300626F06B2C6500101E27406CD
:104F50000B12004A9B6F19670B02004AB2DE500128
:104F600001E26606B2D2500101E26C0600D00040B8
:104F700010B503221040754B1C689443201818602C
:104F800018680C2290438907090F4018186010BD5B
:104F9000072149066D4A13688B434007000918181A
:104FA0001060704780B507F08DF90AF09DFF80BD55
:104FB00010B52B205D49095C0720084004280AD859
:104FC000784400794000874402080E1B28002448DA
:104FD0000178153904E0002010BD21480178173907
:104FE0004842484110BD0220C0431D4909788A1E2D
:104FF000024050425041C91E022925D3002124E01D
:10500000174801788A1F04208243504250410A46C3
:10501000093A022A1BD300221AE011480178022023
:105020000A46024301230E2A1A4603D00C46113CBD
:10503000624262410C460D3C022C00D3002312292F
:1050400000D05800101810BD0121490005E00122D0
:10505000072901D0510000E00221081810BDC04608
:105060009103002001460120C243CB1E0020934241
:105070000DD31E4A9388DB0709D0491E92889207F8
:10508000D20F914203D10248C1881F2008407047C7
:105090001802002003484088034901400A20484381
:1050A0007047C0462C020020FF0F000080B504F0BE
:1050B00063FBFCF7D7FA04F0EDFAFCF773FA04F09F
:1050C0003DF904F02DFBFBF7D9FCFBF7CFFB01F01A
:1050D00009FC04F067FBFCF7FBFA02F059FC80BD09
:1050E00002488188012008407047C046B003002074
:1050F000014948607047C0462002002080B5FBF798
:10510000DBFB0AF02BFC07F08DF932200749085C25
:10511000800705D4FEF76CFEFFF78AF80BF048F91C
:1051200002F0DEFE04F07CF980BDC046940400204D
:1051300080B504F09DFA80BD07210907034A136872
:105140008B434007400818181060704708D0004093
:10515000411E012906D880000B4940580821014012
:10516000C80870470020704710B5421E012A09D8B0
:105170004A1E9141C9008000034A83580824A34372
:105180000B43835010BDC0460070004010B52D4C3D
:1051900020786178884209D06070608BC10A1E2037
:1051A0000840617B4907890F0CF002FA207B8107D8
:1051B00026D5FD2108402073217903291ED88A00B5
:1051C00001A39A589746C046D9510000DF5100000C
:1051D000EB510000F5510000628BD20901E0A27E84
:1051E000D2081E231340E37008E0A27E1207D20EFD
:1051F000E27003E0627B102313436373491C217147
:10520000410613D5BF21084020732B200CF08EF9E6
:1052100001200CF05FF9617BC80608D4207BC00632
:1052200004D4E0784907890F0CF0C2F910BD0020C2
:1052300020710A222270044A1070EF20014061732D
:1052400010BDC046100300200E01002080B504F000
:105250005FFA0A48016804220A43026030BF04F082
:105260005FFA80BD80B504F053FA04480168042257
:105270009143016030BF04F053FA80BD10ED00E0AF
:1052800082B00190684601700199486C401CC217B9
:10529000920E82183F239A43801A096C884201D1EA
:1052A000FFE70EE0009801994A6C88540199486C18
:1052B000401CC217920E82183F239A43801A4864FA
:1052C000FFE702B070470000B0B584B003A90191B8
:1052D0000870FCF7F9F901460198029101784C0930
:1052E000029A2B23D15CF82529400919D154017861
:1052F00018221140CC08029A2D23D15CA400F3257A
:1053000029400919D154047806210C40029AD15C35
:10531000E400CF2529400919D15403780120034026
:10532000044963208200885CFE242040C018885411
:1053300004B0B0BDD8040020F0B583B002A900913C
:105340000870FCF7C1F90146009801910178CC0979
:10535000019A3123D15CE400F72739400919D1546F
:105360000178402211408C09019B3022995C640134
:10537000DF263140091999540178202319404D093D
:10538000019B2F24195DED00394049191955057805
:10539000019B10210D40195DEF273940491919551E
:1053A0000578019B08210D40195DAD003140491978
:1053B00019550178042319408D08691E8D41019B00
:1053C000195DED017F2631404919195500780221F8
:1053D000084043080199885CFE242040C018885486
:1053E000029B0199885CDB079B0FFD242040C018BD
:1053F000885403B0F0BDF0B583B002A900910870E5
:10540000FCF762F90146009801910178CB09591E19
:105410008B41019A2E25515DDB017F242140C91863
:1054200051550178402211408C09019B2F22995C33
:10543000FE263140091999540178202319404C095E
:10544000019B995C6400FD2631400919995401784B
:10545000102319400C09019B3026995DA700FB24FD
:105460002140C91999550678019B08210E40595DC4
:10547000F700BF263140C91959550578019B042111
:105480000D40995C2D0131404919995403780199D7
:1054900002200340885C5B002040C018885403B0A1
:1054A000F0BD80B582B001A90870FCF70DF900903D
:1054B00001980099087502B080BD10B582B001A9AD
:1054C0000870FCF701F90090019B00993222885C7A
:1054D0001B010F242040C018885402B010BD10B525
:1054E00082B001A90870FCF7EFF80090019B0099C9
:1054F0003422885CDB079B0FFD242040C0188854B1
:1055000002B010BD80B584B003A901910870FCF70A
:10551000DBF8014601980291017832204843029954
:10552000088704B080BDF0B583B002A9009108706F
:10553000FCF7CAF80146009801910178CC09019A5C
:105540003023D15CA501BF2421404919D1540178F1
:10555000402211408D09691E8D41019AD15CED01F7
:105560007F2631404919D1540178202211404D093C
:10557000019A2E23D15C2D01EF2739404919D154CE
:105580000578019A10210D40D15C6E00DF2529407D
:105590008919D154007808210840C008019A3223A3
:1055A000D15C8600FB20014000988919D15406780F
:1055B000019B04210E403122995CB60039408919C3
:1055C00099540378019902200340885C1B0128400C
:1055D000C0188854029B0199885CDB075B0E204051
:1055E000C018885403B0F0BD80B582B001A908701E
:1055F000FCF76AF8009000998868FF221206904331
:10560000886001980206009988681043886002B09B
:1056100080BD80B584B003A901910870FCF754F8EF
:10562000014601980291029A9168FF231B04994355
:10563000916000780204029988681043886004B081
:1056400080BD80B584B003A901910870FCF73CF8D7
:10565000014601980291029A9168FF231B02994327
:10566000916000780202029988681043886004B053
:1056700080BD80B584B003A901910870FCF724F8BF
:10568000014601980291029A9168FF239943916023
:105690000278029988681043886004B080BD80B5A4
:1056A00082B001A90870FCF70FF800900099087B00
:1056B000888101980202009988891043888102B08C
:1056C00080BD80B584B003A901910870FBF7FCFF91
:1056D000014601980291029A517B09029181027858
:1056E000029988891043888104B080BD80B582B05A
:1056F00001A90870FBF7E8FF00900099887BC8813A
:10570000019802020099C8891043C88102B080BD87
:1057100080B584B003A901910870FBF7D5FF01465D
:1057200001980291029AD17B0902D18102780299F3
:10573000C8891043C88104B080BD80B582B001A97A
:105740000870FBF7C1FF00900099087C088201985F
:1057500002020099088A1043088202B080BD80B519
:1057600084B003A901910870FBF7AEFF01460198D0
:105770000291029A517C0902118202780299088AE8
:105780001043088204B080BD80B582B001A90870C2
:10579000FBF79AFF0090019800993522885402B0D7
:1057A00080BD80B582B001A90870FBF78DFF009025
:1057B000019800993622885402B080BDB0B584B0FB
:1057C00003A901910870FBF77FFF01460198029140
:1057D00001788C09029B2C22995CA400F3252940B6
:1057E00009199954047830210C40029B995CCF250B
:1057F00029400919995400780C210840840802991D
:105800002D23C85CFC2528400019C854039B02992D
:10581000885C9B013F242040C018885404B0B0BD70
:10582000B0B584B003A901910870FBF74DFF0146A4
:1058300001980291047880210C40029A2D23D15CBA
:105840007F2529400919D1540178402211408C0943
:10585000029B2E22995CFE25294009199954007853
:105860002021084043090299885C5B00FD24204008
:10587000C018885404B0B0BD80B584B003A90191AC
:105880000870FBF721FF0146019802910078029908
:10589000888304B080BD80B584B003A901910870ED
:1058A000FBF712FF014601980291007802990884E3
:1058B00004B080BD80B582B001A90870FBF704FF79
:1058C000009001980099887702B080BD80B582B0C1
:1058D00001A90870FBF7F8FE0090019800992322B7
:1058E000885402B080BD10B584B003A9019108703E
:1058F000FBF7EAFE014601980291037802992A22F9
:10590000885C3F242340C0242040C018885404B041
:1059100010BD80B582B001A90870FBF7D5FE0090DC
:1059200001980099887502B080BD80B582B001A948
:105930000870FBF7C9FE009001980099C87502B085
:1059400080BD80B582B001A90870FBF7BDFE009054
:10595000019800992422885402B080BD80B582B09D
:1059600001A90870FBF7B0FE00900198009925226C
:10597000885402B080BD80B582B001A90870FBF7E1
:10598000A3FE0090019800992622885402B080BDA1
:1059900080B582B001A90870FBF796FE00900198CF
:1059A00000992722885402B080BD80B582B001A939
:1059B0000870FBF789FE009001980099282288540E
:1059C00002B080BD80B582B001A90870FBF77CFEF3
:1059D0000090019800992922885402B080BD80B5BA
:1059E00082B001A90870FBF76FFE00900198009942
:1059F000487502B080BD80B582B001A90870FBF780
:105A000063FE0090019800993322885402B080BD53
:105A1000F0B583B002A900910870FBF755FE01466E
:105A20000098019101788C09019A2B23D15CE40044
:105A3000E72529400919D1540178202211404C0949
:105A4000019A2E23D15CE500F72421404919D15455
:105A50000178102211400D09019B3222995CFE262B
:105A6000314049199954017808231940CE08711E14
:105A70008E41019B3125595DF6017F2739408919F7
:105A800059550378019904200340885C5B0020404D
:105A9000C018885403B0F0BDB0B584B003A901911B
:105AA0000870FBF711FE0146019802910178CC09BC
:105AB000029A2E23D15CA400FB2529400919D15458
:105AC000047840210C40029A2D23D15CBF25294047
:105AD0000919D154047830210C40029A2B23D15C4F
