:020000040800F2
:10000000E844002099010008A73D00080F2C0008D3
:10001000A53D0008A70A0008654800080000000088
:1000200000000000000000000000000001010008C6
:10003000170D0008000000004501000819440008E1
:10004000B3010008B3010008B3010008B3010008C0
:10005000B3010008B3010008B3010008B3010008B0
:10006000B3010008B3010008B3010008B3010008A0
:10007000B3010008B3010008B3010008B301000890
:10008000B3010008B3010008B3010008B301000880
:10009000B3010008B3010008B3010008830D000894
:1000A000B3010008B3010008B3010008B301000860
:1000B000B3010008B3010008C5440008B3010008FB
:1000C000B3010008B3010008B3010008B301000840
:1000D000B3010008B3010008B3010008B301000830
:1000E000650D0008B3010008B3010008DFF80CD06B
:1000F00000F020FC0048004731570008E844002089
:10010000224B19680868B0E8F00F80F30988BFF344
:100110006F8F4FF0000080F311884EF00D0E704786
:100120000000000006480068006880F3088862B696
:1001300061B6BFF34F8FBFF36F8F00DF00BF00BF0B
:1001400008ED00E0EFF30980BFF36F8F0F4B1A68E3
:1001500020E9F00F106008B54FF0500080F31188CF
:10016000BFF34F8FBFF36F8F06F08AFD4FF0000093
:1001700080F31188BDE8084019680868B0E8F00FFE
:1001800080F30988BFF36F8F704700BF2000002005
:10019000EFF3058070470000064880470648004797
:1001A000FEE7FEE7FEE7FEE7FEE7FEE7FEE7FEE727
:1001B000FEE7FEE7C1440008ED0000082DE9F05F0E
:1001C0000546002092469B468846064681464024C6
:1001D0001BE0284641464746224600F020F8534699
:1001E0005A46C01A914110D311461846224600F0D3
:1001F0007DFA2D1A67EB01084F46224601200021A7
:1002000000F074FA17EB00094E41201EA4F101041E
:10021000DFDC484631462A464346BDE8F09F202AA7
:1002200004DB203A21FA02F00021704721FA02F3A0
:10023000D040C2F1200291400843194670470000A7
:100240000649074A0868504343F2390210440860DF
:1002500040087047014908607047000044010020D1
:100260006D4EC64140EA01039B0703D009E008C96F
:10027000121F08C0042AFAD203E011F8013B00F86B
:10028000013B521EF9D27047D2B201E000F8012BB7
:10029000491EFBD270470022F6E710B513460A4606
:1002A00004461946FFF7F0FF204610BD421C10F827
:1002B000011B0029FBD1801A7047034611F8012B5E
:1002C00000F8012B002AF9D118467047F0B480EAF3
:1002D0000102D40F4200B2EB410F02D2024608469F
:1002E00011464A0042D0C30DDDB2C1F3C752AD1A68
:1002F000202D35DAC1F3160141F4000204B1524257
:10030000C5F1200602FA06F12A411044B3EBD05F92
:1003100023D0C4B1012DA0EBC35009DCF0BC4FF0D9
:10032000004202EAC352DBB200F5000000F008BA56
:10033000400000F1807000EBC350A0F1807040EAF3
:10034000D170490009E0490841EAC071A0EBC350EF
:1003500000F50000400800EBC350F0BC00F0E7B926
:100360006142012202EB4101001BF6E7F0BC70473D
:1003700081F00041AAE780F00040A7E7420005D0E5
:10038000C0F3C7525242914201DC0020704700EB9B
:10039000C15070472DE9FE4F804681EA0300C00F2F
:1003A0000C46009021F0004123F00045B8EB02001C
:1003B000A94105D24046214690461C460B460246BE
:1003C00023F00040104347D0270DC7F30A00C3F3C2
:1003D0000A510290401A019040286BDAC3F31300CF
:1003E00040F4801B0098924620B10023D2EB030A10
:1003F00063EB0B0B01985946C0F14002504600F0E8
:1004000075F906460D4650465946019A00F07DF9A9
:1004100010EB08006141002487EA115284EAE77377
:100420001A4340D0009A62B3019A012A4FEA075258
:1004300015DC001B61EB02014FF0004202EA07529B
:10044000CDE90042001C41F5801132462B4600F0F8
:10045000B4F903B0BDE8F08F40462146F9E7001B30
:1004600061EB0201001C41F5801300185B4120186C
:10047000A2F5001747EB030140EAD570B6196D41AC
:1004800011E06D084FEA360645EAC0754FEA07529B
:10049000001B61EB0201001C41F5801149084FEA85
:1004A00030000019514132462B4603B0BDE8F04FF1
:1004B00000F074B90098012240000023D0EB020242
:1004C00063EBE073009821464FEAE074B8EB00005C
:1004D00061EB0401E9E783F000435BE781F0004151
:1004E00058E72DE9FE4F81EA030404F0004421F0AF
:1004F000004100944FF0000B23F0004350EA010448
:100500005ED052EA03045BD0C3F30A54C1F30A5528
:100510002C44A4F2F3340194A0FB0254C1F3130160
:1005200041F48011C3F3130343F4801301FB02442D
:1005300000FB034E840A970A44EA815447EA835732
:10054000A4FB076802958D0A05FB07854FEA932CEB
:1005500004FB0C542705029D4FEA065847EA16375C
:10056000B5EB08056EEB070C870E920E47EA811774
:1005700042EA8312A7FB0201B6EB0B0164EB000415
:100580002B0D43EA0C335E1844EB1C50DA465146FF
:10059000E7FB0201C5F313044FEA0B3343EA14539C
:1005A0004FEA0432019C43EA0603A4F10C040294CE
:1005B000009CCDE900B400F000F903B0BDE8F08F75
:1005C00000200146F9E770B521F0004303430CD049
:1005D000C1F30A550024D5EB040564EB0403D617D8
:1005E000AD1AB34102DB0020014670BD201841EB7B
:1005F000025170BDC10F80EAE0700844CA0796231B
:10060000002100F09DB896230022114600F098B812
:100610000EB5C10F80EAE0700844CA07002140F21D
:1006200033438DE80E000A460B4600F0C6F803B0CF
:1006300000BD20F00040C10DC0F3160040F40000E2
:100640007F2901DA00207047962903DCC1F1960169
:10065000C840704796398840704770B5C1F30A5258
:1006600001F000450024C1F3130140F2FF3341F4CF
:1006700080119A4201DA002070BD40F233439A4261
:10068000A2F2334203DC5242FFF7C9FD00E0904082
:100690002C43F1D0404270BD002801DBC0F1004086
:1006A000002901DBC1F1004181427047002801DBD4
:1006B000C0F10040002901DBC1F1004188427047D0
:1006C00030B50B46014600202022012409E021FA22
:1006D00002F59D4205D303FA02F5491B04FA02F51F
:1006E0002844151EA2F10102F1DC30BD202A04DBF2
:1006F000203A00FA02F1002070479140C2F1200335
:1007000020FA03F3194390407047202A06DBCB17E9
:10071000203A41FA02F043EAE07306E041FA02F3BC
:10072000D040C2F120029140084319467047002989
:10073000A8BF7047401C490008BF20F00100704767
:1007400010B4B0FA80FC00FA0CF050EA010404BFC7
:1007500010BC704749B1CCF1200421FA04F411FA1D
:100760000CF118BF012121430843A3EB0C01CB1D61
:100770004FEA00614FEA102042BF002010BC7047D2
:1007800000EBC35010440029A4BF10BC7047401CAC
:10079000490008BF20F0010010BC704710B5141EBE
:1007A00073F1000408DA401C41F1000192185B412A
:1007B0001A4301D120F0010010BD2DE9F04D924601
:1007C0009B4611B1B1FA81F202E0B0FA80F2203218
:1007D0009046FFF78BFF04460F4640EA0A0041EAC5
:1007E0000B0153465A46084313D0114653EA010001
:1007F00019D0C8F140025046FFF711FD05460E46DC
:10080000504659464246FFF771FF084305D0012084
:1008100004E020463946BDE8F08D0020054346EA55
:10082000E0762C4337430A986305E40AA0EB0800FE
:100830000022FD0A44EA47540A3002D5002001464E
:10084000E9E7010510196941DDE908450019694129
:10085000BDE8F04DA2E72DE9F04D81EA030404F074
:10086000004B21F0004514464FF0000A23F00041F0
:1008700050EA050220D054EA01021DD0C5F30A5700
:100880000246C5F31303C1F31300C1F30A5640F443
:10089000801543F48013A7EB0608101BD64608F218
:1008A000FD3873EB050002D308F1010801E092184E
:1008B0005B41B8F1000F03DA00200146BDE8F08D7E
:1008C00000204FF48011064684460EE0171B73EBA0
:1008D000050705D3121B63EB050306434CEA010C25
:1008E00049084FEA300092185B4150EA0107EDD108
:1008F00052EA030012D082EA040083EA05010843A9
:1009000005D0101BAB4106D20122002306E00022D5
:100910004FF0004302E06FF0010253101AEB0600A3
:100920004CEB085110EB0A0041EB0B01BDE8F04D18
:10093000FFF734BF064C074D06E0E06840F00103C6
:1009400094E8070098471034AC42F6D3FFF7D2FB87
:10095000DC850008FC8500082DE9F04D00231A46CF
:100960001B1A8A4103DB00200146BDE8F08DC1F36C
:100970000A52C1F3130141F480154FF0000BD10767
:1009800002D100186D41521E0027044640F2FF11AB
:10099000384601EB620A3E468046024600204FF48C
:1009A0008011FFF73CFCC2197141BB1846EB0100F6
:1009B000B4EB030C75EB000C04D3E41A65EB0005F3
:1009C00017460E46241908F101006D41804634286F
:1009D000E3DDF91946EB0600091BA84103D24FF0ED
:1009E000FF32134601E0002213461BEB070046EBE3
:1009F0000A51BDE8F04DFFF7D1BE70B58C1810F864
:100A0000015B15F0070301D110F8013B2A1106D153
:100A100010F8012B03E010F8016B01F8016B5B1E6D
:100A2000F9D12B0705D40023521E0DD401F8013B48
:100A3000FAE710F8013BCB1A921C03E013F8015BB4
:100A400001F8015B521EF9D5A142D8D3002070BD38
:100A500070B5044600688168C943C90717D1816829
:100A600021F00101816000F0FDFB05460AE000BFB6
:100A700000F0F8FB401B022804D920688068C043BE
:100A8000C00706D020688068C043C007F0D00020AF
:100A900070BDA06A40F01000A062E06A40F0010062
:100AA000E062012070BDFEE770B598B004461C21DD
:100AB0006846FFF7F0FB1C2107A8FFF7ECFB1C21A1
:100AC0000EA8FFF7E8FBC4F307404FF4FA6568434C
:100AD000FF2590FBF5F06023CDE90030C4F3072239
:100AE0004FF4FA60424392FBF5F0E6B20224002193
:100AF00002940491CDE907304FF4FA60464396FB27
:100B0000F5F009940B91CDE90F04164C12910E9358
:100B10000821206801F080FF0021206801F07CFF9F
:100B20000421206801F078FF08226946206801F05E
:100B30007CFE002207A9206801F077FE04220EA99E
:100B4000206801F072FE0821206801F017FF0021E3
:100B5000206801F013FF0421206801F00FFF18B096
:100B600070BD0000B0000020002403F04BF8064DDB
:100B70004FF47A762046FFF797FF601920F07F4404
:100B8000304605F035FEF5E7400D030010B586B0A0
:100B900006F06EF801A9684600F040F8044606F039
:100BA000CDFE3CB100232822194608A004F056FAD5
:100BB00006B010BDDDE9003207A102A803F064FE13
:100BC00000232822194602A8F0E70000657272206F
:100BD00020202020200000002564432C25642525AA
:100BE00000000000012000F00DB8000010B5022147
:100BF000034800F02DFB012800D0002010BD0000AC
:100C000000080140044B08B1012200E0002202214B
:100C1000184600F022BB0000000801402DE9F05FFB
:100C200082468B460020FFF7EDFF142004F0D4FD30
:100C3000012202211C4800F010FB3C2005F00AFCB8
:100C4000FFF7D4FF4FF0FF3958BB4FF47A742146B9
:100C5000012000F04EF820BB2146002000F049F8AA
:100C6000F8B900F023F8C5B200F020F800F0FF0852
:100C700000F01CF8C4B200F019F8C7B200F016F882
:100C8000C6B20120FFF7BEFF05EB08002044384440
:100C9000B04206D1CAF800500020CBF80040BDE8B1
:100CA000F09F4846FBE70000000801402DE9F041B5
:100CB00000242546671E4FF47A763146012000F065
:100CC00018F870B9282005F0C5FB6400FFF78EFF07
:100CD000012801D144F001043146002000F009F858
:100CE00010B13846BDE8F0816D1C082DE5DB2046CB
:100CF000F8E770B50C46054608E0FFF777FFA84215
:100D000001D1002070BD012005F0A4FB641EF4D2C7
:100D10004FF0FF3070BD7047F8B50746002004461D
:100D20000D4E0E4D009007E056F8240000236A4651
:100D3000394606F07DFA641C68688442F4DB00984A
:100D4000002807D006494FF080500860BFF34F8F4E
:100D5000BFF36F8FF8BD0000083E0020B8000020F0
:100D600004ED00E010B54FF4806000F075F94FF429
:100D7000006000F071F9BDE810404FF4805000F0C1
:100D80006BB9202000F068B972B6FEE7002003F0CE
:100D9000D9B9000002484FF0FF31806806F054BB1B
:100DA000000000200148006970470000B8000020E2
:100DB0000148406870470000A00000200148C0685A
:100DC00070470000D8000020F8B50024009490F887
:100DD00024202546012A12D0012280F824204A68C6
:100DE0001F23072A0DD20668776B521E02EB820280
:100DF00093409F430B6893401F43776319E00220A1
:100E0000F8BD06680D2A0AD2376BD21F02EB8202A8
:100E100093409F430B6893401F43376309E0F76A91
:100E20000D3A02EB820293409F430B6893401F43AD
:100E3000F7620A68072306680A2A0AD3F7680A3A9B
:100E400002EB420293409F438B6893401F43F7603D
:100E500008E0376902EB420293409F438B6893405E
:100E60001F4337610A68102A01D0112A20D1124B82
:100E700002689A4217D193681B0219D4936843F40D
:100E8000000393600968102912D10C490C4A0968C3
:100E9000B1FBF2F101EB8101490000E0491E009134
:100EA0000029FBD104E0816A41F020018162012424
:100EB00080F824502046F8BD002401401C0000208A
:100EC00040420F002DE9F0414FF0000704003D467D
:100ED0007ED0A06A002628B9E66284F82460204605
:100EE00000F07EF82046FFF7B3FDA16AC90600D4E2
:100EF00020B1A06A40F01000A06269E0A16A21F46C
:100F0000885141F00201A1626268E169237B0A43D2
:100F100047EA43010A43A1684FF48077B94209D0F8
:100F2000012907D05FF0000194F814C0BCF1010F53
:100F300002D00AE03946F7E7F3B1A36A43F0200391
:100F4000A362E36A43F00103E3622368D3F804C0B9
:100F50002CF4694C4CEA010CC3F804C021688B687E
:100F6000DFF870C003EA0C0313438B60A168B94239
:100F70000BD0012909D00CE0DFF85CC0A3690CEBB1
:100F800043330B4343F40061DFE7218A0D05A5F5E8
:100F900080152168CB6A23F470032B43CB62216850
:100FA00089680E4B1940914208D1E662A16A21F08E
:100FB000020141F00101A162BDE8F081A06A20F0C8
:100FC000020040F01000A062E06A40F00100E06220
:100FD0000120F1E7FDF7E1FF00E0FFFFFE0E1FFF3C
:100FE00000B585B000210091019102910391006844
:100FF0000E49884218D10E48816941F4007181611F
:10100000816901F400710491816941F004018161F9
:101010008069694600F004000490082000900320D5
:101020000190044800F024F805B000BD0024014000
:101030000010024000080140202807D0B0F5806F62
:1010400006D0B0F5805F05D103F06EB902F0D8B9D3
:1010500002F0DAB870470000044910B50A6802428D
:1010600002D00860FFF7E8FF10BD00001404014043
:101070002DE9F84FDFF8B8910024A9F1040B2346BD
:101080000F2709F1040AABF1040EC9E00125A540C0
:101090002A40AA427DD1674ED1F804C0ACEB0608C5
:1010A000B44532D014DCBCF1030F3AD009DCBCF1FA
:1010B000000F2AD0BCF1010F1CD0BCF1020F31D1BE
:1010C0001DE0BCF1110F17D0BCF1120F2AD119E0AD
:1010D000B8F5881F19D006DCB8F5803F15D0B8F5F3
:1010E000801F1FD111E0B8F5001F0ED0B8F5041F06
:1010F00018D10AE0CB6815E0CB681B1D12E0CB6865
:1011000008330FE0CB680C330CE08B682BB1012B5C
:101110004FF0080303D0456104E0042302E00561B9
:1011200000E00023FF2A01D8064601E000F1040692
:101130004FEA840501D9A5F12005D6F8008007FA09
:1011400005FC28EA0C0803FA05F548EA0508C6F884
:1011500000804D68ED0062D5374DAE6946F001065E
:10116000AE61AD6924F0030605F001050095334D2D
:1011700006EB050CDCF80850A607360F07FA06F850
:1011800025EA0805DFF8B880404503D14FF0000894
:1011900017E044E0DFF8AC80404502D14FF0010891
:1011A0000FE0DFF8A480404502D14FF0020808E0CC
:1011B000DFF89880404502D14FF0030801E04FF07E
:1011C000040808FA06F848EA0508CCF808804D68D3
:1011D000D9F80060ED024D4601D5164300E0964374
:1011E0002E604D68DAF80060AD02554601D5164311
:1011F00000E096432E604D68DBF80060AD035D466D
:1012000001D5164300E096432E604D68DEF800607D
:10121000ED03754601D5164300E096432E60641C2D
:101220000D682A46E5407FF431AFBDE8F88F000035
:1012300008040140000011100010024000000140AD
:1012400000080140000C0140001001400014014062
:101250008068084000D0012070470AB101617047E2
:101260000904FBE701488068704700001000002077
:1012700070B5040025D094F83D00002520B984F80D
:101280003C50204600F00EFB242084F83D002068EE
:10129000016821F0010101602068016841F400410A
:1012A00001602068016821F40041016000F0A0FDA8
:1012B0004D4A6168914201D84C4900E04C4988424E
:1012C00001D2012070BD4B492368B0FBF1F15E688B
:1012D00026F03F060E435E606368934206D94FF4E2
:1012E000967359434FF47A73B1FBF3F12368491CA9
:1012F0001E6A26F03F06314319626168914210D898
:101300004900401EB0FBF1F2521CC2F30B02042A4A
:1013100001D2042022E0B0FBF1F0401CC0F30B002E
:101320001CE0A268F2B301EBC10303EB0116431EFC
:10133000B3FBF6F35B1C43F480431B0549D092B327
:1013400001EBC10202EB0111401EB0FBF1F0401CA9
:10135000C0F30B0040F4804040F400402168CA69AB
:101360004CF6FF739A431043C861D4E90710014358
:101370002068026822F0C00211430160D4E9030131
:1013800001432068826848F2FF339A431143816029
:10139000D4E9050108432168CA6822F0FF0210431E
:1013A000C86001E00EE016E02068016841F001012C
:1013B00001602564202084F83D00256384F83E50B8
:1013C000002070BD01EB4106431EB3FBF6F35B1C2E
:1013D000B3E70120C2E701EB4101401EB0FBF1F091
:1013E000401CC0F30B00B7E7A086010080841E00FC
:1013F00000093D0040420F002DE9F84F1F4690467E
:101400008A460446DDF82890FFF72CFF054694F83D
:101410003D0020287FD11923012240492046009514
:1014200001F05AFD002876D194F83C00012872D0D2
:10143000012084F83C0020680168C90703D10168D5
:1014400041F0010101602068016821F40061016040
:10145000212084F83D00102084F83E0000262664F8
:10146000C4F824806785608D20852D48E0622B4676
:101470004A465146204601F0E3FB90B92068416995
:101480008069009036E02A464946204601F002FE77
:1014900050B1206C042804D12068016841F4007127
:1014A00001600120BDE8F88F606A2168007808615A
:1014B000606A401C6062618D491E6185218D491EF4
:1014C00089B2218522685369DB435B070BD451B194
:1014D00000781061606A401C6062608D401E60850B
:1014E000208D401E20852A464946204601F0C8FC32
:1014F0000028CED1208D0028C5D154F83D0B0168BD
:1015000041F400710160202004F81E09E677667737
:101510000020C7E7FFE70220C4E700000200100038
:101520000000FFFF2DE9FF4F83B00025DDE91079B2
:101530009A4693460446DDF848800095FFF792FEF0
:10154000064694F83D0020287CD1192301228549C4
:101550002046009601F0C0FC0028F5D194F83C002C
:1015600001286FD0012084F83C0020680168C90779
:1015700003D1016841F0010101602068016821F494
:1015800000610160222084F83D00402084F83E0084
:1015900025646762A4F82A90608D20857248E06215
:1015A000CDE9008653465A462046049901F096FB41
:1015B00000287DD1208DDFF8B491202768B1012863
:1015C00014D00228206801681ED041F480610160B7
:1015D0002068416980690090B6E0206841698169AE
:1015E0000091016841F400710160ADE0206801687C
:1015F00021F48061016072B62068416981690091BF
:10160000016841F400710AE041F40061016072B6C2
:101610002068416981690091016821F4806101605D
:1016200062B691E0032868D801280CD0022843460E
:101630004FF000024946204600960FD001F04CFCC6
:10164000B0BB10E08BE032464146204601F0EAFC98
:1016500070BB20680069616A08706CE001F03CFCB6
:1016600030BB72B634E02068016821F4806101600B
:1016700072B620680069616A0870606A401C606226
:10168000208D401E2085608D401E6085384846F2C2
:10169000A8110068B0FBF1F0C0EBC00000EB8000C7
:1016A0000090401E009008D020684069C04300E0D0
:1016B00029E040070CD50098F3E744F8305F6773E2
:1016C000A573206940F02000206162B625731AE0FE
:1016D0002068016841F40071016020680069616A56
:1016E0000870606A401C6062218D491E2185618DF1
:1016F000491E618562B621681BE03246414620469C
:1017000001F090FC18B1012007B0BDE8F08F20680F
:101710000069616A0870606A401C6062218D491E20
:101720002185618D491E618521684A69D24352072E
:101730000AD409690170606A401C6062208D401EF5
:101740002085608D401E6085208D00287FF46AAF63
:1017500084F83D7084F83E5084F83C50D4E7022071
:10176000D2E70000020010000000FFFF04000100AB
:101770001C0000202DE9FF4F83B09A46DDE9119748
:1017800093460446DDF84080FFF76CFD054694F86B
:101790003D0020287FD11923012240492046009591
:1017A00001F09AFB002876D194F83C00012872D011
:1017B000012084F83C0020680168C90703D1016852
:1017C00041F0010101602068016821F400610160BD
:1017D000212084F83D00402084F83E000026266445
:1017E000C4F82480A4F82A90608D20852C48E062FB
:1017F000CDE9007553465A462046049901F0ECFAAB
:1018000070B930E02A463946204601F043FC58B111
:10181000206C042804D12068016841F40071016043
:10182000012007B0BDE8F08F606A21680078086188
:10183000606A401C6062218D491E89B22185628DDB
:10184000521E628522685369DB435B070BD469B182
:1018500000781061606A401C6062208D401E208507
:10186000608D401E6085208D0028CBD12A463946E8
:10187000204601F005FB0028CAD154F83D0B016851
:1018800041F400710160202004F81E09E6776677B4
:101890000020C6E7FFE70220C3E7000002001000B7
:1018A0000000FFFF10B586B0002100910191029168
:1018B000039100680F4988421AD10F4CA06940F08B
:1018C0000800A061A069694600F008000490C020EB
:1018D000009012200190032003900848FFF7C8FBF6
:1018E000E06940F40010E061E06900F40010049049
:1018F00006B010BD0054004000100240000C014032
:10190000024881680278114481607047100000200D
:10191000074810B5016841F010010160032000F094
:10192000A7F80F2000F006F800F050F8002010BDD6
:101930000020024030B505461F4887B0C16941F01C
:101940000401C161C06906A900F00400009001A86B
:1019500000F02EFA0498B0B100F04AFA400017499E
:10196000174AB0FBF1F11748491E0260416040F28E
:10197000E7320021C0E903218160816100F02EFD82
:10198000040003D015E000F033FAE8E70D4800F05A
:1019900087FD04000DD11E2000F03CF8102D07D269
:1019A000002229461E2000F043F80748056000E0A9
:1019B000012407B0204630BD0010024040420F0015
:1019C00000080040040B0020140000200F4808B558
:1019D000816941F001018161816901F0010100919A
:1019E000C16941F08051C161C069002200F080509E
:1019F00000900F21901E00F01BF80548416821F06F
:101A0000E06141F00071416008BD0000001002403B
:101A100000000140002809DB00F01F020121914075
:101A20004009800000F1E020C0F80011704700007C
:101A3000F0B40E4B1B680C46C3F30223C3F1070539
:101A4000042D00D90425191D072901D2002300E027
:101A5000DB1E012606FA05F1491E214099409E40F1
:101A6000761E16403143F0BC02F022BF0CED00E0C0
:101A7000064900F0070208684FF6FF03184040EAE5
:101A80000220034A10430860704700000CED00E09C
:101A90000000FA052DE9F04186B0040004D094F866
:101AA000A902002520B108E0012006B0BDE8F081C0
:101AB00084F8A852204600F05BF8032084F8A902BD
:101AC000206802F0C6FE04F1100114228846684620
:101AD000FEF7C8FB94E80F0002F0AEFE0227D0BB71
:101AE0000021206802F0BCFE002001260EE000BFAD
:101AF00000EB800104EBC10181F8296001F8280F97
:101B0000401CCD700D614D61C0B28D616168814234
:101B1000EED8002012E000BF00EB800104EBC10111
:101B200081F8695181F8680181F86B51C1F87851E9
:101B3000C1F87C51401CC0B2C1F88051616881423B
:101B4000EAD8142241466846FEF78CFB94E80F0061
:101B500002F076FE10B184F8A972A5E784F824504B
:101B600084F8A962206802F069FE00209DE7000069
:101B700008B500680649884208D10648C16941F4A1
:101B80000001C161C06900F40000009008BD0000C0
:101B9000005C0040001002402DE9F8430546007843
:101BA000354CC00754D0E0690026C00008D4E06975
:101BB00040F08050E061E069012600F08050009024
:101BC0002E480168C90512D40168804641F480712D
:101BD0000160FFF747FB074605E000BFFFF742FB48
:101BE000C01B642823D8D8F80000C005F6D5206AA9
:101BF00010F4407021D0A98801F4407181421CD0BA
:101C0000206A1F49012220F440700A6000220A6005
:101C10002062C00711D0FFF725FB074641F2883844
:101C200008E000BFFFF71EFBC11B414502D903209E
:101C3000BDE8F883206A8007F4D5206A696820F43B
:101C40004070084320621EB1E06920F08050E061DE
:101C50002878800705D56068A96820F440400843CB
:101C600060602878C00605D56068E96820F48000C7
:101C7000084360600020DBE7001002400070004075
:101C8000400442422DE9F0470F46050061D0434E23
:101C9000306800F00700B84209D2306820F0070031
:101CA00038433060306800F00700B84251D12868EE
:101CB0003B4C810712D5400703D5606840F4E060D3
:101CC00060602878000703D5606840F46050606069
:101CD0006068A96820F0F000084360602878C007B9
:101CE00028D06868012810D02168022810D0890700
:101CF00000292EDA616821F0030101436160FFF7DA
:101D0000B1FA804641F288390DE021688903EFE796
:101D10008901EDE7FFF7A6FAA0EB0801494502D9D2
:101D20000320BDE8F0876068696800F00C00B0EB44
:101D3000810FEFD1306800F00700B8420BD930684E
:101D400020F0070038433060306800F00700B842E8
:101D500001D00120E5E72878400705D56068E968EB
:101D600020F4E060084360602878000706D56068CA
:101D7000296920F4605040EAC100606000F058F822
:101D80006168084AC1F30311515CC8400649086004
:101D900006480068FFF7CEFD0020C2E700200240A1
:101DA000001002405A7B00081C0000201400002094
:101DB0000F2202600C4A536803F003034360536828
:101DC00003F0F0038360536803F4E063C360526878
:101DD0004FF4E06303EAD20202610448006800F0B5
:101DE0000700086070470000001002400020024019
:101DF0000448054900684968044AC1F30221515C5E
:101E0000C84070471C000020001002406A7B000898
:101E10000448054900684968044AC1F3C221515C7D
:101E2000C84070471C000020001002406A7B000878
:101E30000E4A51680E4801F00C03042B11D0082BF8
:101E40000FD10C48C1F38343C903C05C0AD5516864
:101E5000084AC1F34041921E515C054A5043B0FB11
:101E6000F1F07047044948437047000000100240F9
:101E700000127A004A7B000800093D002DE9F84F66
:101E8000040070D02078C04DC00749D06868C0F306
:101E90008100012807D06868C0F38100022809D1B9
:101EA0006868C00306D52868800339D560680028B3
:101EB000E7D035E06068B0F5803F0BD010B1B0F5E9
:101EC000A02F11D0286820F480302860286820F4E2
:101ED000802002E0286840F480302860606890B17B
:101EE000FFF7C0F906460AE0286840F48020286021
:101EF000F0E700BFFFF7B6F9801B642873D82868A5
:101F00008003F7D50CE0FFF7ADF9064605E000BF0A
:101F1000FFF7A8F9801B6428F0D828688003F7D45D
:101F200020789A4E80074FF001094FF0000839D50C
:101F3000686810F00C0F07D06868C0F381000228B1
:101F400009D16868C00306D42868800714D52069C1
:101F5000012808D110E02069B0B1C6F80090FFF761
:101F600081F9074605E00AE1FFF77CF9C01B02286A
:101F7000C4D828688007F7D52868616920F0F80080
:101F800040EAC10028600DE0C6F80080FFF76AF95A
:101F9000074604E0FFF766F9C01B022823D828682B
:101FA0008007F7D4207800072CD57948A169D9B1EA
:101FB000C0F80090FFF756F9074604E0FFF752F922
:101FC000C01B02280FD8686A8007F7D571484FF404
:101FD000FA510068B0FBF1F0009000BF0098411E7C
:101FE0000091FAD20EE080E0C0F80080FFF73AF9E5
:101FF000074604E0FFF736F9C01B022875D8686A67
:102000008007F7D42078400760D5E8690027C00032
:1020100008D4E86940F08050E861E869012700F0E1
:10202000805000905C480168C90513D4016883465C
:1020300041F480710160FFF715F9824606E000BFA8
:10204000FFF710F9A0EB0A0064284ED8DBF8000077
:10205000C005F5D5E06801280AD008B1052813D0DD
:10206000286A20F001002862286A20F0040002E0BB
:10207000286A40F001002862E06841F2883B98B18C
:10208000FFF7F0F882460BE0286A40F0040028626F
:10209000EEE700BFFFF7E6F8A0EB0A0159455AD872
:1020A000286A8007F6D50CE0FFF7DCF8824605E0E9
:1020B000FFF7D8F8A0EB0A0159454CD8286A8007E9
:1020C000F6D41FB1E86920F08050E861E06988B378
:1020D0006968C1F38101022944D00228C6F86080F2
:1020E00004D0FFF7BFF8044638E034E0FFF7BAF851
:1020F000074604E0FFF7B6F8C01B02282BD8286873
:102100008001F7D4206AB0F5803F05D16868A168E6
:1021100020F4003008436860D4E908010843696886
:1021200021F4741108436860C6F86090FFF79AF8CC
:10213000044606E025E000BFFFF794F8001B0228E4
:1021400009D828688001F7D51BE000BFFFF78AF89F
:10215000001B022802D90320BDE8F88F28688001FF
:10216000F4D40EE00128F7D06868226A00F48031C8
:10217000914204D1616A00F47010884201D00120BC
:10218000EAE70020E8E700000010024000004242B9
:10219000800442421C0000200070004070B5040022
:1021A00009D0606A002540B125616561A56294F897
:1021B000510040B10CE0012070BD6068B0F5827F35
:1021C000F4D0E561F2E784F85050204600F040F882
:1021D000022084F851002068016821F0400101606C
:1021E000A088218900F4827001F404410843A18988
:1021F00001F400610843217C01F002010843217DC4
:1022000001F001010843218B01F400710843217F93
:1022100001F03801084394F8201001F080010843D0
:10222000218D01F40051084321680860A069042150
:1022300001EA1040216848602068C16921F400610A
:10224000C1616565012084F85100002070BD000067
:1022500030B585B000240094019402940394006882
:102260001449884223D11448816941F48051816125
:10227000816901F480510491816941F00401816117
:1022800080690E4D00F004000490A0200090022010
:1022900001900320039069462846FEF7E9FE40209E
:1022A000CDE90004694628460294FEF7E1FE05B038
:1022B00030BD000000300140001002400008014025
:1022C0007047704710B590F83C20012A22D00122B7
:1022D00080F83C20CA688C6822F4407222434C6823
:1022E00022F4806222430C6822F4006222430C69CB
:1022F00022F4805222434C6922F400522243C969DD
:10230000002322F480420A4301684A6480F83C308A
:10231000002010BD022010BD70B590F83C20012AAD
:1023200026D0012480F83C40022280F83D2003683A
:102330005A689D6822F070060A6832435A600D4B55
:1023400002689A4208D0B2F1804F05D00A4B9A42F7
:1023500002D00A4B9A4204D1496825F08003194300
:10236000916080F83D40002180F83C10084670BD27
:10237000022070BD002C0140000400400008004015
:1023800010B50446022084F83D002068016A41F23D
:102390001112114207D1016A9210114203D1016852
:1023A00021F001010160204600F046F8002084F889
:1023B000460084F83E0084F83F0084F8400084F82A
:1023C000410084F8420084F8430084F8440084F813
:1023D000450084F83D0084F83C0010BD10B50400B1
:1023E00003D094F83D0010B107E0012010BD00209B
:1023F00084F83C00204600F035F8022084F83D00C7
:10240000211D206802F064F8012084F8460084F859
:102410003E0084F83F0084F8400084F8410084F8CE
:10242000420084F8430084F8440084F8450084F8AE
:102430003D00002010BD0000084A01680848914294
:1024400004D1816921F4006181617047B1F1804F4D
:10245000FBD1C16921F00101C1617047002C01402D
:102460000010024008B50C4A01680C48914207D19F
:10247000816941F400618161806900F4006009E0D4
:10248000B1F1804F07D1C16941F00101C161C0695B
:1024900000F00100009008BD002C01400010024037
:1024A00090F83D10012901D001207047022180F8E9
:1024B0003D100168CA6842F00102CA6000680B4919
:1024C000884208D0B0F1804F05D00949884202D037
:1024D0000849884204D1816801F00701062903D028
:1024E000016841F00101016000207047002C0140AB
:1024F000000400400008004070B5044690F83C001D
:102500000025012817D0012684F83C60022084F8B9
:102510003D002068826822F0770222F47F428260C8
:102520000868502838D00DDC20284FD005DC90B347
:10253000102811D14AE0022070BD302846D0402832
:102540000AD13BE060282FD070280DD0B0F5805F15
:1025500003D0B0F5005F12D0012584F83D60002063
:1025600084F83C00284670BDCB68D1E90121206881
:1025700001F0F1FF2068816841F0770109E0CB6844
:10258000D1E90121206801F0E6FF2068816841F46B
:1025900080418160E1E719E0CA684968206802F07B
:1025A0008FF85021206806E0CA684968206802F068
:1025B00098F86021206801F0D8FFCEE7CA68496822
:1025C000206802F07DF840212068F4E72268014687
:1025D0001046F0E7704770B50446006801694FF097
:1025E0000005C943890715D4C168C943890711D4B7
:1025F000E91E01610120207720688069800720465C
:1026000002D0FFF7E7FF04E000F00EF9204600F0EB
:10261000B3F9257720680169C943490717D4C16810
:10262000C943490713D46FF00401016102202077E8
:102630002068806910F4407F204602D0FFF7CAFF6F
:1026400004E000F0F1F8204600F096F925772068C4
:102650000169C943090716D4C168C943090712D4DF
:102660006FF008010161042020772068C0698007AD
:10267000204602D0FFF7AEFF04E000F0D5F8204678
:1026800000F07AF9257720680169C943C90617D493
:10269000C168C943C90613D46FF010010161082055
:1026A00020772068C06910F4407F204602D0FFF7F1
:1026B00091FF04E000F0B8F8204600F05DF92577BE
:1026C00020680169C943C90708D1C168C943C9075E
:1026D00004D1891E0161204600F0D6F92068016905
:1026E000C943090609D4C168C943090605D46FF076
:1026F000800101612046FFF7E3FD20680169C943BD
:10270000490609D4C168C943490605D46FF04001A0
:102710000161204600F0C2F920680169C9438906B9
:102720000BD4C168C943890607D46FF02001016149
:102730002046BDE87040FFF7C4BD70BD70B586B0DF
:10274000002100910191029103910068304B3149C1
:102750000224314A984211D1886940F0040088610E
:102760008869039400F0040004908815CDE9000402
:1027700069461046FEF77CFC06B070BD274E284D1A
:10278000B0F1804F1BD0274A9042F5D1886940F0C4
:10279000080088618869694600F0080004901020EC
:1027A000CDE9000430460394FEF762FC686820F42B
:1027B000406040F0E06040F400606860DCE78869F9
:1027C00040F004008861886900F004000490886982
:1027D00040F0080088618869694600F008000490AC
:1027E00048F20400CDE9000410460394FEF740FCD3
:1027F0000820CDE90004694630460394FEF738FC12
:10280000686820F4407040F0E06040F48070D4E7E5
:10281000002C01400010024000080140000C014063
:102820000000014000040040704770B5044690F875
:102830003C0000260D4601280FD0012084F83C0002
:102840006AB1042A1DD0082A2FD00C2A3FD00126B5
:10285000002084F83C00304670BD022070BD206826
:1028600001F08CFE2068816941F0080181612068D7
:10287000816921F004018161206881692A6911431D
:1028800011E0206801F0A2FE2068816941F4006136
:1028900081612068816921F480618161206881699A
:1028A0002A6941EA02218161D2E7206801F0BAFE7B
:1028B0002068C16941F00801C1612068C16921F047
:1028C0000401C1612068C1692A69114311E02068CF
:1028D00001F0D4FE2068C16941F40061C161206843
:1028E000C16921F48061C1612068C1692A6941EA36
:1028F0000221C161ACE710B5040003D094F83D009B
:1029000010B107E0012010BD002084F83C002046F3
:1029100000F01EF8022084F83D00211D206801F01F
:10292000D7FD012084F8460084F83E0084F83F007B
:1029300084F8400084F8410084F8420084F84300A1
:1029400084F8440084F8450084F83D00002010BD60
:1029500008B500680649884208D10648C16941F0B7
:102960000201C161C06900F00200009008BD0000D2
:1029700000040040001002407047000010B50446FB
:10298000022249B104290ED0082913D094F841003D
:10299000012816D0012010BD94F83E000128F9D17D
:1029A00084F83E200FE094F83F000128F2D184F82B
:1029B0003F2008E094F840000128EBD184F8402043
:1029C00001E084F841200122206801F0B7FD0F49A1
:1029D0002068884203D1426C42F40042426420687D
:1029E000884208D0B0F1804F05D00949884202D012
:1029F0000849884204D1816801F00701062903D003
:102A0000016841F001010160002010BD002C01406F
:102A1000000400400008004030B504460D46006840
:102A2000002201F08BFD174B41F2111120688A1032
:102A3000984209D1036A0B4206D1036A134203D1BB
:102A4000436C23F4004343642068036A0B4206D1BD
:102A5000016A114203D1016821F0010101600120E6
:102A60003DB1042D08D0082D09D084F84100002084
:102A700030BD84F83E00FAE784F83F00F7E784F8B9
:102A80004000F4E7002C014000680349884201D16E
:102A9000FEF736BF7047000000080040704770B571
:102AA000040004D094F84100002510B106E0012094
:102AB00070BD84F84050204600F024F8242084F8AB
:102AC00041002068C16821F40051C160204601F036
:102AD0001BFE2068016921F4904101612068416971
:102AE00021F02A0141612068C16841F40051C160B0
:102AF0006564202084F8410084F84200656300206A
:102B000070BD000030B585B000240094019402949B
:102B1000039400681449884224D11448816941F41F
:102B200080418161816901F480410491816941F0B2
:102B30000401816180690E4D00F0040004904FF49F
:102B400000700090022001900320039069462846FF
:102B5000FEF78EFA2815CDE900046946284602944E
:102B6000FEF786FA05B030BD003801400010024083
:102B7000000801402DE9F843044690F841001F4643
:102B800016460D46202802D00220BDE8F8837DB10C
:102B900076B100206064212084F84100FEF762FBDA
:102BA000A6848046E684A068B0F5805F02D003E08A
:102BB0000120EAE7206910B12E4600250EE000262C
:102BC0000CE08021204601F0FBFDA0B9AEB116F863
:102BD000010B21684860E08C401EE084E08C434695
:102BE0004FF0000200970028EBD14FF04001204643
:102BF00001F0E6FD30B10320C7E735F8020BC0F362
:102C00000800E6E7202084F841000020BDE7FEE749
:102C100001684A69D24352050FD46FF480624A6159
:102C2000002140F8301F202242738173026942F074
:102C30000402026101730120704700207047000008
:102C4000F8B50446C06A1E460D461746082807D048
:102C5000012805D010F5803F02D0206B122804D146
:102C60002068016841F480710160134600224FF032
:102C700001112046009600F02FF940B1206800684D
:102C8000C00502D54FF4007020640320F8BD206910
:102C9000B0F5804F0ED00620216800EAD51040F034
:102CA000F000086133463A460B49204600F05CF9D3
:102CB00078B902E005F0FE0000E0E8B221680861A2
:102CC000054933463A46891F204600F04DF9002851
:102CD000DCD00120F8BD0000080001002DE9F84F0C
:102CE0000446006889460B9D01689846174641F4E2
:102CF000806101602068016841F480710160009585
:102D00004FF0011B0022594620460A9B00F0E4F8D0
:102D10004FF4007A40B120680068C00501D5C4F8BE
:102D200040A00320BDE8F88F216809F0FE0008618B
:102D30002B46284920460A9A00F016F9F0BB206875
:102D40004169806900902A4620460A9900F0A2F95C
:102D500040B1206C04283AD12068016841F4007128
:102D6000016034E0FEB2B8F1010F09D02168380AE1
:102D700008612A4620460A9900F08CF90028E8D11B
:102D8000206806612A4620460A9900F083F9002847
:102D9000DFD12068016841F4807101600095002254
:102DA000594620460A9B00F097F80028B3D12168C5
:102DB00009F0FF0040F00100086100E007E02B4649
:102DC000044920460A9A00F0CFF80028AAD0012032
:102DD000A8E70000020001002DE9F843044600685E
:102DE0000D46DDE9089701689846164641F4807162
:102DF00001604B4600224FF001112046009700F081
:102E00006BF848B120680068C00502D54FF4007027
:102E100020640320BDE8F883216805F0FE00086106
:102E20003B464A461549204600F09EF888B920687E
:102E30004169806900903A464946204600F02AF9E7
:102E400048B1206C042804D12068016841F4007165
:102E500001600120DEE7F5B2B8F1010F09D0216869
:102E6000300A08613A464946204600F013F9002826
:102E7000E7D1206805610020CCE7000002000100D6
:102E800070B516460D4604461EE02046FFF7C0FE0C
:102E900008B1012070BD681C16D0FEF7E3F9801B55
:102EA000A84200D885B920684069C04340070BD5C7
:102EB000002044F8300F20216173A073216941F094
:102EC000200121612073E4E720684069C043400786
:102ED000DBD4002070BD00002DE9F047984617466E
:102EE0000D460446C1F30746DDF820902AE000BFF6
:102EF000B8F1FF3F26D0FEF7B5F9A0EB0901414537
:102F000002D8B8F1000F1DD12068012E16D08069BB
:102F100025EA00000004000C12D00020B84211D1B4
:102F2000002044F8300F20216173A073216941F023
:102F30002001216120730120BDE8F0874069E7E7A7
:102F40000120EBE72068012E0AD0806925EA000005
:102F50000004000C06D00020B842C9D00020EBE7E6
:102F60004069F3E70120F7E72DE9F0479846164658
:102F70000D4604464FF000094FF0200AC1F3074701
:102F800023E020684069C043400515D420680168EB
:102F900041F40071016021686FF480604861C4F8F9
:102FA000309084F83DA084F83E90216C41F00401FB
:102FB000216484F83C9021E0701C06D0FEF752F9A1
:102FC000A0EB0800B04203D816B1012F1FD021E0BA
:102FD0002068012F15D0806925EA00000004000C4C
:102FE00018D000BF44F8309F84F80DA084F80E90EC
:102FF000216941F02001216184F80C900120BDE895
:10300000F087406925EA00000004000CEAD120683E
:10301000406901E02068806925EA00000004000C96
:10302000AFD1ECE72DE9F041002590460E4604466D
:10303000202728E04069C043C0060CD454F8301B58
:103040006FF01000486144F810596777A577206A3F
:103050002062257714E0FEF705F9A0EB0800B042E6
:1030600000D886B920684069C04340060BD544F8B3
:10307000305F6773A573206940F0200020612573DD
:103080000120BDE8F08120684169C9434906D1D4D7
:103090000020F6E770B516460D4604461EE02046B1
:1030A000FFF7B6FD08B1012070BD681C16D0FEF711
:1030B000D9F8801BA84200D885B920684069C04370
:1030C00000060BD5002044F8300F20216173A07357
:1030D000216941F0200121612073E4E72068406903
:1030E000C0430006DBD4002070BD00002DE9FE4F78
:1030F000DFF8F89000224846DFF8F4C0D0E902611A
:10310000D9E900400B46341B61EB0001501EB4EBC3
:103110000C0C1546174671F1000C5ED3DFF8D48015
:103120004FF0000CB8EB04047CEB010C55D34C467B
:10313000D4E904C1BCEB060661EB03012E4BF31A84
:1031400071F1000349D3DFF8B4C00023BCEB0606DD
:103150008B4142D300234FF00309EA4609EB4308B1
:1031600008F1010C04EBCC0104EBC80CD1E90061BF
:10317000DCE9008CB6EB080661EB0C015206DFF8C7
:103180008080120E6D1C4FF0000CB8EB06067CEB35
:10319000010C01D242F00102082D04D10AF80720E7
:1031A000002215467F1C5B1C202BD7DB9DF80110ED
:1031B000C943CBB28DF801309DF80310C943CAB2A0
:1031C0008DF803209DF80010994203D19DF802303C
:1031D000934204D00B4A00211160BDE8FE8FCDE977
:1031E000011301A8FDF798FD0020F6E7E83B002059
:1031F00000127A0080969800E0673500C03B4703D4
:1032000040420F00B80000202DE9FC4103F000F916
:10321000244C254ED4E90623871A61EB03020023D0
:103220001D46F61B934100D22560C4E906011F4AE2
:10323000236802EBC3065B1CC6E900012360042B74
:1032400006D0442B02D1FFF751FF2560BDE8FC8179
:10325000D2E90260D2E900370146F31A60EB0700B9
:10326000134FDF1B70F10007F0D3DFF848C00027D1
:10327000BCEB03038741E9D3D2E90402801B62EB74
:1032800001020D49411A72F10001DFD34FEAAC038C
:103290000021181A9141D9D3009568460195FDF790
:1032A0003BFDD2E7B800002000E1F505E83B002037
:1032B00000127A008096980080841E0010B50022CB
:1032C00008210A2003F062FE02490861BDE81040AF
:1032D00001F01CB8B80000200EB501260027184CDC
:1032E0004FF0FF3802254146E06904F0A3F80028BA
:1032F000F9D0616A884202D100F0A8FFF3E7A16A21
:10330000884202D100F0C8FFEDE7E36A9842EAD1B3
:10331000002202A9184603F0F1FF02985A2801DDA5
:10332000019503E001DA019600E001974FF00003F8
:1033300000951A466946206A03F0C4FED3E70000F0
:103340000401002000F030BD00F044BD00F05EBD7F
:1033500000F08CBD00F094BD00F0DCBD00F01CBEA0
:1033600000F059BE10B506484FF4005309B10022D1
:1033700000E001221946FDF770FF002010BD00009B
:103380000010014070B586B00024114800940194EB
:1033900002940394816941F01001816180690D4EAE
:1033A00000F010004FF400550490224629463046A4
:1033B000FDF753FF01200095CDE9010402200390A1
:1033C00069463046FDF754FE06B0002070BD00008F
:1033D0000010024000100140FFF7D4FF4FF4FA74D0
:1033E00001210846FFF7BEFF204603F001FA002145
:1033F0000120FFF7B7FF204603F0FAF9F0E70000DD
:1034000008B50020009009486A460121806803F051
:10341000BDFC0098002807D005494FF08050086097
:10342000BFF34F8FBFF36F8F08BD0000A0000020D7
:1034300004ED00E008B56946752000F0DFF810B132
:103440004FF0FF3008BD9DF8000008BD10B5002109
:103450006B2000F0D9F900216C2000F0D5F909218A
:10346000192000F0D1F906211A2000F0CDF9182119
:103470001B2000F0C9F918211C2000F0C5F900211B
:10348000372000F0C1F9FF21382000F0BDF90022FB
:1034900004210A2003F07AFD034C606003F022FC53
:1034A000A060002010BD0000A000002010B5049C0A
:1034B000002C0FD04038FDF7ABF86FF00D02FDF790
:1034C00082F801F05BFB044A044BFDF70AF8FDF7B4
:1034D000C4F8206010BD0000A79196CADBA54C403F
:1034E0002DE9FC5F1D46DDE90CAB16468946070059
:1034F0004FF0000411D001A93B2000F07FF8804676
:1035000069463C2000F07AF840EA08049DF8000083
:103510009DF8041040EA01203880B9F1000F13D063
:1035200001A93D2000F06AF840EA040769463E2000
:1035300000F064F840EA07049DF800009DF80410CC
:1035400040EA0120A9F8000096B101A93F2000F04F
:1035500055F840EA04076946402000F04FF840EA79
:1035600007049DF800009DF8041040EA0120308017
:1035700095B101A9432000F041F840EA04066946EC
:10358000442000F03BF840EA06049DF800009DF856
:10359000041040EA01202880BAF1000F13D001A9DD
:1035A000452000F02BF840EA04056946462000F06B
:1035B00025F840EA05049DF800009DF8041040EA53
:1035C0000120AAF80000BBF1000F13D001A9472089
:1035D00000F014F840EA04056946482000F00EF8AF
:1035E00040EA05049DF800009DF8041040EA01201F
:1035F000ABF800002046BDE8FC9F00000EB54FF47C
:10360000FA7201230292CDE9001302460248D0214A
:103610000068FDF787FF0EBDA000002086B0174EA2
:103620004FF0FF3700240DF10C0801220097002312
:103630001146B06803F0B2FBFDF7ACFB0023009429
:103640001A46194604A80194FFF74AFF054600F000
:1036500053FE7DB90094CDE9014800231A4619466E
:10366000BDF91000FFF722FF00231A4603A9706876
:1036700003F028FD142003F0BBF8D6E7A0000020DB
:103680008AB0FFF7E3FEFFF7D5FE0446002153A200
:103690000846FFF765FE0123224602210020FFF7BE
:1036A0005BFE4FF47A7002F097F8FFF74BFE4E4D39
:1036B0004E4E09AF0DF110090DF10C086FF00D041D
:1036C00008AB07AA06A905A8CDE90089FFF708FFFE
:1036D000BDF91000BDF90C10CDE900100297BDF93D
:1036E0002030BDF91C20BDF91810BDF91400FFF7FA
:1036F000DDFE00213EA20846FFF732FEBDF91400B0
:103700004038FCF785FF2246FCF75DFF01F036FAF2
:103710002A463346FCF7E5FEFCF79FFF02460021F0
:103720000320FFF71BFEBDF9202000210A202832CC
:10373000FFF714FE2FA202210020FFF711FEBDF9B2
:1037400018001E38FCF764FF2246FCF73CFF01F02E
:1037500015FA2A463346FCF7C4FEFCF77EFF024604
:1037600002210320FFF7FAFDBDF90C2002210A20F7
:10377000D21FFFF7F3FD20A204210020FFF7F0FD88
:10378000BDF91C0000F56150FCF742FF2246FCF732
:103790001AFF01F0F3F92A463346FCF7A2FEFCF7C4
:1037A0005CFF024604210320FFF7D8FDBDF910207D
:1037B00004210A200E3AFFF7D1FD10A206210020B5
:1037C000FFF7CEFDC0B20621099AFFF7C7FD6420BE
:1037D00002F002F8FFF7B6FD72E700004D505536D3
:1037E0003035302049443A00A79196CADBA54C40B9
:1037F000583A2000593A20005A3A2000416E676C2E
:1038000065583A20000000001CB502238DF8040022
:103810004FF4FA70009004488DF8051001AAD021E9
:103820000068FDF7E9FD1CBDA00000203EB50024A6
:1038300011480094019402940E498460016004735D
:103840000475012505614FF460214460C161FDF7F5
:1038500039FB08B1FDF798FA0320CDE90005694668
:1038600002940548FDF7B0FA002801D0FDF78CFA64
:103870003EBD000000240140180600203EB5012096
:1038800003F075FB1D4CA060FFF764FDFFF75AFDC8
:10389000FFF7DCFDFFF712FD00F092FD002118A2FA
:1038A0000846FFF75DFD194A0021194801F0DEFFC7
:1038B000E06000201825CDE900500346802215A1C4
:1038C000174803F0B7FE17480095A0F5A071CDE9A1
:1038D00001100023502214A1164803F0D8FE2060E6
:1038E00015480095A0F50071CDE901100023802254
:1038F00012A1154803F0CBFE60603EBD0000002021
:103900005374617274696E6700000000247B0008C4
:10391000E543000847616D655461736B000000006A
:10392000D5550008980200204C696768745461738B
:103930006B000000D9330008F4040020436F6C6F63
:10394000725461736B000000690B00082DE9F047A9
:1039500086B000244F480094019402940394816936
:1039600041F010018161816901F0100104918169C8
:1039700041F020018161816901F020010491816998
:1039800041F004018161816901F0040104918169C0
:1039900041F00801816180693F4F00F008004FF459
:1039A00000550490002229463846FDF756FCDFF802
:1039B000EC90002213214846FDF74FFCDFF8E0A011
:1039C0004FF40248002241465046FDF746FC009560
:1039D000022601250396CDE9015469463846FDF7D4
:1039E00047FB112700970396CDE9015469464846E5
:1039F000FDF73EFBCDE90256CDE900676946484632
:103A0000FDF736FB03208DE8310069465046FDF78F
:103A10002FFBA80200902348CDE9010569465046D6
:103A2000FDF726FB204FE802CDE900076946029525
:103A30005046FDF71DFB4FF48150CDE90007694664
:103A400002945046FDF714FB4FF48240CDE9000488
:103A5000694650460294FDF70BFBCDF800800396B3
:103A6000CDE9015469465046FDF702FB00220521CD
:103A70001720FDF7DDFF1720FDF7CCFF0022052101
:103A80002820FDF7D5FF2820FDF7C4FF06B0BDE8CC
:103A9000F0870000001002400010014000080140C3
:103AA000000C014000003110000011100D4810B54D
:103AB0000B4901600C49416000214FF48042816054
:103AC000C0E9031241618161C1610162FDF7D0FB70
:103AD000002803D0BDE81040FDF756B910BD000026
:103AE0000054004048060020A0860100104810B590
:103AF0000E4901604FF48271416000218160C16014
:103B00004FF400720161C0E905120822C0E90721E3
:103B1000416281620A21C162FEF740FB002803D0A6
:103B2000BDE81040FDF730B910BD00000030014085
:103B30009C06002010B596B000240F9410941194A8
:103B4000129413941C2108A81494FCF7A4FB2021C0
:103B50006846FCF7A0FB2A48284901604721C0E9D4
:103B6000011440F2E731C0E903148021C0E90541A6
:103B7000FEF734FC08B1FDF707F94FF480500F90C1
:103B80000FA91F48FEF7B8FC08B1FDF7FDF81C4867
:103B9000FEF7B1FE08B1FDF7F7F8139413A9184822
:103BA0001494FEF7B9FB08B1FDF7EEF86020089019
:103BB00040F2F310CDE909040B940C940D9400220B
:103BC00008A90F480E94FEF730FE08B1FDF7DCF8A7
:103BD00000944FF40050CDE9044002940194039402
:103BE000694607480794FEF76DFB08B1FDF7CCF86E
:103BF0000348FEF7A3FD16B010BD0000002C0140E5
:103C0000F406002010B58EB000240794089409949F
:103C10000A940B941C2168460C94FCF73CFB274843
:103C20004FF08041016040F26711C0E9011440F299
:103C3000CF71C0E9031480218161FEF7CFFB08B189
:103C4000FDF7A2F84FF48050079007A91B48FEF734
:103C500053FC08B1FDF798F81848FEF74CFE08B180
:103C6000FDF792F80B940BA914480C94FEF754FB43
:103C700008B1FDF789F86020CDE900040294002224
:103C800069460E480494FEF7D0FD08B1FDF77CF8B4
:103C9000042269460948FEF7C8FD08B1FDF774F82B
:103CA000082269460548FEF7C0FD08B1FDF76CF82B
:103CB0000248FEF743FD0EB010BD00003C07002097
:103CC00010B58AB0002407941C2168460894FCF7BC
:103CD000E2FA1848164901600721C0E9011440F2D0
:103CE000E731C0E9031480218161FEF704FE08B1C9
:103CF000FDF74AF8079407A90E480894FEF70CFB55
:103D000008B1FDF741F8602000904FF46170CDE9F3
:103D100001040022694607480494FEF786FD08B1B5
:103D2000FDF732F80348FEF709FD0AB010BD0000A8
:103D300000040040840700200C4810B50A490160C7
:103D40004FF4E1314160002181600C22C160C0E983
:103D500004128161C161FEF7A2FE002803D0BDE814
:103D60001040FDF711B810BD00380140CC0700200D
:103D70000B4810B5094901600821416002218160AA
:103D800000218161C1610162FDF784FE002803D03A
:103D9000BDE81040FCF7F8BF10BD0000005C00401B
:103DA00014080020FEE7FEE710B5A0B00024802133
:103DB0006846FCF770FA0021204600F07FF9802168
:103DC000684600F0AFF9641CE4B2082CF3D320B0CD
:103DD00010BD000070B50C4D002400BF04F1B00010
:103DE000C0B200F08BF9002000F088F9102000F03C
:103DF00085F905EBC410802100F094F9641CE4B24D
:103E0000082CEBD370BD0000643700202DE9F0478B
:103E10008146C81701EB5070C0F3C70520F00700BA
:103E2000081A1844C01DC11700EB51709246C0F328
:103E3000C7070024DFF8308011E02E19082E0CD2BD
:103E400009F0FF01F0B200F039F909EBC6121FFAD0
:103E50008AF102EB080000F065F9641CE4B2BC4290
:103E6000EBD3BDE8F08700006437002080230360B7
:103E7000402008600120106000487047643700202F
:103E800010B50224202000F039F9204600F036F960
:103E90001F4804703F24A82000F030F9204600F0AD
:103EA0002DF90024D32000F029F9204600F026F94E
:103EB000402000F023F9A12000F020F9C82000F0F4
:103EC0001DF90021084600F0E3F87F24812000F06E
:103ED00015F9204600F012F9A42000F00FF9A620F1
:103EE00000F00CF9D52000F009F9802000F006F967
:103EF0008D2000F003F9142000F000F900210120CA
:103F000000F0C6F8BDE81040AF2000F0F7B80000A0
:103F100098000020F0B51CA61546074655CE87B080
:103F20000DF10C0C8CE8550030208DF80000782045
:103F300000268DF8010002248DF80A6007206A46E9
:103F40004FEA800E25FA0EFE0EF00F0E022C1CF822
:103F50000EE002F804E004D19DF802E0BEF1300F5B
:103F600000D0641C401EEBD5022C00D1032438463F
:103F7000165523B100F04FF8204607B0F0BD921C53
:103F800000F049F8A01EF8E73031323334353637C7
:103F90003839616263646566F0B589B0002407460C
:103FA00020466D4604AE002A08DA4FF02D038DF846
:103FB00000304FF00104C2F1000214E006D14FF0CE
:103FC00030008DF800004FF001041AE04FF00A0CA9
:103FD00092FBFCF30CFB132392FBFCF203F1300386
:103FE000335400F10100002AF0D108E006EB000292
:103FF000A0F1010012F8012C2A5504F10104002857
:10400000F4D14FF0000028552A46384600F003F856
:1040100009B02046F0BD2DE9F04117460E46044692
:1040200000250BE03146204600F00EF8641CE4B297
:104030000F2C02D90024B61CF6B26D1C7A5D002A42
:10404000F0D12846BDE8F08170B51646C206150EBF
:104050000C46072918D80F2816D82946204600F004
:104060002DF80A48082100EB0610064600F05AF821
:10407000641CE0B2294600F021F806F10800BDE812
:104080007040082100F04EB870BD0000727B00083F
:1040900070B50C46050001D0012D0ED10CB1012CDC
:1040A0000BD1DA2000F02AF8280100EB4410BDE81B
:1040B0007040801CC0B200F021B870BD70B50E4DCC
:1040C0000C462978022905D1072803D8B030C0B2A0
:1040D00000F014F8287802280CD17F2C0AD804F0BC
:1040E0000F0000F00BF8102000EB1410BDE870403A
:1040F00000F004B870BD0000980000201CB500213D
:104100008DF804108DF805004FF4FA700090044803
:10411000022301AA78214068FDF76EF91CBD00005A
:10412000980000200EB54FF4FA728DE8070004489D
:104130000123402278214068FDF71CFB0EBD0000E2
:1041400098000020010004484FF00001006801D0F1
:10415000FEF714BCFEF760BCAC00002070B58CB05C
:104160001C216846FCF797F84FF480700225CDE9D2
:104170000705002407A91048CDE90945FCF778FF99
:104180000F4E0E484722316815C140F2E732E1E890
:104190000224802261E8044200F09AF96020009035
:1041A000049440F2F310CDE901050022694630681D
:1041B000FEF73BFB0CB070BD00080140002C014035
:1041C000AC0000202DE9F04188B0884606461C214D
:1041D0006846FCF760F81A4C00212068FEF71CFCCA
:1041E0002068FEF7CDF820681649002501604721B8
:1041F000C0E90115144F97FBF6F1491EC0E90315FC
:104200008021C0E90551FEF7E9F860200090022006
:10421000029097FBF6F0401E00FB08F0642190FB33
:10422000F1F004950190002269462068FEF7FDFA3E
:1042300000212068FEF7A2FB08B0BDE8F081000075
:10424000AC000020002C014040420F001CB5114C76
:1042500000226946606A03F051F8019904F13400C4
:10426000E0290ED0902910D019B1009901600021E9
:104270004160084900231A463431206A02F022FFC7
:104280001CBD009901600221F2E700990160012143
:10429000EEE70000040100207FB5164E00226946BB
:1042A000B06A03F02BF80198002804DA0199012084
:1042B0004942019101E001990020642901DD0424B3
:1042C00004E0322901DD022400E0012401210291F1
:1042D00008B1022000E001200025039006E0002341
:1042E0001A4602A9306A02F0EDFE6D1CA542F6DB0B
:1042F0007FBD000004010020034800231A46194630
:10430000806802F0DFBE000000000020044A51680F
:104310000A2904DA034B43F82100491C5160704715
:10432000B8000020083E0020FEB50020009002F0FA
:104330006FF806460D46022001F04EFA1C4F4FF46E
:1043400080513846FCF784FF00282AD0194CD4E964
:104350000401321A65EB010317480021FBF72EFF19
:10436000606001213846FCF773FF0028206819D0EF
:10437000401C2060C4E904652068019060680290D8
:1043800000236A4601A9E06802F052FF0098002865
:1043900007D00A494FF080500860BFF34F8FBFF33A
:1043A0006F8FFEBD401E2060606840426060E1E7A4
:1043B000000C0140D800002000CA9A3B04ED00E048
:1043C00008B50020054B0090A3F1500208210A20F7
:1043D00002F000FE0249C86008BD0000803E0020D7
:1043E000D8000020002002F029FAFEF7B3FFFEF704
:1043F000A9FFFEF763FF002103A20846FEF7B0FF06
:10440000FFF73EF9FCE7000057616974696E6720A9
:10441000636F6E74726F6C0010B5502080F311885A
:10442000BFF34F8FBFF36F8F03F070F918B10449DA
:104430004FF080500860002080F3118810BD00000C
:1044400004ED00E030B593B028216846FBF723FF68
:1044500014210AA8FBF71FFF002401200F941094D9
:104460001194010412948DE8130004904FF4E010AD
:10447000CDE90810022507956846FDF7FFFC08B155
:1044800072B6FEE70F20CDE90A054FF48060CDE952
:104490000C4002210AA80E94FDF7F4FB08B172B695
:1044A000FEE712200F904FF40040CDE911040FA851
:1044B000FDF772FB002801D072B6FEE713B030BDE5
:1044C000704700000148FEF786B80000040B00208A
:1044D000F0B50268164B174C174D4FF080479842C5
:1044E00005D0B84203D0A04201D0A84203D122F0A7
:1044F00070064A683243984205D0B84203D0A042C1
:1045000001D0A84203D122F44074CA6822434C6906
:1045100022F08002224302608A68C2620A688262D4
:10452000984201D10969016301214161F0BD000098
:10453000002C0140000400400008004010B501F0CC
:104540001F030121046A99408C430462016A9A4066
:104550001143016210BD10B5846842EA032224F4BD
:104560007F440A432243826010BD826822F07002B9
:104570000A4342F0070181607047000030B5036ACA
:10458000026A22F0010202624268846924F0730523
:104590000C682C4323F002058B682B430A4DA8427C
:1045A0000BD123F00805CB6822F440722B434D69F0
:1045B00023F0040315438A692A43426084614968F1
:1045C0004163036230BD0000002C014030B5026A37
:1045D000036A23F010030362436884690D6824F4BE
:1045E000E64444EA05248D6822F0200242EA0512DE
:1045F0000B4DA8420ED1CD6822F0800242EA05128E
:104600004D6923F4406343EA85038D6922F040023B
:1046100043EA85034360846149688163026230BD77
:10462000002C014030B5036A026A22F480720262F3
:104630004268C46923F4007324F073050C682C43AA
:104640008D6843EA05230C4DA8420ED1CD6823F4B2
:10465000006343EA05234D6922F4405242EA051201
:104660008D6923F4806342EA05124260C46149689F
:10467000C163036230BD0000002C014030B5046A04
:10468000026A22F4805202624268C3690D6823F410
:10469000E64343EA05238D6824F4005444EA0534D4
:1046A000064DA84204D14D6922F4804242EA8512A7
:1046B0004260C36149680164046230BD002C01405E
:1046C00010B5036A046A24F001040462846924F0CA
:1046D000F00444EA021423F00A020A4384610262ED
:1046E00010BD10B5036A046A24F0100404628469E2
:1046F00023F0A00324F4704444EA023243EA011197
:104700008261016210BD000070B504460068016955
:10471000E26821F44051114301612169A068084316
:10472000616908432168CA6841F20C639A430243F5
:10473000CA6020684169A26921F440711143416156
:104740001E492068884202D1FDF762FB01E0FDF7B7
:104750004FFB00EBC00101EB001260686421800098
:10476000B2FBF0F3B3FBF1F36FF018067343B2FB47
:10477000F0F5B2FBF0F605EB8305322303EB0515EC
:10478000B5FBF1F5B6FBF1F605F0F00505EB061506
:10479000B2FBF0F6B2FBF0F0B0FBF1F06FF01802F4
:1047A000504306EB800003EB0010B0FBF1F02168F2
:1047B00000F00F002844886070BD00000038014000
:1047C0002DE9F041984617460E460446069D27E01F
:1047D000681C25D02DB1FCF745FDA0EB0800A842D0
:1047E0001ED920680C3050E8001F21F4D07140E839
:1047F0000012002AF5D12068143050E8001F21F083
:10480000010140E80012002AF5D1202084F841007F
:1048100084F84200002084F840000320BDE8F081C5
:104820002068006836EA000004D00020B842CFD0EB
:104830000020F3E70120F9E70020704700207047CF
:10484000012120F8401F002101808180018208465B
:10485000704730F8401F21F43F410180002070472D
:1048600000207047FEE700000FB4054B10B503A908
:10487000044A029800F0A0F810BC5DF814FB000098
:10488000AD510008480100200FB4084B10B504A931
:1048900002AA039800F090F8044602A9002000F054
:1048A00067F9204610BC5DF814FB0000714B00084E
:1048B0000907090E002804DB00F1E02080F800144D
:1048C000704700F00F0000F1E02080F8141D7047E1
:1048D0002DE9F0414F1E00EBC7010446D1E900016C
:1048E00015461E4637F006020DD02A463346FBF722
:1048F000F8FD7F1E04EBC703D3E90023FBF74AFD55
:1049000037F00602F1D1022F25D0042F13D0062F45
:1049100018BFBDE8F0812A463346FBF7E2FDD4E933
:104920000A23FBF737FD2A463346FBF7DAFDD4E9C5
:104930000823FBF72FFD2A463346FBF7D2FDD4E9C7
:104940000623FBF727FD2A463346FBF7CAFDD4E9C9
:104950000423FBF71FFD2A463346FBF7C2FDD4E9CB
:104960000223FBF717FD2A463346FBF7BAFDD4E9CD
:104970000023BDE8F041FBF70DBD0122FBF723BE8C
:104980000022134610461146FBF765BF02E008C837
:10499000121F08C1002AFAD170477047002001E0B9
:1049A00001C1121F002AFBD17047000001490860B5
:1049B00070470000540100202DE9FF4F8BB09A464C
:1049C0000F460546002606E025280BD052460D99D5
:1049D00090476D1C761C28780028F5D10FB0304622
:1049E000BDE8F08F0024A0460122604900E00443A6
:1049F00015F8013F203B02FA03F00842F7D128786E
:104A00002E2817D115F8010F44F004042A280ED0DF
:104A10006FF02F022878A0F1300109290AD808EB9D
:104A2000880102EB410100EB01086D1CF2E757F829
:104A3000048B6D1C287869283ED006DC0028CDD078
:104A400063280BD0642804D136E0732810D0752871
:104A50004BD052460D999047761C85E017F8040B11
:104A60008DF8000000208DF80100E946012003E0E8
:104A700057F8049B4FF0FF3061074FF0000401D45A
:104A80000AE0641C44450DDA8442FADB19F804108C
:104A90000029F6D106E0641C8442FCDB19F80410FE
:104AA0000029F8D1264404E019F8010B52460D996B
:104AB0009047641EF8D257E001CF4FF00A0B002850
:104AC00002DA40422D2102E0210504D52B218DF888
:104AD0002410012103E0E10705D02021F7E70DF1C3
:104AE000200908910CE00021F9E701CF4FF00A0BF3
:104AF000F9E75946FBF7E4FD01F1300209F8012D11
:104B00000028F6D1ADEB090000F1200B600701D4BD
:104B10004FF00108D84502DDA8EB0B0000E00020B3
:104B20008046002406E009A85246005D0D99904792
:104B3000641C761C08988442F5DB04E03020524661
:104B40000D999047761CB8F10001A8F10108F5DC39
:104B500005E019F8010B52460D999047761CBBF100
:104B60000001ABF1010BF4DC6D1C34E709280100F6
:104B70000A68531C0B601070704700002DE9F04D5F
:104B80000546DFF8388221F000408D4F82B00C4698
:104B9000404520DBA0EB080129430BD0894988421E
:104BA00001DC10D17DB102B028462146BDE8F04DB0
:104BB000FFF7E3BE002CC7BF0020014682483946FC
:104BC00002B0BDE8F08D0120FFF7F0FE02B0BDE8B5
:104BD000F04DFFF7D5BE7D49884244DA7C498142D9
:104BE000A1BF79487B4902B0BDE8F08D2A46234633
:104BF00010461946FBF775FC8346024676480E467A
:104C00000B4606217844FFF763FE5A463346FBF70E
:104C100068FC074671488A465A4633460421784460
:104C2000FFF756FE5A463346FBF75BFC002243462D
:104C3000FBF7B0FB02460B4638465146FBF70BFE2E
:104C40002A462346FBF74DFC654A664BFBF746FCBC
:104C50002A462346FBF742FC02B05B4ABDE8F04D12
:104C60005C4BFBF73BBC002C4FF000024BDA464696
:104C7000434628462146FBF78DFB4FF0FF32FBF7FA
:104C8000A2FC0446024658480D460B4606217844CD
:104C9000FFF71EFE22462B46FBF723FC80465348B7
:104CA0008A4622462B4604217844FFF711FE22460D
:104CB0002B46FBF716FC00223346FBF76BFB064640
:104CC0008B462046294601F07CFB04460D463246C1
:104CD0005B4640465146FBF7BEFD22462B46FBF79E
:104CE00000FC3F4A3F4BFBF7F6FB22462B46FBF707
:104CF00051FB0122FBF767FC02B03B46BDE8F04DDB
:104D0000314AFBF7EBBB2D4B28462146FBF7E6FB70
:104D10004FF0FF32FBF757FC05460E4601F051FB02
:104D200000270C4680463A460B46FBF733FB82468B
:104D30008B463A46234610461946FBF7D2FB2A46D5
:104D40003346FBF7CBFB52465B46FBF784FD8246BE
:104D500027488B462A46334606217844FFF7B8FD9C
:104D60002A463346FBF7BDFBCDE9000121482A4620
:104D7000334604217844FFF7ABFD2A463346FBF760
:104D8000B0FB00220D4BFBF705FB02460B46DDE9AD
:104D90000001FBF760FD42462346FBF7A2FB5246AB
:104DA0005B46FBF7F7FA3A462346FBF7F3FA02B005
:104DB0000122BDE8F04DFBF706BC00000000F03F0B
:104DC000FB2109400000F07F182D44540000E03F13
:104DD0000000603CFB21F93F783900008E3900006B
:104DE000075C143326A6913CEE380000043900001D
:104DF000223800003838000038B50C463221FFF761
:104E0000E1F900200346009003482246042100688F
:104E100002F040FE38BD00004001002008B5FFF759
:104E20009DF90548002300901A46C82103A002F00E
:104E3000E7FD0549086008BD8D0D000847616D65F7
:104E4000536F756E64000000400100202DE9FF4F94
:104E500093B01F4622991498DDF88080401AC0B2A2
:104E60000C9008F10700C00809900C98002600F08B
:104E700007000B9014984044C0B20590C4E00C9811
:104E800000EBC60000F0FF0A0AF10800C0B20A9069
:104E90002298A8B114990A98884256D35E49896825
:104EA000884252D805998A45FBD8FF201190149862
:104EB000824508D2A0EB0A01FF208840C0B200E082
:104EC000FF20119007E005990A98884203D9411AFA
:104ED000FF20C840F5E750484FEADA0241684A43EC
:104EE0000792159A06FB072206920B9A72BB8368FB
:104EF00081469A452AD24FF0080AB8F1080F00D22D
:104F0000C24600241BE013982044C5B2D9F804001F
:104F1000854212D206982199204401F035FA119960
:104F200053460140079800220544D9F80000405D2F
:104F300001F03CFAD9F800104855641CE4B2BC42B8
:104F4000E1D3A8EB0A0000F0FF085BE00A9A4446B0
:104F5000D2084A430025109251E00B984446C0F114
:104F6000080081460F90A04200D9C14613982844FA
:104F700000F0FF0B2848406883453ED206982199EF
:104F8000284401F001FA11990840234903908968E7
:104F90008A4511D2079920485944129100684B461E
:104FA0000B9A405C039901F001FA1B4A12991268AE
:104FB0005054A4EB0900C4B2FCB117480A998268A6
:104FC00091421AD2C9F1080101F0FF09A14500D9A7
:104FD000A1460F9A03991048D140109A0068934453
:104FE0004B4610F80B00002201F0E0F90A4909686D
:104FF00001F80B00A4EB0900C4B26D1CEDB2BD4278
:10500000ABD3A046761CF6B209988642FFF437AFC0
:1050100017B0BDE8F08F0000F4000020FEF794B94F
:105020002DE9F0411C4615460E460746FBF7B2FE39
:1050300023462A4631463846FEF788F9BDE8F04156
:10504000FFF75AB9044A10B5111F081FFEF780F97F
:1050500001490C39086010BD000100202DE9FE4F08
:105060009B4691460F4606460025DFF8988043E0B0
:10507000C5EBC50202EB0901CCB208220021009267
:10508000CDE901712038C0B21F4900EB8000421801
:10509000052359462046FFF7D9FE08230522594625
:1050A0002046FFF7BDFF27B384B1A4F1010A0AF03F
:1050B000FF01FF235A46D8F8000001F06BF90AF00F
:1050C000FF00082301225946FFF7AAFFD8F8041071
:1050D000491F8C420DD2641DE1B2FF235A46D8F815
:1050E000000001F057F9E0B2082301225946FFF70A
:1050F00097FF6D1CEDB2761C30780028B8D1BDE862
:10510000FE8F0000F4000020968300082DE9F04196
:105110001D46164688460446FBF7C8F8C0B2401C38
:1051200000F024FB07462146FBF7C7F82B46324622
:1051300041463846FFF792FF3846BDE8F04100F09F
:1051400043B8000070B5040005D0164E30688442A4
:1051500009D1002070BD502080F31188BFF34F8F1C
:10516000BFF36F8FFEE701F06FFA656901F08CFA0B
:105170007068854202D0B068854201D1022070BDBE
:105180000948854204D1A06A0028F7D1032070BDE8
:1051900005481438854202D00DB1012070BD0420AD
:1051A00070BD0000200000203C10002013B5054811
:1051B0004FF4FA73012269460068FDF7DBFC0098A2
:1051C0001CBD0000F000002010B5002821D0114BBC
:1051D0000022001F196803E0814203D80A4649688B
:1051E0000029F9D152B11368841A9C4204D1006895
:1051F00018441060104602E0506000E0186039B1B9
:1052000002680B1A934203D10B681A440260496882
:10521000416010BD4C0100202DE9F04FE2488FB0F5
:10522000C188A0292BD28178FF2928D00021DF4C0A
:1052300081468A466068FBF7FCF9C5B22068FBF737
:10524000F8F94FF0000B0221CDE9001B0B46C0B26C
:10525000D74A2946CDF808B0FFF7F8FD6068FBF79C
:10526000E8F9C5B22068FBF7E4F9C0B208230222CE
:105270002946FFF7D5FEBAF1000F02D00BE001215D
:10528000D5E7A1682068FBF721F82060E168606835
:10529000FBF71CF860600020029021680391A04693
:1052A0006068FBF7C6F90027C5B23E465FF0000410
:1052B000D9F80800C05DE0BBB0000590FBF7A3F98A
:1052C0000399FBF7E9F93AD8042000EB8600FBF7D5
:1052D0009AF90399FBF7EAF931D2082000EB840030
:1052E0000E90A8422BD80C2000EB8400A84226D9AF
:1052F00064214FF4FA60FFF77FFDD9F8080001211F
:105300000323C1550821CDE9001B0E98CDF808B044
:10531000C1B20598A64AC0B2FFF798FD0E980823BF
:10532000C1B205980322C0B2FFF77AFE01200290B5
:1053300000E004E0B9F80600401CA9F806007F1C54
:10534000641CE4B2FFB2052CB2D3761CF6B2202E58
:10535000ACD3D9F80C004C46801EFBF754F90399E6
:10536000FBF79AF912D293490398884202DDC8F8F4
:1053700000B005E0E068801EFBF745F9C8F80000C2
:10538000D8F8081081F00041C8F80810039810F10F
:10539000FF4F07D3C8F800B0D8F8081081F00041DB
:1053A000C8F808100027BAF1000F37D12069801F14
:1053B000854233D3F02D31D226462079FBF723F9ED
:1053C0000399FBF769F929D830790C30FBF71BF901
:1053D0000399FBF76BF921D80127C82141F28830E6
:1053E000FFF70AFD3069801FFBF70DF9C8F80400CC
:1053F000D8F80C004646B0F5000F02DB80F0004004
:10540000F060FAF71DFFFBF7F5F86FF01D01FAF7F2
:10541000B5FF4FF07E51FAF7ABFFB0605AEA0700D4
:1054200026D12069801E854201D8029800B3F02D54
:1054300007D9C82140F6C410FFF7DEFCC8F804B055
:1054400010E0029870B9C8214FF4FA60FFF7D4FC5D
:1054500020692646401EFBF7D6F8C8F80400B0784D
:10546000401EB070D8F80C1081F00041C8F80C1044
:105470004546D8F80400FBF7DCF8C6B22868FBF70D
:10548000D8F80221CDE9001B494A0B46C0B2113AB7
:105490003146CDF808B0FFF7D9FC6868FBF7C9F8CA
:1054A000C6B22868FBF7C5F8C0B20823022231460D
:1054B000FFF7B6FD207858B3002784F800B03E46C9
:1054C0000025A068C05DC8B90821CDE9001B384A95
:1054D00001EB85084FEA860908F0FF0109F0FF009B
:1054E00003230F3ACDF808B0FFF7B0FC08F0FF0136
:1054F00009F0FF0008230322FFF792FD7F1C6D1CBB
:10550000EDB2FFB2052DDCD3761CF6B2202ED7D338
:10551000E28829A109A8FFF7B7F900231A4619461E
:1055200009A8FFF79BFDA078FF2827D0002522E0DF
:10553000A0784FF00801CDE9001B8542CDF808B0F6
:10554000207B4FF0070300EBC500A0F11800C0B2AC
:1055500001D21A4A00E0164A0121FFF777FC207BAE
:10556000082300EBC5001838C0B207220121FFF75D
:1055700057FD6D1CEDB2E0788542D9D3E088A028B4
:1055800005D32023322200210DA0FFF7BFFDA07814
:10559000FF2805D12023222200210BA0FFF7B6FD12
:1055A0000FB0BDE8F08F000004010020D43E0020C1
:1055B0008383000800007043257500008F83000876
:1055C00057494E210000000047414D454F56455276
:1055D000210000001CB5424A111F081FFDF7B8FE4C
:1055E0003F4C143CA061FFF72DFDFFF717FDFFF7BF
:1055F00015FCFBF7F7FA3B480090002301224FF41B
:10560000FA6139A002F0FCF9206302F079F8024651
:105610004FF0FF30009000230121206B02F03AFA96
:10562000002208210A2001F0B1FC20621E2001F0B6
:10563000A9FCE061FBF7B6FB6062FBF7BFFBA06271
:10564000FBF7B6FBE062E169606A01F07FFCE169AB
:10565000A06A01F07BFCE169E06A01F077FC0025BB
:105660001827CDE900752B46802222A1244801F09D
:10567000E1FFCDE900750023802222A1244801F03A
:10568000D9FF6570E0684008FAF7BDFF214E306031
:1056900020690A38FAF7B7FF70604FF03F40B060FA
:1056A0001D48F060A02000F0E5FDA021A060FAF701
:1056B000F2FD0320E070A070E580A089FA2101EBE3
:1056C00050002071CDE900750023802213A11748F6
:1056D00001F0B0FFFFF7A0FD322001F089F8F9E7F3
:1056E000180100208D0B000864687431315F746903
:1056F0006D6572004D5055363035305461736B0016
:105700001D360008496E7075745461736B0000009B
:10571000D9320008D43E00209A9919BF706C617488
:10572000666F726D5F7461736B0000001159000841
:10573000FCF7EEF8FEF786FEFEF708F9FEF7B6F97D
:10574000FEF774F8FEF7D2F9FEF712FBFEF7F2F956
:10575000FEF758FAFEF7B4FAFEF7EEFA00F04AF850
:10576000FEF78CF800F062F8FEE70000F0B50B30B1
:10577000154D20F007010024144A0FE003688B4206
:105780000BD38B4205D95E1A43184768C3E90067FB
:1057900000E04368136002C004E0021D10680028A6
:1057A000ECD12046002802D1286808B10020F0BDC5
:1057B000064A07481060074A121A22F00702C0E999
:1057C000002401202860D7E7500100204C01002070
:1057D000EC3E0020E840002070B5054600244FF460
:1057E0007A7603E0304600F035FE641CAC42F9DB0B
:1057F00070BD0000EFF3058058B9EFF3108040B999
:1058000009490868022801D030B109E0EFF311809E
:1058100030B16FF00500704701200860002070472C
:105820004FF0FF30704700007000002010B5EFF31C
:10583000058060B9EFF3108048B90B490868022869
:1058400002D0012806D00BE0EFF3118040B16FF0D9
:10585000050010BD0220086001F0C6F9002010BD4F
:105860004FF0FF3010BD000070000020F0B585B093
:105870004FEA01034FF00004EFF305810394A1BB4D
:10588000EFF3108189BB21490968022902D1EFF3A6
:10589000118151BB48B3802618218DF8104004AD0A
:1058A00042B3176807B13D4697691FB139467F1E5D
:1058B000382F02D21779FF0702D0002005B0F0BDC3
:1058C000576907B1BE08D2F808C0BCF1000F0DD06F
:1058D000D4685C2C18D312693AB137B18DE8061040
:1058E0003246294601F0D3FE03900DE0D7685FB938
:1058F00012694AB903AACDE90012B2B2294601F0F1
:1059000099FE012800D003940398D7E77000002087
:105910002E4C86B0002625790827CDE90076029620
:10592000207C0C230838C1B2294A2846FFF78EFA9A
:10593000207C08230838C1B20C222846FFF770FBF0
:105940004FF0FF38424603A9206A01F0D7FC0498C3
:105950006070CDE900760296207C1D4A0838C1B2FD
:105960000C230C322846FFF771FA207C08230838F4
:10597000C1B20C222846FFF753FB6078012802D001
:10598000022802D003E0ED1C00E0ED1EEDB26670CF
:10599000FA2D01D9002504E0E0680C38854200D9D1
:1059A000C5B2CDE900760296207C0C230838C1B23E
:1059B000074A2846FFF74AFA207C08230838C1B274
:1059C0000C222846FFF72CFB2571BBE704010020C1
:1059D000778300082DE9F041134C0F4605466669B0
:1059E0002068001D00F052FD681C07D137B1216806
:1059F000BDE8F0410D48091D00F01ABE206835448D
:105A0000B5424560216805D2A068BDE8F041091D96
:105A100000F0F6BD6068091D00F0F2FD206B8542C4
:105A200000D22563BDE8F081200000203C1000205A
:105A30002DE9F041054600F007FE2D4C2069401C81
:105A4000206120682B4F10B1E06930B32BE0256056
:105A50002069012827D1002606EB860007EB80008D
:105A600000F0C0FD761C382EF6D3234800F0BAFDB6
:105A70002148143000F0B6FD1F48283000F0B2FD78
:105A80001D483C3000F0AEFD1B48503000F0AAFD30
:105A9000194860601430A06005E02068E96AC06AB7
:105AA000884200D82560E06A401CE0626864E86AC9
:105AB000A169884200D9A06100EB800007EB80005B
:105AC000291D00F0B5FD00F0DFFDE06900280CD0D5
:105AD0002068E96AC06A884207D208494FF08050BE
