:020000040800F2
:100000006020002099010008A30F00089F0E00083F
:10001000A10F000855020008551300080000000059
:1000200000000000000000000000000001010008C6
:10003000570200080000000045010008AD0F00084D
:10004000B3010008B3010008B3010008B3010008C0
:10005000B3010008B3010008B3010008B3010008B0
:10006000B3010008B3010008B3010008B3010008A0
:10007000B3010008B3010008B3010008B301000890
:10008000B3010008B3010008B3010008B301000880
:10009000B3010008B3010008B3010008B301000870
:1000A000B3010008B3010008B3010008B301000860
:1000B000B3010008B301000839100008B3010008BB
:1000C000B3010008B3010008B3010008B301000840
:1000D000B3010008B3010008B3010008B301000830
:1000E000B3010008B3010008B3010008DFF80CD029
:1000F00000F09EF8004800473915000860200020F5
:10010000224B19680868B0E8F00F80F30988BFF344
:100110006F8F4FF0000080F311884EF00D0E704786
:100120000000000006480068006880F3088862B696
:1001300061B6BFF34F8FBFF36F8F00DF00BF00BF0B
:1001400008ED00E0EFF30980BFF36F8F0F4B1A68E3
:1001500020E9F00F106008B54FF0500080F31188CF
:10016000BFF34F8FBFF36F8F02F0F2F84FF0000034
:1001700080F31188BDE8084019680868B0E8F00FFE
:1001800080F30988BFF36F8F704700BF1400002011
:10019000EFF3058070470000064880470648004797
:1001A000FEE7FEE7FEE7FEE7FEE7FEE7FEE7FEE727
:1001B000FEE7FEE737100008ED00000840EA010303
:1001C0009B0703D009E008C9121F08C0042AFAD20D
:1001D00003E011F8013B00F8013B521EF9D27047D1
:1001E000D2B201E000F8012B491EFBD27047002279
:1001F000F6E710B513460A4604461946FFF7F0FF26
:10020000204610BD30B50B460146002020220124B7
:1002100009E021FA02F59D4205D303FA02F5491BD4
:1002200004FA02F52844151EA2F10102F1DC30BDEA
:10023000064C074D06E0E06840F0010394E8070033
:1002400098471034AC42F6D3FFF754FF982D0008BE
:10025000B82D0008FEE7704772B6FEE72DE9F84FAB
:10026000DFF8B8910024A9F1040B23460F2709F108
:10027000040AABF1040EC9E00125A5402A40AA42B8
:100280007DD1674ED1F804C0ACEB0608B44532D03E
:1002900014DCBCF1030F3AD009DCBCF1000F2AD00A
:1002A000BCF1010F1CD0BCF1020F31D11DE0BCF13B
:1002B000110F17D0BCF1120F2AD119E0B8F5881F21
:1002C00019D006DCB8F5803F15D0B8F5801F1FD1D6
:1002D00011E0B8F5001F0ED0B8F5041F18D10AE0E0
:1002E000CB6815E0CB681B1D12E0CB6808330FE02C
:1002F000CB680C330CE08B682BB1012B4FF008035B
:1003000003D0456104E0042302E0056100E000231E
:10031000FF2A01D8064601E000F104064FEA8405F1
:1003200001D9A5F12005D6F8008007FA05FC28EAD6
:100330000C0803FA05F548EA0508C6F800804D6880
:10034000ED0062D5374DAE6946F00106AE61AD698C
:1003500024F0030605F001050095334D06EB050C6E
:10036000DCF80850A607360F07FA06F825EA080554
:10037000DFF8B880404503D14FF0000817E044E0B3
:10038000DFF8AC80404502D14FF001080FE0DFF804
:10039000A480404502D14FF0020808E0DFF89880C1
:1003A000404502D14FF0030801E04FF0040808FA7D
:1003B00006F848EA0508CCF808804D68D9F80060CE
:1003C000ED024D4601D5164300E096432E604D6880
:1003D000DAF80060AD02554601D5164300E09643B9
:1003E0002E604D68DBF80060AD035D4601D5164315
:1003F00000E096432E604D68DEF80060ED03754620
:1004000001D5164300E096432E60641C0D682A4611
:10041000E5407FF431AFBDE8F88F000008040140EB
:1004200000001110001002400000014000080140CF
:10043000000C014000100140001401408068084099
:1004400000D0012070470AB1016170470904FBE741
:10045000014880687047000004000020024881685D
:10046000027811448160704704000020074810B5ED
:10047000016841F010010160032000F09DF80F2099
:1004800000F006F800F050F8002010BD00200240F7
:1004900030B505461F4887B0C16941F00401C1610C
:1004A000C06906A900F00400009001A800F02CF932
:1004B0000498B0B100F048F940001749174AB0FB62
:1004C000F1F11748491E0260416040F2E732002115
:1004D000C0E903218160816100F00EFB040003D0BC
:1004E00015E000F031F9E8E70D4800F033FB0400B7
:1004F0000DD11E2000F032F8102D07D2002229461F
:100500001E2000F039F80748056000E0012407B01C
:10051000204630BD0010024040420F00000800405D
:1005200044030020080000200B4882B0816941F09C
:1005300001018161816901F001010091C16941F00E
:100540008051C161C069002200F0805000900F21ED
:10055000901E02B000F010B800100240002809DB25
:1005600000F01F02012191404009800000F1E020CD
:10057000C0F8001170470000F0B40E4B1B680C4629
:10058000C3F30223C3F10705042D00D90425191D67
:10059000072901D2002300E0DB1E012606FA05F13F
:1005A000491E214099409E40761E16403143F0BCC2
:1005B00000F0E2BE0CED00E0064900F0070208681A
:1005C0004FF6FF03184040EA0220034A1043086038
:1005D000704700000CED00E00000FA052DE9F0473F
:1005E0000F46050061D0434E306800F00700B84266
:1005F00009D2306820F0070038433060306800F0DE
:100600000700B84251D128683B4C810712D54007FA
:1006100003D5606840F4E06060602878000703D587
:10062000606840F4605060606068A96820F0F00085
:10063000084360602878C00728D06868012810D077
:100640002168022810D0890700292EDA616821F07C
:10065000030101436160FFF7FBFE804641F28839E8
:100660000DE021688903EFE78901EDE7FFF7F0FE70
:10067000A0EB0801494502D90320BDE8F087606876
:10068000696800F00C00B0EB810FEFD1306800F02A
:100690000700B8420BD9306820F0070038433060BB
:1006A000306800F00700B84201D00120E5E7287863
:1006B000400705D56068E96820F4E06008436060A1
:1006C0002878000706D56068296920F4605040EA60
:1006D000C100606000F058F86168084AC1F3031176
:1006E000515CC8400649086006480068FFF7D0FE24
:1006F0000020C2E70020024000100240722D0008D6
:1007000010000020080000200F2202600C4A5368ED
:1007100003F003034360536803F0F00383605368FE
:1007200003F4E063C36052684FF4E06303EAD2026B
:1007300002610448006800F007000860704700008C
:100740000010024000200240044805490068496842
:10075000044AC1F30221515CC840704710000020D8
:1007600000100240822D00080448054900684968CD
:10077000044AC1F3C221515CC840704710000020F8
:1007800000100240822D00080E4A51680E4801F008
:100790000C03042B11D0082B0FD10C48C1F3834359
:1007A000C903C05C0AD55168084AC1F34041921E92
:1007B000515C054A5043B0FBF1F07047044948438F
:1007C000704700000010024000127A00622D0008FD
:1007D00000093D002DE9F84F040070D02078C04D8D
:1007E000C00749D06868C0F38100012807D0686855
:1007F000C0F38100022809D16868C00306D52868C3
:10080000800339D560680028E7D035E06068B0F52E
:10081000803F0BD010B1B0F5A02F11D0286820F484
:1008200080302860286820F4802002E0286840F4A6
:1008300080302860606890B1FFF70AFE06460AE043
:10084000286840F480202860F0E700BFFFF700FE32
:10085000801B642873D828688003F7D50CE0FFF765
:10086000F7FD064605E000BFFFF7F2FD801B642898
:10087000F0D828688003F7D420789A4E80074FF08C
:1008800001094FF0000839D5686810F00C0F07D047
:100890006868C0F38100022809D16868C00306D4E3
:1008A0002868800714D52069012808D110E0206944
:1008B000B0B1C6F80090FFF7CBFD074605E00AE1AE
:1008C000FFF7C6FDC01B0228C4D828688007F7D5EB
:1008D0002868616920F0F80040EAC10028600DE056
:1008E000C6F80080FFF7B4FD074604E0FFF7B0FD4F
:1008F000C01B022823D828688007F7D42078000777
:100900002CD57948A169D9B1C0F80090FFF7A0FDB6
:10091000074604E0FFF79CFDC01B02280FD8686A59
:100920008007F7D571484FF4FA510068B0FBF1F039
:10093000009000BF0098411E0091FAD20EE080E0C6
:10094000C0F80080FFF784FD074604E0FFF780FD54
:10095000C01B022875D8686A8007F7D42078400742
:1009600060D5E8690027C00008D4E86940F08050ED
:10097000E861E869012700F0805000905C48016858
:10098000C90513D40168834641F480710160FFF703
:100990005FFD824606E000BFFFF75AFDA0EB0A00AC
:1009A00064284ED8DBF80000C005F5D5E0680128C2
:1009B0000AD008B1052813D0286A20F00100286267
:1009C000286A20F0040002E0286A40F00100286252
:1009D000E06841F2883B98B1FFF73AFD82460BE0B0
:1009E000286A40F004002862EEE700BFFFF730FD00
:1009F000A0EB0A0159455AD8286A8007F6D50CE0C1
:100A0000FFF726FD824605E0FFF722FDA0EB0A0175
:100A100059454CD8286A8007F6D41FB1E86920F000
:100A20008050E861E06988B36968C1F381010229F7
:100A300044D00228C6F8608004D0FFF709FD0446C0
:100A400038E034E0FFF704FD074604E0FFF700FD5F
:100A5000C01B02282BD828688001F7D4206AB0F583
:100A6000803F05D16868A16820F4003008436860C1
:100A7000D4E908010843696821F4741108436860E7
:100A8000C6F86090FFF7E4FC044606E025E000BFEE
:100A9000FFF7DEFC001B022809D828688001F7D583
:100AA0001BE000BFFFF7D4FC001B022802D9032083
:100AB000BDE8F88F28688001F4D40EE00128F7D053
:100AC0006868226A00F48031914204D1616A00F4BE
:100AD0007010884201D00120EAE70020E8E700001A
:100AE00000100240000042428004424210000020F8
:100AF000007000407047704710B5040003D094F8B0
:100B00003D0010B107E0012010BD002084F83C003A
:100B1000204600F01EF8022084F83D00211D2068C8
:100B200000F096FA012084F8460084F83E0084F82C
:100B30003F0084F8400084F8410084F8420084F8C3
:100B4000430084F8440084F8450084F83D00002008
:100B500010BD704790F83D10012901D00120704769
:100B6000022180F83D100168CA6842F00102CA60A3
:100B700000680B49884208D0B0F1804F05D0094980
:100B8000884202D00849884204D1816801F00701F7
:100B9000062903D0016841F001010160002070477F
:100BA000002C01400004004000080040704770B570
:100BB0000446006801694FF00005C943890715D450
:100BC000C168C943890711D4E91E0161012020775A
:100BD000206880698007204602D0FFF7E7FF04E025
:100BE00000F098F8204600F096F825772068016913
:100BF000C943490717D4C168C943490713D46FF0E3
:100C000004010161022020772068806910F4407F90
:100C1000204602D0FFF7CAFF04E000F07BF8204630
:100C200000F079F8257720680169C943090716D4CF
:100C3000C168C943090712D46FF00801016104209B
:100C400020772068C0698007204602D0FFF7AEFFFA
:100C500004E000F05FF8204600F05DF8257720689A
:100C60000169C943C90617D4C168C943C90613D469
:100C70006FF010010161082020772068C06910F42E
:100C8000407F204602D0FFF791FF04E000F042F8D9
:100C9000204600F040F8257720680169C943C9075C
:100CA00008D1C168C943C90704D1891E0161204622
:100CB00000F032F820680169C943090609D4C16807
:100CC000C943090605D46FF0800101612046FFF792
:100CD00011FF20680169C943490609D4C168C943A5
:100CE000490605D46FF040010161204600F01EF86E
:100CF00020680169C94389060BD4C168C9438906C4
:100D000007D46FF0200101612046BDE87040FFF775
:100D1000F2BE70BD7047704700680349884201D138
:100D2000FFF79CBB7047000000080040704770B59B
:100D3000040004D094F84100002510B106E0012021
:100D400070BD84F84050204600F024F8242084F838
:100D500041002068C16821F40051C160204600F0C4
:100D600061FA2068016921F49041016120684169BC
:100D700021F02A0141612068C16841F40051C1603D
:100D80006564202084F8410084F8420065630020F7
:100D900070BD000030B585B0002400940194029429
:100DA000039400681449884224D11448816941F4AD
:100DB00080418161816901F480410491816941F040
:100DC0000401816180690E4D00F0040004904FF42D
:100DD000007000900220019003200390694628468D
:100DE000FFF73CFA2815CDE900046946284602942D
:100DF000FFF734FA05B030BD003801400010024062
:100E0000000801402DE9F843044690F841001F46D0
:100E100016460D46202802D00220BDE8F8837DB199
:100E200076B100206064212084F84100FFF710FBB8
:100E3000A6848046E684A068B0F5805F02D003E017
:100E40000120EAE7206910B12E4600250EE00026B9
:100E50000CE08021204600F041FAA0B9AEB116F8AE
:100E6000010B21684860E08C401EE084E08C434622
:100E70004FF0000200970028EBD14FF040012046D0
:100E800000F02CFA30B10320C7E735F8020BC0F3AD
:100E90000800E6E7202084F841000020BDE7FEE7D7
:100EA0003EB50F4A00210F4800F0B4FB0E4918244C
:100EB000002308600D488022CDE900400CA10E48B7
:100EC00001F02EFD0D480094A0F50071CDE9011050
:100ED000002380220AA10C4801F04FFD3EBD000016
:100EE0003C2D0008A50F0008000000209400002001
:100EF0005461736B31000000BD100008A002002097
:100F00005461736B3200000035110008144800B5BD
:100F1000816985B041F020018161816901F0200182
:100F20000491816941F004018161816901F004014A
:100F30000491816941F0100181618069694600F086
:100F400010000490012001904003009000200290C6
:100F5000032003900348FFF781F905B000BD0000AE
:100F600000100240001001400C4810B50A49016011
:100F70004FF4E1314160002181600C22C160C0E981
:100F800004128161C161FFF7D2FE002803D0BDE8E1
:100F90001040FFF761B910BD00380140FC0200208D
:100FA000FEE7FEE7012000F0DFFAFBE710B5502076
:100FB00080F31188BFF34F8FBFF36F8F01F01CFDDB
:100FC00018B104494FF080500860002080F3118868
:100FD00010BD000004ED00E030B58FB02821684658
:100FE000FFF705F914210AA8FFF701F90121080408
:100FF000CDE900100024029402250491CDE90750A8
:101000004FF4E01009906846FFF7E4FB08B172B6B0
:10101000FEE70F20CDE90A054FF48060CDE90C40D2
:1010200002210AA80E94FFF7D9FA002801D072B65F
:10103000FEE70FB030BD704703480168491C0160EE
:101040000248FFF7B4BD00008C00002044030020DC
:10105000F0B50268164B174C174D4FF08047984279
:1010600005D0B84203D0A04201D0A84203D122F05B
:1010700070064A683243984205D0B84203D0A04275
:1010800001D0A84203D122F44074CA6822434C69BB
:1010900022F08002224302608A68C2620A68826289
:1010A000984201D10969016301214161F0BD00004D
:1010B000002C01400004004000080040002401F022
:1010C00095FC0EA000F048F9104D28680028FCD0CF
:1010D000641CE4B201F08AFC06460A2001F03CF8E8
:1010E0006868401C686001F081FC811B08A000F06A
:1010F00033F921460BA000F02FF9E6E76372656132
:1011000074655F7461736B310D0A000094000020F8
:101110007461736B315F74696D653D2564206D7317
:101120000D0A00007461736C315F6E756D3D25644E
:101130000D0A00001CB5002420A000F00DF9234E7C
:10114000DFF88C80234F4FF4005500BF01F04EFCB8
:10115000641CE4B201F02EF901461FA000F0FCF877
:1011600029463046FFF76AF908B1002200E0012263
:1011700029463046FFF767F90A2C18D9D8F800003D
:10118000002440B101F00EF815A000F0E5F80021B0
:10119000C8F800100BE01820CDE9000800238022D9
:1011A00013A1154801F0BCFB14A000F0D5F8396874
:1011B0000029CBD015A000F0CFF8C7E763726561B6
:1011C00074655F7461736B320D0A0000001001409A
:1011D000940000209000002025640D0A000000000B
:1011E0005461736B312044656C6574650D0A0000B1
:1011F0005461736B31000000BD1000085461736BC3
:101200003120437265617465200D0A005461736B6F
:1012100053757370656E645F5265636F72643D25CC
:10122000640D0A0070B5044600680169E26821F4A3
:101230004051114301612169A06808436169084375
:101240002168CA6841F20C639A430243CA6020686D
:101250004169A26921F44071114341611E4920682E
:10126000884202D1FFF780FA01E0FFF76DFA00EB48
:10127000C00101EB0012606864218000B2FBF0F352
:10128000B3FBF1F36FF018067343B2FBF0F5B2FB5A
:10129000F0F605EB8305322303EB0515B5FBF1F5FD
:1012A000B6FBF1F605F0F00505EB0615B2FBF0F61E
:1012B000B2FBF0F0B0FBF1F06FF01802504306EB18
:1012C000800003EB0010B0FBF1F0216800F00F008C
:1012D0002844886070BD0000003801402DE9F041CD
:1012E000984617460E460446069D27E0681C25D002
:1012F0002DB1FFF7ADF8A0EB0800A8421ED9206879
:101300000C3050E8001F21F4D07140E80012002A90
:10131000F5D12068143050E8001F21F0010140E8A9
:101320000012002AF5D1202084F8410084F8420000
:10133000002084F840000320BDE8F08120680068A8
:1013400036EA000004D00020B842CFD00020F3E7F6
:101350000120F9E7FEE700000FB4054B10B503A923
:10136000044A029800F028F810BC5DF814FB000055
:101370000D1500089C0000200907090E002804DB59
:1013800000F1E02080F80014704700F00F0000F139
:10139000E02080F8141D704702E008C8121F08C141
:1013A000002AFAD170477047002001E001C1121FE6
:1013B000002AFBD1704700002DE9FF4F89B09B4602
:1013C0000446002506E025280BD05A460B99904785
:1013D000641C6D1C20780028F5D10DB02846BDE8AE
:1013E000F08F0027B8460122474900E0074314F870
:1013F000013F203B02FA03F00842F7D120782E2863
:1014000019D114F8010F47F004072A280ED06FF005
:101410002F022078A0F1300109290CD808EB8801AF
:1014200002EB410100EB0108641CF2E70A98641C1E
:1014300050F8048B0A9020780028CED0642808D079
:10144000692806D075281ED05A460B9990476D1C06
:1014500058E00A994FF00A0901C90A91002802DAF6
:1014600040422D2102E0390504D52B218DF82010B2
:10147000012103E0F90704D02021F7E78A4608AEEE
:101480000DE00021FAE70A994FF00A0901C90A9113
:10149000F7E74946FEF7B6FE303106F8011D002891
:1014A000F7D1ADEB060000F12009780701D44FF029
:1014B0000108C84502DDA8EB090000E000208046D5
:1014C000002706E008A85A46C05D0B9990476D1C9E
:1014D0007F1C5745F6DB04E030205A460B999047B5
:1014E0006D1CB8F10001A8F10108F5DC05E016F863
:1014F000010B5A460B9990476D1CB9F10001A9F1F7
:101500000109F4DC641C65E70928010013B5084CE7
:101510000020206000F014FF4FF47A730122694626
:101520000448FFF76FFC01F043FB206000981CBDEE
:1015300090000020FC020020FEF798FFFFF74CFD12
:10154000FFF7E4FCFFF710FD04A0FFF705FF00F034
:1015500025F8FFF7A5FC00F03DF8FEE75359535F6F
:10156000496E69740D0A000010B5EFF3058149B9A1
:10157000EFF3108131B908490968022905D1EFF369
:10158000118111B16FF0050403E0002408B100F0EF
:10159000E3FD204610BD000064000020EFF305804D
:1015A00058B9EFF3108040B909490868022801D002
:1015B00030B109E0EFF3118030B16FF005007047F2
:1015C00001200860002070474FF0FF307047000096
:1015D0006400002010B5EFF3058060B9EFF31080D0
:1015E00048B90B490868022802D0012806D00BE050
:1015F000EFF3118040B16FF0050010BD02200860CC
:1016000000F05AFE002010BD4FF0FF3010BD00006A
:1016100064000020F0B585B04FEA01034FF00004EC
:10162000EFF305810394A1BBEFF3108189BB21493E
:101630000968022902D1EFF3118151BB48B380261A
:1016400018218DF8104004AD42B3176807B13D462C
:1016500097691FB139467F1E382F02D21779FF07CD
:1016600002D0002005B0F0BD576907B1BE08D2F81E
:1016700008C0BCF1000F0DD0D4685C2C18D31269DF
:101680003AB137B18DE806103246294601F075F9B6
:1016900003900DE0D7685FB912694AB903AACDE992
:1016A0000012B2B2294601F03BF9012800D00394A0
:1016B0000398D7E7640000202DE9F041134C0F4652
:1016C000054666692068001D00F016FC681C07D1FD
:1016D00037B12168BDE8F0410D48091D00F05CBC40
:1016E00020683544B5424560216805D2A068BDE850
:1016F000F041091D00F038BC6068091D00F034FCA1
:10170000206B854200D22563BDE8F08114000020E3
:101710007C0800202DE9F041054600F049FC2D4CE5
:101720002069401C206120682B4F10B1E06930B364
:101730002BE025602069012827D1002606EB8600D2
:1017400007EB800000F002FC761C382EF6D323480D
:1017500000F0FCFB2148143000F0F8FB1F48283053
:1017600000F0F4FB1D483C3000F0F0FB1B4850300B
:1017700000F0ECFB194860601430A06005E02068C0
:10178000E96AC06A884200D82560E06A401CE062CD
:101790006864E86AA169884200D9A06100EB800012
:1017A00007EB8000291D00F0F7FB00F021FCE06949
:1017B00000280CD02068E96AC06A884207D208492C
:1017C0004FF080500860BFF34F8FBFF36F8FBDE8BD
:1017D000F081000014000020CC0300202C08002021
:1017E00004ED00E038B500F0E3FB104CA068C8B988
:1017F0000F4800F0ABFB0E48143000F0A7FB0C487C
:101800002060143060600A4B00202833009003F100
:10181000500210210A2000F027FEA06010B105A19F
:1018200000F064FCBDE8384000F0E2BB500000204E
:1018300090080020546D72510000000030B4026C1A
:101840000B46002A0BD0C1681144C1604468A14214
:1018500001D30168C16030BC1846FEF7AFBC30BC94
:1018600070472DE9F041856B174604460026026C4F
:1018700082B1C7B1E068FEF7A1FCE168206C091AEB
:10188000E1602268914202D26168081AE060022F8A
:1018900016D017E02068A8B9606801F011F9064673
:1018A000002060600EE0A068FEF788FC216CA06854
:1018B0000844A0606168884204D32068A06001E009
:1018C00005B16D1E6D1CA5633046BDE8F08110B5F5
:1018D000044690F8590058B101280CD002280FD0C6
:1018E000502080F31188BFF34F8FBFF36F8FFEE757
:1018F000206B00F091FB2046BDE8104000F08CBB4F
:1019000010BD000010484FF44061420706D0C01DD2
:101910000D4920F00700411AC1F540610B4A002330
:101920000144C2E900030839103A21F007011160AF
:101930004B600B600B1AC0E9001393604FF000403E
:101940005360D060704700006010002078000020D5
:10195000144E154CA6F29C474FF08058DFF84C907F
:1019600012E000BF00F024FBF068C568281D00F0FD
:10197000C3FA2069401E2061E068401EE06000F06C
:1019800037FB2846FFF7A3FFE0680028EAD1386854
:101990000128F9D9C9F80080BFF34F8FBFF36F8FCB
:1019A000F2E70000680800201400002004ED00E0C9
:1019B00070B51D46049C51B1C4F80020C4E90F0164
:1019C0000121204600F084FD84F84C5070BD246055
:1019D000F4E72DE9F0470E46DDE909841746824613
:1019E00091009946089DA522206BFEF7F9FB6FF048
:1019F0000301206B01EB8701084420F007077807FB
:101A000007D0502080F31188BFF34F8FBFF36F8F43
:101A1000FEE72218315C82F83410315C11B1401CB1
:101A20001028F6D3002684F84360382D00D33725DC
:101A3000E562C4E91356201D00F093FA04F1180082
:101A400000F08FFA2461C5F138006462A061666518
:101A500084F858604A465146384600F03BFA206008
:101A6000B8F1000F01D0C8F80040BDE8F0870000D1
:101A700030B5114900E011460A688242FBD34B6839
:101A80005C18844203D140681844486008464368A3
:101A90001C18944209D1084C103C2468A24209D079
:101AA00052681A4442600A6812680260814200D09B
:101AB000086030BD0460F9E77800002070B50024AC
:101AC00041600B4D0061914206D8D11A8269914262
:101AD00006D2011D686807E09A4203D2994201D3F9
:101AE000012403E0011D286800F03EFA204670BD85
:101AF0005000002010B5044600F05AFAA06B28B13F
:101B00005FF0000400F074FA204610BD0124F9E7EC
:101B100030B589B0304D55E00498002806DADDE98B
:101B20000601059A9047049800284BDB069C6069E3
:101B300010B1201D00F0E0F902A800F0B9F802464B
:101B400004980A283ED2DFE800F00505053D263757
:101B500005053D260598A169034601442046FFF787
:101B6000ADFF00B3616A20468847E069012829D1AA
:101B7000002000900598A1690023421819462046CC
:101B800001F0A8F878B9502080F31188BFF34F8F87
:101B9000BFF36F8FFEE70598A06128B18118134647
:101BA0002046FFF78BFF0DE0502080F31188BFF334
:101BB0004F8FBFF36F8FFEE794F82C0010B92046CB
:101BC00000F02AFA002204A9A86800F0D3FD00283A
:101BD000A2D109B030BD0000500000202DE9FC4129
:101BE0000F46054600F0ACFB01A800F061F8044682
:101BF000019818B100F0DCFFBDE8FC81224EAFB1C6
:101C000070680068A8B30027291B3A46B06800F046
:101C100081FA00F0CDFF0028EED11C494FF0805032
:101C20000860BFF34F8FBFF36F8FE5E7A542EBD896
:101C300000F0BEFF30682746C068C468201D00F071
:101C40005BF9E069012810D1A0692B4641193A4699
:101C50002046FFF733FF40B10020034601460090C5
:101C60002A46204601F036F820B1616A20468847AE
:101C7000C2E707E0502080F31188BFF34F8FBFF316
:101C80006F8FFEE70127BFE75000002004ED00E062
:101C900006484168096829B14168C968C968496846
:101CA000016370474FF0FF31FAE700001400002095
:101CB00070B5054600F09AFE064E0446306984422F
:101CC00003D200F009F8012000E00020286020463F
:101CD000346170BD50000020F8B5194D1FE0C06898
:101CE000C4680668201D00F007F9616A204688472D
:101CF000E069012813D1A0693044B04206D92461BB
:101D00006060211D286800F02FF908E000200346DC
:101D1000014600903246204600F0DCFF38B12868CA
:101D200001680029DBD16968C5E90010F8BD5020C1
:101D300080F31188BFF34F8FBFF36F8FFEE7000072
:101D40005000002008484068401C4FF0500080F3CD
:101D5000118804D0BFF34F8FBFF36F8FFEE7BFF33F
:101D60004F8FBFF36F8FFEE780000020074C206885
:101D7000016841B1C0680021D0F80000FFF72EFFD4
:101D8000FFF7C6FEF3E701210020F7E7500000202F
:101D90002DE9F041044600F00BF994F9455004F1A7
:101DA000240609E0606A48B1304600F0C9FE08B177
:101DB00000F048FA6D1E6DB2002DF3DC4FF0FF36D7
:101DC00084F8456000F014F900F0F2F894F94450FA
:101DD00004F1100709E0206948B1384600F0B0FE70
:101DE00008B100F02FFA6D1E6DB2002DF3DC84F8FF
:101DF0004460BDE8F04100F0FBB800002DE9F0417F
:101E00000546002700F09CFA314E306808B9FFF70C
:101E100079FDF06805424BD1C5B3083568070ED08F
:101E200005F00700C0F108000544680707D05020FE
:101E300080F31188BFF34F8FBFF36F8FFEE72DB391
:101E40007068854234D82248103001460C6801E0A1
:101E500020460C466168A94202D221680029F7D1C8
:101E600031688C4224D007682168016060680837B7
:101E7000411B10290FD96019420708D0502080F368
:101E80001188BFF34F8FBFF36F8FFEE710E0416003
:101E90006560FFF7EDFD61687068401A7060B268B8
:101EA000904200D2B060F06801430020C4E9000114
:101EB00000F07EFE780707D0502080F31188BFF332
:101EC0004F8FBFF36F8FFEE73846BDE8F08100000B
:101ED0006800002010B5031F4FF080741C601B1FAA
:101EE00021F001011960191F024B0B6014394038B1
:101EF0000A6010BD451D0008D0E9013201699A60F1
:101F0000D0E901235A604A68824201D182684A605E
:101F1000002202610868401E0860086870470000DF
:101F2000034B036003F15C00086080201060704781
:101F3000A8090020044B036003F15C0008604FF423
:101F40008070106070470000040C002000F1080150
:101F50004FF0FF32C0E90112C16001610021016050
:101F6000704700210161704730B50B685A1C02D0E0
:101F700000F1080202E0026904E022465468256884
:101F80009D42FAD953684B6099608A60516008613C
:101F90000168491C016030BD42684A6093688B60EB
:101FA00093685960916008610168491C016070473D
:101FB000502080F31188BFF34F8FBFF36F8F0A4912
:101FC0004868401C486001280CD10848006810F09F
:101FD000FF0F07D0502080F31188BFF34F8FBFF35E
:101FE0006F8FFEE7704700008000002004ED00E0E6
:101FF0000849486828B1401E486001D180F3118823
:102000007047502080F31188BFF34F8FBFF36F8F5D
:10201000FEE700008000002070B5002827D0144D96
:10202000A0F108046168E868014207D1502080F3FC
:102030001188BFF34F8FBFF36F8FFEE722683AB16D
:10204000502080F31188BFF34F8FBFF36F8FFEE7EF
:102050008143616000F074F96068696808446860F1
:102060002046FFF705FDBDE8704000F0A1BD70BD42
:10207000680000204FF0E0200021016181610549E6
:102080004FF47A720968B1FBF2F1491E41610721F0
:10209000016170471000002010B5FEF779F8114972
:1020A00010280ED300F1E02090F8F0030A78904257
:1020B00007D2502080F31188BFF34F8FBFF36F8F8B
:1020C000FEE709480068896800F4E060884207D9A3
:1020D000502080F31188BFF34F8FBFF36F8FFEE75F
:1020E00010BD0000800000200CED00E010B5084B92
:1020F000002200BF53F832401CB1521C082AF9D309
:1021000010BD43F8321003EBC201486010BD00005F
:102110008C03002070B515460E460446FFF748FFB5
:1021200094F944100020491C01D184F8440094F92A
:102130004510491C01D184F84500FFF759FFA06BF9
:1021400028B92A46314604F1240000F099F82046C7
:10215000BDE87040FFF71CBE10B5020014D00F4858
:10216000806B38B1502080F31188BFF34F8FBFF3DD
:102170006F8FFEE700F0E4F800211046FFF79CFAAD
:1021800000F016FD002807D105494FF08050086087
:10219000BFF34F8FBFF36F8F10BD000014000020FE
:1021A00004ED00E070B50546FFF702FF1E4C05B9CF
:1021B0002568281DFFF7A0FEA86A18B105F11800D0
:1021C000FFF79AFEE06A401CE0622068854207D172
:1021D000291D1648FFF7E0FEE068401CE06007E0BC
:1021E0002069401E20612846FFF771FBFFF750FD74
:1021F000FFF7FEFEE069002814D02068854211D167
:10220000A06B38B1502080F31188BFF34F8FBFF31C
:102210006F8FFEE706494FF080500860BFF34F8F85
:10222000BFF36F8F70BD000014000020680800200D
:1022300004ED00E002498A6A026049694160704722
:10224000140000200149012048627047140000205A
:1022500010B50C4650B1094909681831FFF784FEE2
:102260002046BDE810400121FFF726BA502080F338
:102270001188BFF34F8FBFF36F8FFEE7140000206C
:1022800070B514460D4668B10A4909681831FFF760
:1022900083FE0CB14FF0FF3521462846BDE8704063
:1022A000FFF70ABA502080F31188BFF34F8FBFF3B6
:1022B0006F8FFEE71400002030B587B00024039430
:1022C00005AA04A903A80494FFF72AFEDDE9030187
:1022D0000094CDE90110002315A11748059A00F0DC
:1022E0004CFB164D002868631FD000F0C3FC01288A
:1022F00009D0401C19D1502080F31188BFF34F8FB3
:10230000BFF36F8FFEE7502080F31188BFF34F8F2C
:10231000BFF36F8F4FF0FF3028630120E8616C61DD
:1023200007B0BDE8304000F04BB807B030BD00004A
:1023300049444C45000000005119000814000020D9
:102340000248816B491C8163704700001400002023
:10235000164810B5816B11B10121416210BD0021F9
:1023600041628169124A01E0B9B1491E01EB810362
:1023700052F82330002BF7D001EB810302EB8302EC
:1023800002F1080453685B685360A34201D15B68A3
:102390005360DA680260816110BD502080F31188BB
:1023A000BFF34F8FBFF36F8FFEE7000014000020D4
:1023B000CC030020014840687047000068000020FE
:1023C0001CB5264908780190FF20087008788DF820
:1023D00000009DF800009DF8002000F0F000904201
:1023E00007D0502080F31188BFF34F8FBFF36F8F5A
:1023F000FEE79DF800001A4B00F05000187007200F
:10240000986005E09DF8002052008DF80020401EE5
:102410009DF800201206F5D49860032807D05020BC
:1024200080F31188BFF34F8FBFF36F8FFEE74FF438
:1024300040709860019808700A48016841F4700182
:102440000160016841F070410160FFF713FE002058
:102450005860FDF767FE00201CBD000000E400E0AE
:102460008000002020ED00E038B5049D18B153B184
:10247000CAB181B120E0502080F31188BFF34F8FA3
:10248000BFF36F8FFEE7502080F31188BFF34F8FAB
:10249000BFF36F8FFEE7502080F31188BFF34F8F9B
:1024A000BFF36F8FFEE739B1502080F31188BFF37F
:1024B0004F8FBFF36F8FFEE750241C46012384F833
:1024C00046302B460094FFF773FA204638BD0000D3
:1024D00070B50D46040025D0FFF76AFDD4E90F2042
:1024E000216802FB001161600021A1632168A160E5
:1024F0000A46D4E90F01401E00FB0121E16021469C
:102500004FF0FF3001F8440F487004F110008DB116
:10251000FFF71CFD04F12400FFF718FDFFF768FD2D
:10252000012070BD502080F31188BFF34F8FBFF39F
:102530006F8FFEE721690029F0D000F001FB002831
:10254000ECD004494FF080500860BFF34F8FBFF3C9
:102550006F8FE3E704ED00E02DE9FF4782B01D46F1
:102560008A464FF00008040003D0BAF1000F08D0EB
:1025700011E0502080F31188BFF34F8FBFF36F8FAE
:10258000FEE7206C38B1502080F31188BFF34F8FE5
:10259000BFF36F8FFEE7022D0AD1E06B012807D051
:1025A000502080F31188BFF34F8FBFF36F8FFEE78A
:1025B00000F00EFA3F4F4FF000094FF0805648B937
:1025C000049838B1502080F31188BFF34F8FBFF3C8
:1025D0006F8FFEE7FFF7ECFCA06BE16B884207D33F
:1025E000022D05D00498D0B1B8F1000F1AD01EE02A
:1025F0002A4651462046FFF734F9616A19B104F1C1
:10260000240000F09DFA20B13E60BFF34F8FBFF36E
:102610006F8FFFF7EDFC012006B0BDE8F087FFF7F4
:10262000E7FC22E06846FFF705FE4FF00108FFF7E0
:10263000DFFCFFF785FEFFF7BBFC94F94400401C6C
:1026400001D184F8449094F94500401C01D184F8EC
:102650004590FFF7CDFC04A9684600F027F930B19A
:102660002046FFF795FB00F0A3FA0020D4E7FFF720
:102670009FFCA06BE16B884213D1FFF7B9FC04F11A
:1026800010000499FFF7E4FD2046FFF781FB00F0FE
:102690008FFA00289ED13E60BFF34F8FBFF36F8F3C
:1026A00098E7FFF7A5FC2046FFF772FB00F080FAE1
:1026B00090E7000004ED00E02DE9F0471F4690464A
:1026C0008946040003D0B9F1000F08D011E0502072
:1026D00080F31188BFF34F8FBFF36F8FFEE7206C3D
:1026E00038B1502080F31188BFF34F8FBFF36F8F45
:1026F000FEE7022F0AD1E06B012807D0502080F3BB
:102700001188BFF34F8FBFF36F8FFEE7FFF7C4FC55
:102710005020EFF3118680F31188BFF34F8FBFF382
:102720006F8FA06BE16B884206D3022F04D000208C
:1027300086F31188BDE8F08794F945503A4649463A
:102740002046FFF78EF8681C04D06D1C84F84550B5
:102750000120EDE7606A0028FAD004F1240000F0BF
:10276000EFF90028F4D0B8F1000FF1D00121C8F83A
:102770000010EDE72DE9F747002683B08A460400F4
:1027800003D0BAF1000F08D011E0502080F3118877
:10279000BFF34F8FBFF36F8FFEE7206C38B150202F
:1027A00080F31188BFF34F8FBFF36F8FFEE700F008
:1027B0000FF9DFF8F4804FF000094FF0805748B967
:1027C000059838B1502080F31188BFF34F8FBFF3C5
:1027D0006F8FFEE7FFF7ECFBA56BC5B151462046B6
:1027E000FFF72CF86D1EA563206950B104F11000AD
:1027F00000F0A6F928B1C8F80070BFF34F8FBFF3FF
:102800006F8FFFF7F5FB012006B0BDE8F087059854
:1028100008B11EB106E0FFF7EBFB27E06846FFF7C3
:1028200009FD0126FFF7E4FBFFF78AFDFFF7C0FB78
:1028300094F94400401C01D184F8449094F9450077
:10284000401C01D184F84590FFF7D2FB05A96846EA
:1028500000F02CF8002820460AD0FFF799FA00F083
:10286000A7F92046FFF746F90028B3D00020CBE7B0
:10287000FFF740F990B104F124000599FFF7E8FC57
:102880002046FFF785FA00F093F90028A2D1C8F896
:102890000070BFF34F8FBFF36F8F9BE72046FFF7AA
:1028A00077FA00F085F995E704ED00E02DE9F041B5
:1028B0000C46050011D0C4B1FFF77AFB174B5A69DB
:1028C0006E682068911B471C17D02F689B6A9F4237
:1028D00019D0964217D8012410E0502080F31188B7
:1028E000BFF34F8FBFF36F8FFEE7502080F3118847
:1028F000BFF34F8FBFF36F8FFEE70024FFF778FB26
:102900002046BDE8F081884205D9401A206028465B
:10291000FFF790FCF1E700202060DCE714000020C6
:102920002DE9FF5F8346DDE90E87994616468A4604
:102930009000FFF763FA05001CD05C20FFF75EFAF9
:10294000040014D00020256384F85900CDE902402A
:10295000CDE900874B46324651465846FFF739F8D5
:102960002046FEF7D7FE012004B0BDE8F09F2846C0
:10297000FFF752FB4FF0FF30F6E7F0B585B0DDE929
:102980000B640A9DA6B1DCB15C2700972663022682
:1029900084F85960002604AFCDE90246CDE900571E
:1029A000FFF717F82046FEF7B5FE049805B0F0BD16
:1029B000502080F31188BFF34F8FBFF36F8FFEE776
:1029C000502080F31188BFF34F8FBFF36F8FFEE766
:1029D0000548C16919B1806B18B10020704701200A
:1029E0007047022070470000140000200148406931
:1029F00070470000140000202DE9F0412E4C002704
:102A0000A06B40B1206A401C2062606A00B10127BF
:102A10003846BDE8F0816669761C666113D160684E
:102A2000006838B1502080F31188BFF34F8FBFF397
:102A30006F8FFEE76068A1686160A060A06A401CBB
:102A4000A062FFF725F9206BDFF87080864209D37A
:102A50006068006880B16068C068C5686868864260
:102A60000DD220632068C06A00EB800158F8210075
:102A70000128CAD90127C8E74FF0FF30F1E7281D28
:102A8000FFF73AFAA86A18B105F11800FFF734FA0F
:102A9000E86AA169884200D9A06100EB800108EBD7
:102AA0008100291DFFF778FAE86A2168C96A88421F
:102AB000CED30127CCE7000014000020CC03002077
:102AC00070B504004FF0000133D01B4D28688442DC
:102AD00007D0502080F31188BFF34F8FBFF36F8F63
:102AE000FEE7206D38B1401E2065E36CE26A9A4231
:102AF0001FD040B11DE0502080F31188BFF34F8FED
:102B0000BFF36F8FFEE7201DFFF7F6F9E06CE06280
:102B1000C0F13800A061E06AA969884200D9A861C3
:102B2000064900EB800001EB8000211DFFF734FA1D
:102B30000121084670BD000014000020CC030020D5
:102B400070B5C068C46854B104F118000646FFF7B8
:102B5000D3F9144DA86B50B13146134815E05020FD
:102B600080F31188BFF34F8FBFF36F8FFEE7201DF7
:102B7000FFF7C2F9E06AA969884200D9A8610B4948
:102B800000EB800001EB8000211DFFF705FAE06AF1
:102B90002968C96A884202D90120686270BD002094
:102BA00070BD00001400002054080020CC03002059
:102BB0002DE9F0472C4D00242746A86B38B1FFF7CC
:102BC000F7F9A86B401EA863A86B40B146E05020FF
:102BD00080F31188BFF34F8FBFF36F8FFEE7296932
:102BE000224E0120D1B3A6F5916980463068E0B14C
:102BF000F068C46804F11800FFF77EF9201DFFF7A4
:102C00007BF9E06AA969884200D9A86100EB8001DC
:102C100009EB8100211DFFF7BFF9E06A2968C96A45
:102C20008842E3D3C5F82480E0E70CB1FFF730F821
:102C30002C6A4CB14FEA0806FFF7DEFE00B16E6267
:102C4000641EF9D100202862686A38B1084901275A
:102C500038070860BFF34F8FBFF36F8FFFF7C8F9D6
:102C60003846BDE8F087000014000020540800201A
:102C700004ED00E010B586B0FEF7B4FD114CA0687D
:102C8000B8B100200390049005AA04A903A8FFF797
:102C900051F9DDE9032102208DE8070000230AA194
:102CA0000B48059AFFF769FEE06010B106B00120FD
:102CB00010BD502080F31188BFF34F8FBFF36F8F8B
:102CC000FEE7000050000020546D72205376630030
:102CD0006D1D00082DE9FF411E46134602000A9DA6
:102CE0004FF0000016D0144CA768002F0FD0CDE98C
:102CF00000130292062917DAFFF76AFE02284FF046
:102D000000030FD000226946A068FFF725FC04B03D
:102D1000BDE8F081502080F31188BFF34F8FBFF3DF
:102D20006F8FFEE72A46EEE70023324669463846B3
:102D3000FFF7C2FCEBE70000500000208C2D0008DC
:102D40000000000000000000000000000000000083
:102D50000002000018000000000000000000000059
:102D6000010202030405060708090A0B0C0D0E0FE9
:102D7000101000000000000000000102030406071C
:102D80000809000000000102030400006465666198
:102D9000756C745461736B00B82D0008000000203E
:102DA000A000000098130008582E0008A000002082
:102DB000C01F0000A8130008000000000100000070
:102DC00010000000000000000024F40000000000DB
:102DD00000000000000000000000000000000000F3
:102DE00000000000000000000000000000000000E3
:102DF00000000000000000000000000000000000D3
:102E000000000000000000000000000000000000C2
:102E100000000000000000000000000000000000B2
:102E200000000000000000000000000000000000A2
:102E3000000000000000000000000000AAAAAAAAEA
:102E40000000000000000000000000000000000082
:082E500000000000000000007A
:04000005080000ED02
:00000001FF
